S00F000070726F6A6563742E737265631E
S31560000000000000000000000000000000000000008A
S31560000010000000004C00006000600000002010003E
S3156000002000000000000000003F0000000000070024
S31560000030000000000000000000000000000000005A
S315600000400000000006000000A8E0000083070BE344
S31560000050000040E3300F81EE111F91EE801581E3C1
S31560000060111F81EE38009FE5100F0CEE101F1FEE7A
S31560000070021081E3011081E34FF07FF5101F0FEE50
S315600000806FF07FF500000FE11F00C0E3130080E30F
S3156000009000F36EE10C109FE501F32EE16E0060E166
S315600000A01EFF2FE1000000106C20100004F01FE519
S315600000B0C121100000BE704748E09FE548009FE5FB
S315600000C048109FE548209FE548309FE548C09FE57A
S315600000D0110002F10ED0A0E1120002F100D0A0E101
S315600000E0170002F101D0A0E11B0002F102D0A0E1ED
S315600000F01F0002F103D0A0E1130002F10CD0A0E1D1
S31560000100060000EA1EFF2FE1204710002043100082
S31560000110204F1000204B1000203B1000203F1000A5
S3156000012000502DE9020000FA090000FB0140BDE81D
S31560000130DDFFFFEA11EE500F40F4700001EE500F44
S31560000140BFF36F8FF8EE100A40F08040E8EE100AB9
S31560000150BFF36F8F70471BEE100FBFF34F8F40F0EA
S3156000016003000BEE100FBFF36F8F704710B511EEE3
S31560000170100FBFF34F8F01EE100FBFF36F8F104854
S315600001800AEE120F0F480AEE320FBFF34F8F0024AC
S3156000019009E00D4800EBC4014A6850F83410204667
S315600001A000F014F8641C182CF3D300F0FBFD00F08B
S315600001B0EDFD00F0D3FDBDE8104000F0DBBD0000B2
S315600001C0FFBB88440004080C082E100006EE320FB0
S315600001D0BFF34F8F06EE131FBFF34F8F06EE332F1D
S315600001E0BFF34F8F7047F82004EE160F01200CEE18
S315600001F0FC0F1CEE9C0F40F001000CEE9C0FBFF351
S315600002006F8F7047DFF800F06D39001080B5002001
S3156000021000F014FE00F096F9012000F00FFE00F0E9
S3156000022079F800F07DF800F04FF9FFF79FFF00F0D6
S31560000230BBF800F0D7F800F045F9022000F0FEFDAB
S3156000024000F010F800F057F8FFF7CDFF00F060FA05
S3156000025000F0CDF8BDE80140FFF7D4BFDFF800F04D
S315600002608BED011038B5032000F074FA00243BE0F2
S315600002706D4800EBC40320016C4A19681150596837
S31560000280024451606A491A6C0A505A6C01444A60C9
S31560000290684DD3F88010295003F184010A6805443B
S315600002A06A60654ACD6B15500D6C02445560634AB1
S315600002B0C96F115003F582710D6802445560604D37
S315600002C0CA6B2A500A6C05446A605E4AC96F11504F
S315600002D003F5C2710B68024453605B4ACB6B1350E3
S315600002E0096C10444160641C082CC1DB0320BDE826
S315600002F0324000F00FBA554801684908490001606C
S315600003005349016200218160C160016841F00101C9
S31560000310016070474F4A5048121A5049504805E0EC
S3156000032050495148091A514820E00000002A00D17E
S31560000330704730B410F0030309D0002504E010F8CC
S31560000340014B01F8014B6D1C9D42F8D3D21AD21CA9
S31560000350002404E050F8043B41F8043B641CB4EB11
S31560000360920FF7D3BFF34F8F30BC7047002900D18F
S31560000370704710B410F0030208D00024234602E050
S3156000038000F8013B641C9442FAD3891AC91C002305
S315600003901A4602E040F8042B5B1CB3EB910FF9D3CD
S315600003A0BFF34F8F10BC704780B5314A3148121A7F
S315600003B031493248FFF7BAFF314A3248121A324998
S315600003C03248FFF7B3FF324A3248121A324933488D
S315600003D0FFF7ACFF324A3348121A33493348BDE857
S315600003E00840A3E732493348091A3348BEE780B567
S315600003F0012000F0AFF914EE160F002104EE161F6F
S315600004002E4A116821F02001116011682C490A7882
S315600004100A780A780A78097804EE160F0120BDE892
S31560000420024000F077B90000503D021000112881AB
S315600004300012288100132881001428810015288164
S3156000044000172881001C2881001D2881000006C035
S3156000045040787D01C82E1000082E1000082E10006E
S31560000460540E00601C371000C82E1000C82E1000F5
S315600004704400001000000010000000100000026040
S315600004806CEF011000010010000100100001026015
S31560000490645602106CEF01106CEF011000000760EB
S315600004A0008013300080133000801330F8660760D8
S315600004B0E22C031068560210685602100803288062
S315600004C008300090FFF7CABE58490868C0F340106C
S315600004D0096801F00101564A002804D1554800FA1E
S315600004E001F111607047544800FA01F111607047DC
S315600004F082B04E48524901600168009101680091DE
S31560000500016800910168009101680091016800919D
S31560000510016800910068009048484A490160016896
S31560000520009101680091016800910168009101687D
S315600005300091016800910168009100680090009840
S3156000054002B0C1E738B5002000903F4C4AF2015036
S3156000055020603E4D2860FFF7B7FFFFF7C9FF3C48B4
S3156000056001210160002349F6404101E000BF5B1CA8
S315600005701A4692B28A42F9DB0321016135490120AC
S31560000580088140F2FF308881A5220A7401220A7030
S31560000590FE220A7001220A700A78012A01D00A7DB9
S315600005A000920A7DD207EFD42B4901220A81888105
S315600005B0A5220A7401220A70FE220A7001220A70BC
S315600005C00A78012A01D00A7D00920A7DD207EFD40B
S315600005D0224901220A818881A5220A7401220A70B1
S315600005E0FE220A7001220A700A78012A01D00A7D69
S315600005F000920A7DD207EFD4194901220A818881C7
S31560000600A520087410460870FE2008701046087011
S315600006100878012801D0087D0090087DC007EFD4D6
S315600006204FF4254020602860009831BD0400288181
S315600006309836100000C2EB0B80D1F00800002880CD
S3156000064011000003060632FF101A2880001A28815E
S3156000065070002881000828812008288140082881A8
S31560000660600828814FF01440016841F00201016082
S3156000067000212248016009E0214850F821004FF02E
S31560000680144202EB8102C2F8080C491C1C29F3D300
S3156000069000210AE04FF0144000EB81024FF0FF307A
S315600006A0C2F88402C2F88403491C0D29F2D362B6EB
S315600006B061B664B6BFF36F8F7047000010B5C0F3C4
S315600006C00900A0F120010F4C2278134604EB430386
S315600006D09980521C2270BFF35F8F202805DB0A4881
S315600006E009B250F82100804703E0084951F820001C
S315600006F080472078401E207010BD000014001094C2
S31560000700F4FB01104C361000A44E02109C3610000B
S31560000710FFF7A8BF1D4A32F81010002904D032F83E
S315600007201010491E22F8101032F81010002910D14E
S3156000073019A131F81000C04380B2154A116841F41E
S31560000740254101401160134A116841F42541084072
S315600007501060704710B40D4A32F8101000290ED19F
S315600007600DA131F810100A4C23680B4343F425435E
S315600007702360084C2368194341F42541216032F80F
S315600007801010491C22F8101010BC704790361000EB
S31560000790101A2880001A288101000200040008004F
S315600007A0DFF8902510180A4600EB222090F8000822
S315600007B0084100F00100704710B414EE161F0020C7
S315600007C004EE160FDFF87025106800280BD14AF288
S315600007D00450DFF86845236803432360DFF860450B
S315600007E02368184320601068401C106004EE161FD2
S315600007F010BC704714EE161F002004EE160FDFF8CB
S3156000080038251068002802D01068401E10601068F5
S3156000081000280FD14FF6FB70DFF820351A680240CA
S3156000082042F425421A60DFF818351A68104040F421
S315600008302540186004EE161F7047DFF8082501464C
S315600008400912515C014111F0010102D14FF47900A6
S3156000085070470020704710B50C46DFF8EC14016055
S315600008608460204600F028F9A06800F0DEF90020D8
S3156000087010BD002101600846704780B5084600F04B
S315600008801BF9002002BD16B50C46FFF795FF01A9BE
S31560000890204600F027F9FFF7ADFF002016BD38B5FA
S315600008A00D4614462846FFF7C8FF2946FFF778FF2E
S315600008B02070002032BD10B489B2090ADFF88404C2
S315600008C0405CDFF888345B5C0340DFF88444615C3D
S315600008D021EA000018431080002010BC704770B4F5
S315600008E003F0FF0389B2090ADFF85804405C13EA93
S315600008F0000406D0DFF83C546E5CA64314403443D3
S315600009006C54834306D0DFF84C04445C9C431A4025
S3156000091022434254002070BC704710B4084680B22F
S31560000920000A01F0FF01DFF81C341B5C0B41DB079A
S3156000093002D5DFF8003401E0DFF81834012404FA48
S3156000094001F1002A1A5C03D122EA0101195401E07F
S3156000095011431954002010BC7047F0B403F0FF0334
S3156000096000241FE0DFF8EC530FE00125A540184690
S31560000970284216D0084680B2000ADFF8C8532D5CBC
S315600009802541ED07EED5DFF8AC5303276600B74087
S3156000099005EB4000B0F80052BD4317402F43A0F866
S315600009A00072641C082CE0D30020F0BC704710B4C1
S315600009B00023806880680C46B4F5805F03D0B1F58B
S315600009C0905F00D10123DFF86C1301EB830191F88E
S315600009D0041E03EB83031844C07901401180002094
S315600009E010BC704700200B469BB203F47F4301F0B6
S315600009F0FF01B3F5805F03D0B3F5905F00D10120AE
S31560000A00CC4B03EB800090F8043E012000FA01F124
S31560000A10C9B20B408B4201D1107001E0002010700A
S31560000A2000207047F8B50F4614461D460026FFF7AE
S31560000A30C3FE3846B0F5805F03D0B7F5905F00D14E
S31560000A400126BC4800EB860191F8040E20EA0505F4
S31560000A502C4381F8044EFFF7CDFE0020F2BDF8B5B9
S31560000A600C461546002680688768FFF7A5FE314666
S31560000A700AE002EB420007EB4000B0F91020204686
S31560000A80824200D10E46491C0A46D2B2042AF0DBE5
S31560000A90A848F6B23044012D90F80C1E04D141F0FE
S31560000AA0200180F80C1E03E001F0DF0180F80C1EC7
S31560000AB0FFF7A0FE0020F2BD38B50446FFF77CFEC6
S31560000AC0002509E0606800EBC501001D30F93500BE
S31560000AD000F008F86D1CADB220888542F2DBBDE8F7
S31560000AE0314087E6F0B50A4603469BB21B0A00F022
S31560000AF0FF00012404FA00F5924E1168C1F38031BB
S31560000B000029F15C03D02943F1548A4E02E0A943DF
S31560000B10F154904E032817D806EBC30101F5206106
S31560000B20C700D1F800C04FF0FF0E0EFA07FE2CEAA0
S31560000B300E0CD2F800E0CEF3052E0EFA07F747EA60
S31560000B400C0CC1F800C019E018D900F1FC01C9000D
S31560000B5006EBC30707F52067D7F804C04FF0FF0E12
S31560000B600EFA01FE2CEA0E0CD2F800E0CEF3052E4A
S31560000B700EFA01F141EA0C0CC7F804C0F718D2F876
S31560000B8000C0CCF3C001002919D0810006EB8303B5
S31560000B90D3F800460F258D40AC43CCF3031505FA18
S31560000BA001F10C43C3F8004697F800141268C2F3CB
S31560000BB0C00202FA00F0084387F80004F0BDE9437A
S31560000BC097F800C401EA0C0C87F800C41768C7F3ED
S31560000BD0410CBCF1010F0CD1400006EB4301B1F8AA
S31560000BE0003203228240934384401C43A1F80042B2
S31560000BF0F0BD19D9FC0703D4F45C2140F15403E03D
S31560000C0002D5F15C0D43F554400006EB4301B1F8A3
S31560000C10003203248440A3431268C2F3410202FAFD
S31560000C2000F00343A1F80032F0BDF8B50546002692
S31560000C3034462746FFF7C0FD204627E08E7C7601C6
S31560000C40F6B21E4318E0122E01D143F010034CEAAF
S31560000C500303CE7B012EF1D1CE7C7601F6B21E4324
S31560000C60DFF8F4E09EF800304FF0010C0CFA00FC5F
S31560000C704CEA03038EF8003082F80C6E897B0129FA
S31560000C8003D101218140C9B20C43401C042814DA07
S31560000C9000EB400105EB4101B1F810C06646360A2B
S31560000CA05FFA8CFC234A024492F80C3E03F0800300
S31560000CB0102EC8D143F00803C9E738462FE000EB91
S31560000CC0800129441B4A131891F807E015F810C0F3
S31560000CD04CEA0E0E83F800EE91F804C0BCF1010FE9
S31560000CE014D193F802CE0CF0880C4E7946EA0C06C5
S31560000CF091F806C046EA8C06F6B2097A02EB8002E3
S31560000D0082F8041E01218140C9B20F4305EB400100
S31560000D1049780901C9B20E4383F8026E401C012866
S31560000D20CDDDB80040EA04100B494870BDE8F140DB
S31560000D3060E5000000000A80C82E1000101A2880A6
S31560000D40001A2881000C038154524F5000080A8013
S31560000D500008038100000381100E0A8011EE100F57
S31560000D60BFF34F8F50F4805001EE100FBFF36F8FBB
S31560000D707047000011EE100FBFF34F8F50F0040064
S31560000D8001EE100FBFF36F8F7047000011EE100F6A
S31560000D90BFF34F8F50F0010001EE100FBFF36F8F5E
S31560000DA070470000BFF34F8F002007EE150FBFF3AB
S31560000DB05F8F30EE303FC3F30262002A00D1704786
S31560000DC02DE9F04104460FE0401E00FA06F847EAB6
S31560000DD0080801FA0CFE4EEA080807EE568F00284E
S31560000DE0F2D1002921D1641C944221D2214601EB23
S31560000DF041011846C84000F007000128F3D9670092
S31560000E0040EE107FBFF34F8F30EE101F01F0070CDE
S31560000E100CF1040CC1F3C9000546C1F34E31B5FAB5
S31560000E2085F6202E02D11F2600E0491E2846CCE713
S31560000E30BFF34F8FBFF36F8FBDE8F081022804D1F7
S31560000E40024841680248FFF706BD70471408021061
S31560000E50945B021012000000C7FF01001200100030
S31560000E60C7FF110002000010C3FF17101200003008
S31560000E70C7FF173012000040C7FFFF5F0200006027
S31560000E80C3FFFF7F13000080CBFFFF80130000814C
S31560000E90CBFFFF8113000090CBFF1F9013000094DF
S31560000EA0C9FF1F94130000C0C9FFFFC00000000007
S31560000EB000000000000000000000000000000000CC
S31560000EC000000000000000000000000000000000BC
S31560000ED000000000000000000000000000000000AC
S31560000EE0000000000000000000000000000000009C
S31560000EF0000000000000000000000000000000008C
S31560000F00000000000000000000000000000000007B
S30960000F100000000077
S3156002000020F09FE520F09FE520F09FE520F09FE538
S3156002001020F09FE520F09FE520F09FE500F09FE548
S315600200201EFF2FE1692010000801001069201000F0
S3156002003091830110B5830110D9830110FD830110EC
S30960020040B03A00105A
S3156002010004F01FE500201000310F19EEFC1F01E319
S31560020110001040E3010000E0031000E3101040E32A
S31560020120010080E14FF07FF5310F09EE6FF07FF548
S31560020130F2FFFFEA1EFF2FE117F090BA16F07EBEBD
S3156002014017F01CBC18B40C46E41E012C04D822F429
S31560020150004218BC17F0BDBF18BC17F065BF00009F
S3156002016010B5040040F007804FF4AC720FF2100134
S315600201700AA00BF019FD00BF0AA06064002010BD42
S3156002018073616C5F6C7769705F6E65746465765F68
S315600201907365745F70665F696E666F006E657464C0
S315600201A065760000020000000000000080F6011083
S315600201B0C4F6011010B50C46216801F10C02214605
S315600201C01CF0EAF9010001D194F9040010BD38B5BA
S315600201D086B00D46114601F08AF8040053D08DF8B8
S315600201E0085000946946DFF84407FFF7E3FF0028EA
S315600201F049D06068002809D0DFF8345728460BF0EA
S315600202006FFD892105F1240018F00CFB04F1100042
S3156002021018F0C7FA002808D10FF254700BF060FD8F
S315600202208A21DFF8100718F0FDFA04F1140018F0BD
S31560020230B8FA00280AD0DFF8F85605F1A8000BF0E4
S315600202404FFD8C2105F1240018F0ECFA04F10C0044
S3156002025018F0ABF9002808D10FF22C700BF040FDB4
S315600202608F21DFF8D00618F0DDFA04F10C0018F0E1
S3156002027057F904F1100018F01BFA214606200CF01B
S31560020280F3FD002000E0204607B030BD10B586B011
S31560020290040001D100200EE0009418F0D9FA039010
S315600202A06946DFF89406FFF785FF010003D1204611
S315600202B001F075F8002006B010BD80B586B0002842
S315600202C00BD10FF2E0600BF00BFDD921DFF864066B
S315600202D018F0A8FA6FF00F0025E000290BD10FF293
S315600202E0E4600BF0FDFCDA21DFF8480618F09AFAB2
S315600202F06FF00F0017E0002A0BD10FF2E8600BF0E7
S31560020300EFFCDB21DFF82C0618F08CFA6FF00F0099
S3156002031009E000908DF81030029103926946DFF889
S315600203201C06FFF747FF07B000BD80B586B0002800
S315600203300BD10FF2D0600BF0D3FCFF21DFF8F4058E
S3156002034018F070FA6FF00F000CE0002901D1DFF8A7
S31560020350F01500900291ADF80C206946DFF8E405CD
S31560020360FFF728FF07B000BD80B586B000280CD124
S315600203700FF2AC600BF0B4FC40F22B11DFF8B4055F
S3156002038018F050FA6FF00F000CE0002901D1DFF887
S31560020390B01500900291ADF80C206946DFF8A80509
S315600203A0FFF708FF07B000BD10B586B000280ED172
S315600203B0DFF87C4504F1CC000BF092FC40F24B1165
S315600203C004F1240018F02EFA6FF00F0005E0009099
S315600203D06946DFF87805FFF7EDFE06B010BD80B519
S315600203E086B000280CD10FF258600BF079FC4FF4FE
S315600203F0B471DFF8400518F015FA6FF00F0005E0EA
S3156002040000906946DFF84805FFF7D4FE07B000BDE5
S31560020410F8B504460D000CD10FF244600BF060FC97
S3156002042040F28D11DFF80C0518F0FCF96FF00F0041
S31560020430F2BD00202860002C0CD10FF244600BF054
S315600204404FFC40F28F11DFF8EC0418F0EBF96FF015
S315600204500F00F2BD94F908006FF00B070146B9422E
S3156002046035DB04F1140018F09CF900282AD0226AC0
S31560020470694604F1140018F05BF910F1010F02D11C
S315600204806FF00200F2BD009EA36B002B03D0002228
S315600204900121204698470099DFF8B804814202D1CB
S315600204A06FF00C00F2BD002E0FD1002C0AD018F0AE
S315600204B0B4F994F90810B94202DB6FF00E012172A9
S315600204C018F0ADF96FF00E00F2BD2E600020F2BD9D
S315600204D078B587B005460C4600200090002C0CD1FA
S315600204E00FF2BC500BF0FCFB40F2E711DFF844045C
S315600204F018F098F96FF00F009EE02060002D0CD185
S315600205000FF2BC500BF0ECFB40F2E911DFF8240469
S3156002051018F088F96FF00F008EE0287800F0F0008E
S31560020520102811D105F1100018F03BF900280BD103
S3156002053005F1140018F035F9002802D06FF00A00B0
S315600205407AE06FF00E0077E005F1100018F029F9F5
S3156002055000280CD10FF284500BF0C2FB40F2F51169
S31560020560DFF8D00318F05EF96FF00A0064E095F9DF
S315600205700800014611F10C0F5EDB2A6A694605F135
S31560020580100018F0D5F810F1010F02D16FF00200D9
S3156002059052E0287800F0F00010282BD101950098DF
S315600205A0002803D000980089039001E0012003909F
S315600205B001A9DFF8A403FFF7FDFD0098002817D113
S315600205C0AB6B002B03D0002201212846984768684E
S315600205D0002806D195F9080000282DD16FF00D008C
S315600205E02AE00121284600F00EF96FF00E0023E0A2
S315600205F006890FE00098002809D10FF200500BF02F
S315600206006FFB40F23E21DFF82C0318F00BF90098DD
S315600206100068068918F001F9AA6A3146521AAA6276
S3156002062018F0FDF8AB6B002B03D032460121284649
S31560020630984700982060002008B070BD80B50028F9
S3156002064004D0027802F0F002102A0BD00FF270404A
S315600206500BF046FB40F25E21B64818F0E3F86FF005
S315600206600F0002BDBDE8044032E7F8B506460C004D
S315600206700BD10FF22C400BF033FB4FF41D71AD48DA
S3156002068018F0D0F86FF00F00F2BD00202060002E47
S315600206900BD10FF22C400BF023FB40F27621A548DA
S315600206A018F0C0F86FF00F00F2BD307800F0F0007D
S315600206B0102830D1002000909D4F4FF4207207F130
S315600206C0240105200CF094FB050002D14FF0FF30A7
S315600206D0F2BD69463046FFF7FBFE060005D02946A5
S315600206E005200CF0C1FB3046F2BD0098002809D106
S315600206F00FF214400BF0F4FA40F28A2107F124005B
S3156002070018F090F800982860009868600020A88128
S31560020710A8602560F2BD3046FFF7DAFEF2BD80B50D
S3156002072086B000280BD10FF2EC300BF0D9FA40F20A
S31560020730C321804818F076F86FF00F0005E000904C
S31560020740029169468548FFF735FD07B000BD70B571
S3156002075086B0154600280BD10FF2D4300BF0C0FAE2
S3156002076040F2E621734818F05DF86FF00F0048E03A
S31560020770027802F0F002102A0DD06D4C04F1F000FE
S315600207800BF0AEFA40F2E72104F1240018F04AF8C1
S315600207906FF0050035E0002D01D1002031E090F8C0
S315600207A02C20520802F001021E46B60806F0010627
S315600207B01643C269002A00D001260A9C320004D080
S315600207C0002C02D16FF005001BE0009002918DF8BB
S315600207D010300395C069002803D018F039F80590E7
S315600207E001E00020059069465D48FFF7E3FC0100E1
S315600207F007D1002C05D0002E02D00399216000E0BB
S31560020800256006B070BD80B586B000280BD10FF2A8
S315600208103C300BF065FA4FF44A71464818F002F81C
S315600208206FF00F0009E000908DF8081018F010F8CC
S31560020830039069464B48FFF7BDFC07B000BD0B4607
S315600208405B1E9B41DB43002A01D0022100E00021AE
S3156002085051EAD3731946D6E710B586B000280DD192
S31560020860334C04F58A700BF03BFA4FF45C7104F179
S31560020870240017F0D7FF6FF00F000EE0002900D1B9
S315600208802F49002A00D12E4A0090029103928DF8D8
S31560020890103069463448FFF78DFC06B010BD10B5BE
S315600208A086B000280DD1224C04F59E700BF018FA22
S315600208B040F2A53104F1240017F0B4FF6FF00F0087
S315600208C031E000290DD11A4C04F5B0700BF008FA2C
S315600208D040F2A63104F1240017F0A4FF6FF00F0076
S315600208E021E06A46059201AA0492039102900021D0
S315600208F0104617F0E5FD8DF80000002813D101229D
S3156002090002A91A481BF010FE0400049803D017F0DF
S3156002091007FE204607E0002117F01CFE049817F038
S31560020920FFFD9DF9000006B010BD0000B512001073
S31560020930D4F60110F8F6011089170010C1210010D3
S315600209402C17021049190010B11A0010FD1B001075
S31560020950431C0010D42C0310E71D00104D1D00101F
S31560020960B92000109D220010B1230010412400100E
S31560020970636F6E6E20686173206E6F207265637638
S315600209806D626F7800000000636F6E6E206861733F
S31560020990206E6F206F705F636F6D706C65746564D7
S315600209A0000000006E6574636F6E6E5F67657461EA
S315600209B06464723A20696E76616C696420636F6EF4
S315600209C06E0000006E6574636F6E6E5F676574615C
S315600209D06464723A20696E76616C696420616464EB
S315600209E0720000006E6574636F6E6E5F6765746138
S315600209F06464723A20696E76616C696420706F72A3
S31560020A00740000006E6574636F6E6E5F62696E6419
S31560020A103A20696E76616C696420636F6E6E00005F
S31560020A206E6574636F6E6E5F636F6E6E6563743AE6
S31560020A3020696E76616C696420636F6E6E00000079
S31560020A406E6574636F6E6E5F6C697374656E3A2001
S31560020A50696E76616C696420636F6E6E0000000079
S31560020A606E6574636F6E6E5F6163636570743A2000
S31560020A70696E76616C696420706F696E7465720006
S31560020A806E6574636F6E6E5F6163636570743A20E0
S31560020A90696E76616C696420636F6E6E0000000039
S31560020AA06E6574636F6E6E5F726563763A20696EA9
S31560020AB076616C696420706F696E7465720000009D
S31560020AC06E6574636F6E6E5F726563763A20696E89
S31560020AD076616C696420636F6E6E00006E65746326
S31560020AE06F6E6E5F726563763A20696E76616C6967
S31560020AF06420726563766D626F7800006275662047
S31560020B00213D204E554C4C007020213D204E554CC7
S31560020B104C0000006E6574636F6E6E5F73656E6423
S31560020B203A20696E76616C696420636F6E6E00004E
S31560020B306E6574636F6E6E5F77726974653A20690B
S31560020B406E76616C696420636F6E6E006E65746347
S31560020B506F6E6E5F636C6F73653A20696E76616CF9
S31560020B60696420636F6E6E00F8B505460F461646D9
S31560020B70002D50D005F1100017F013FE00284AD060
S31560020B8017F04BFEAC6A17F04AFE3189686A621842
S31560020B90904240DB002204200FF0F0F9040008D0F6
S31560020BA031460FF0BBFC002803D020460FF0F3FB62
S31560020BB00024002C2FD08122DFF8701B05200CF058
S31560020BC017F9060004D120460FF0E5FB0020F2BDBE
S31560020BD034607460DFF8580B0069B060387CB081AD
S31560020BE02489314605F1100017F096FD002804D0DD
S31560020BF030460CF04BFC0020F2BD17F00EFEA96ADF
S31560020C000919A96217F00BFEAB6B002B03D02246C3
S31560020C100021284698470020F2BD00002DE9F041E8
S31560020C2004460E4617461D46002E09D1DFF8FC8A99
S31560020C3008F184000BF054F8B121404617F0F2FD3A
S31560020C40002C07D12DA00BF04BF8B221DFF8DC0A9D
S31560020C5017F0E8FD002C23D06068B04208D000BFD0
S31560020C602EA00BF03DF8BA21DFF8C00A17F0DAFDC4
S31560020C7017F0D3FDA66A17F0D2FD04F1100017F043
S31560020C8090FD00280CD0606A39897118884207DBAA
S31560020C90C722DFF8981A05200CF0AAF8060004D1DC
S31560020CA03846BDE8F0410FF076BB37607760002DBD
S31560020CB001D1002100E029680698B160B0813D89C2
S31560020CC0314604F1100017F027FD002804D03046A3
S31560020CD0BDE8F0410CF0DABB17F09FFDA16A491935
S31560020CE0A16217F09CFDA36B002B05D02A4600215A
S31560020CF02046BDE8F0411847BDE8F081726563762B
S31560020D005F756470206D75737420686176652061A5
S31560020D106E20617267756D656E74000072656376CA
S31560020D205F7564703A207265637620666F722077AB
S31560020D30726F6E6720706362210000002DE9F041D8
S31560020D4004460E4615461F46002E09D1DFF8DC8999
S31560020D5008F1A8000AF0C4FFF921404617F062FDC7
S31560020D60002C07D12BA00AF0BBFFFA21DFF8BC09E1
S31560020D7017F058FD002C02D16FF0050047E060685D
S31560020D80B04208D02BA00AF0ABFF4FF48071DFF8B7
S31560020D909C0917F047FD04F1100017F002FD0028C8
S31560020DA009D1002D32D02989304618F00FF928462C
S31560020DB00FF0F1FA2AE038000BD0002C09D017F0B8
S31560020DC02CFD94F9081011F10C0F00DB277217F055
S31560020DD026FD002D01D02E8900E00026294604F169
S31560020DE0100017F099FC002802D04FF0FF300EE099
S31560020DF017F013FDA16A8919A16217F010FDA36BA2
S31560020E00002B03D032460021204698470020BDE8D9
S31560020E10F0810000726563765F746370206D75732E
S31560020E2074206861766520616E20617267756D6592
S31560020E306E740000726563765F7463703A207265E1
S31560020E40637620666F722077726F6E672070636258
S31560020E502100000038B5040009D1DFF8B40A0AF0AF
S31560020E603FFF4FF49C71DFF8C40817F0DBFC607833
S31560020E70012804D10121204600F0E5FF05E004289F
S31560020E8003D10121204600F023FB04F12C010A78EC
S31560020E90D00616D56068002813D000F16005288850
S31560020EA041F2030398420CDB68880B2809DA02F0E8
S31560020EB0EF020A70CB68002B03D000220221204683
S31560020EC09847002032BD38B504461546002C09D134
S31560020ED0DFF83C0A0AF004FF40F26111DFF84C08C1
S31560020EE017F0A0FC002C27D06078012804D10121DC
S31560020EF0204600F0A8FF05E0042803D10121204620
S31560020F0000F0E6FA6068002816D000F160021088E8
S31560020F1041F2030188420FDB50880B280CDA04F198
S31560020F202C01087800F0EF000870CB68002B03D024
S31560020F302A46022120469847002032BDF8B504466B
S31560020F400D46002C09D1DFF8C8090AF0C9FE4FF434
S31560020F50C271DFF8D80717F065FC0020606066781A
S31560020F606070042E0ED10546002C10D017F055FC89
S31560020F7094F9081011F10C0F01DB2946217217F062
S31560020F804EFC04E017F049FC257217F048FC04F1A8
S31560020F902C07FB68002B03D00022042120469847C9
S31560020FA0FB68002B03D00022114620469847FB6857
S31560020FB0002B03D0002202212046984704F110003C
S31560020FC017F0EFFB002804D0002104F1100017F09F
S31560020FD0A3FB04F1140017F0E4FB002804D00021FF
S31560020FE004F1140017F098FB012E03D0042E01D0F1
S31560020FF0032E3DD139780846800800F0010001F0E1
S31560021000FB013970002842D1B868002809D1DFF89F
S31560021010E00B0AF065FE40F2B311DFF8100717F035
S3156002102001FCB8680571B868006800F10C063046C4
S3156002103017F0BBFA002808D115A00AF051FE4FF44A
S31560021040DB71DFF8E80617F0EDFB0020B860002CD4
S3156002105009D017F0E2FB94F9081011F10C0F00DBCE
S31560021060257217F0DCFB3046BDE8F24017F06FBA26
S31560021070B86800280BD000BF0CA00AF031FE40F21F
S31560021080BD11DFF8A806BDE8F44017F0CBBBF1BD91
S31560021090696E61766C6964206F705F636F6D706C88
S315600210A0657465645F73656D00000000636F6E6EE4
S315600210B02D3E63757272656E745F6D7367203D3D1A
S315600210C0204E554C4C00000010B501464C68204637
S315600210D018F0F9FBDFF81C1B204618F0F8FBDFF866
S315600210E0181B204618F008FC0222DFF84C1C20462A
S315600210F018F036FCDFF8441C2046BDE8104018F0B4
S315600211000FBCF8B504460D461746002C16D004F1FE
S31560021110140017F046FB002810D0002D11D1DFF81D
S31560021120201C04F1140017F0F7FA002806D1A36B0D
S31560021130002B03D000221146204698476FF0050027
S31560021140F2BDA16B207800F0D2F8060011D1DFF86B
S31560021150F01B04F1140017F0DFFA002806D1A36B26
S31560021160002B03D000221146204698474FF0FF30ED
S31560021170F2BD7560FFF7A8FF3772314604F11400BD
S3156002118017F0CAFA002825D074680021204618F0A4
S315600211909AFB0021204618F09AFB0021204618F09F
S315600211A0ABFB00221146204618F0DAFB00212046EE
S315600211B018F0B6FB0020706006F1100017F078FA9E
S315600211C006F1100017F0F4FA304600F0E8F84FF036
S315600211D0FF30F2BDA36B002B03D0002211462046DE
S315600211E098470020F2BD000010B5044620684068AA
S315600211F0002808D027A00AF073FD4FF40B71DFF8C0
S315600212002C0517F00FFB2068007800F0F00010281C
S315600212102ED0202817D0402837D1217A002012F00C
S31560021220F4F92168486022685068002803D0DFF824
S31560021230141B12F055F920684068002802D14FF05D
S31560021240FF30207110BD00201CF02AFE2168486024
S31560021250216848680028EED00978222901D1012147
S3156002126001742268DFF8E01A50681CF0EFFDE2E7CD
S31560021270002018F026FB216848602168486800282B
S31560021280D9D00846FFF720FFD5E76FF00500207139
S3156002129010BD00007063625F6E65773A20706362AC
S315600212A020616C726561647920616C6C6F636174D4
S315600212B06564000010B5044600202071206840680D
S315600212C0002802D12046FFF78FFF206800280DD044
S315600212D017F0A3FA216891F9082012F10C0F01DBCD
S315600212E022790A72BDE8104017F099BA10BDF8B5B6
S315600212F007460D46DFF8346440F28D2231460620F9
S315600213000BF076FD040001D10020F2BD00202072B0
S315600213102770606007F0F007102F16D0202F01D0DB
S31560021320402F14D1012104F1100017F091F9002821
S3156002133016D1002104F10C0017F0C2F8002815D06E
S3156002134004F1100017F0B4F90AE00A21EBE706F19E
S31560021350CC000AF0C5FC4FF42A71304617F062FAE7
S31560021360214606200BF080FD0020F2BD04F1140038
S3156002137017F01EFA002060704FF0FF30A06104F192
S315600213802C00C560002181604160E16121624FF4F9
S31560021390005161620021A16201702046F2BD38B53A
S315600213A00446606800280AD0DFF8805305F1F4002D
S315600213B00AF096FC4FF43871284617F033FA04F1B6
S315600213C0100017F0EEF900280AD0DFF8605305F531
S315600213D092700AF085FC40F2E221284617F022FA62
S315600213E004F1140017F0DDF900280AD0DFF83C5347
S315600213F005F5B0700AF074FC40F2E521284617F054
S3156002140011FA04F10C0017F08BF804F10C0017F0D6
S31560021410D3F821460620BDE834400BF025BD38B529
S31560021420044604F1100017F0BCF9002802D124E04A
S315600214300CF02CF8694604F1100017F0A7F910F1C8
S31560021440010F12D0207800F0F00010280098EFD13A
S315600214500028EFD005466068002802D0298917F077
S31560021460B5FD28460EF097FFE4E704F1100017F089
S315600214701FF904F1100017F09BF904F1140017F03C
S3156002148090F9002813D131BD0099DFF8B408814282
S315600214900DD00D462846FFF7C2FF6868002803D0C4
S315600214A017F084FC002068602846FFF778FF6946DB
S315600214B004F1140017F06AF910F1010FE4D104F196
S315600214C0140017F0F5F804F1140017F071F931BD44
S315600214D02DE9F34F81B006464FF0000ADFF84C82E1
S315600214E0002E08D10FF24C200AF0FAFB40F243318B
S315600214F0404617F097F9307800F0F000102808D0CF
S315600215000FF240200AF0ECFB4FF45171404617F09F
S3156002151089F97078042808D008F5CE700AF0E0FBE5
S3156002152040F24531404617F07DF97068002808D1CF
S315600215300FF230200AF0D4FB40F24631404617F0F3
S3156002154071F9706B002808D1DFF8A4060AF0C8FBAF
S3156002155040F24731404617F065F9D6F80490706B51
S31560021560007A00F00101009100F0020503280AD01A
S315600215700846002809D099F81400052803D00628E1
S3156002158001D0082801D1012408E0002D05D099F880
S315600215901A40240904F0010400E05446002C03D0EA
S315600215A05146484618F08FF999F81400012804D17B
S315600215B05146484618F0CCF91BE00098002807D03F
S315600215C05146484618F083F95146484618F0C0F924
S315600215D0002D03D05146484618F08EF9002C08D0EB
S315600215E052461146484618F0BBF95146484618F02D
S315600215F097F9002C04D0484617F02CFB074605E005
S315600216002A460099484617F02EFB074638001AD03C
S3156002161039464FF0FF30814215D144F6206BF069AE
S31560021620002800DD834617F013F9716BC968401A0A
S3156002163058450ADB4FF0010A002C06D0484617F0DF
S31560021640B5FB002701E04FF0010ABAF1000F3CD06A
S31560021650706B016801F10C0807710020706370708D
S3156002166038001DD1002C08D000207060B36B002BAF
S3156002167003D002460421304698470098002806D0D7
S31560021680B36B002B03D00022114630469847002DDB
S3156002169006D0B36B002B03D0002202213046984756
S315600216A0002E09D017F0B9F896F9081011F10C0F4F
S315600216B000DB377217F0B3F89DF80800002802D0F5
S315600216C0404616F044FF00202DE099F814000128E8
S315600216D008D108F5E0700AF003FB40F2E3314046B8
S315600216E017F0A0F8002D04D0DFF80C15484618F064
S315600216F003F90122DFF84016484618F031F9DFF89F
S315600217003C16484618F00CF93146484618F0DBF8A4
S31560021710380007D118A00AF0E3FA40F2EF314046EA
S3156002172017F080F83846BDE8FE8F000058F80110C1
S31560021730108D0210696E76616C696420636F6E6EDD
S31560021740000000007468697320697320666F7220F6
S31560021750746370206E6574636F6E6E73206F6E6CE9
S315600217607900000070636220616C72656164792041
S31560021770636C6F736564000065727220213D20455B
S3156002178052525F4F4B00000038B5054628684478D0
S31560021790002C0ED0007800F0F000102809D000BFAF
S315600217A05CA00AF09DFA40F20141DFF8DC0B17F00B
S315600217B039F8002C03D0022C01D0032C06D1032C5D
S315600217C008D1286890F82C00400703D46FF0040013
S315600217D0287135E0032C0ED1286890F82C0040075A
S315600217E009D400BF50A00AF07BFA40F21F41DFF82D
S315600217F0980B17F017F8002028712868FFF70FFE7C
S315600218002968486800280DD00A7802F0F002102A8A
S3156002181035D0202A2CD0402A01D111F0CAFE0021EF
S31560021820286841602868836B002B02D0002211462B
S3156002183098472868836B002B02D0002202219847C2
S3156002184028680C3016F0B1FE002810D028680028EF
S315600218500DD016F0E2FF296891F9082012F10C0FFB
S3156002186001DB2A790A72BDE8324016F0D8BF31BD73
S3156002187000214162286840681CF0EBFACFE7486BAA
S31560021880002802D1086B002809D00FF600300AF052
S3156002189027FA40F23541DFF8F00A16F0C3FF04205A
S315600218A029684870032028722868456300212868E1
S315600218B0FFF70EFE0028DAD028684078042809D09F
S315600218C00FF6E4200AF00CFA40F23B41DFF8B80A60
S315600218D016F0A8FFDFF8984B204616F0B5FE0021F9
S315600218E028680C3016F036FE204616F094FE2868FC
S315600218F040780028BBD00FF6B0200AF0F1F940F22A
S315600219003F41DFF8840ABDE8344016F08BBF000021
S31560021910802400106E6574636F6E6E2073746174DA
S3156002192065206572726F7200626C6F636B696E6757
S3156002193020636F6E6E65637420696E2070726F6766
S31560021940726573730000000038B50446206890F92A
S3156002195008106FF00B050846A84201DA21711FE0F4
S315600219606FF00500207121684868002818D0097850
S3156002197001F0F00110290ED0202906D040290FD19E
S31560021980A16811F097FD20710AE0A289A1681CF096
S31560021990E7F9207104E0A289A16817F009FA2071BB
S315600219A0206800280CD016F038FF216891F90820CB
S315600219B0AA4201DB22790A72BDE8324016F02FBFD5
S315600219C031BD2DE9F041054614460026002D02D1AF
S315600219D06FF005006AE06878032809D00FF6CC201C
S315600219E00AF07EF94FF49361DFF89C0916F01AFF4C
S315600219F005F12C07B86800280DD1387840070AD45B
S31560021A00DFF8848908F5F2700AF06AF940F29A41C1
S31560021A10404616F007FFB868002804D00471B8681B
S31560021A20006800F10C06287800F0F000102804D156
S31560021A30002C02D12846FFF747FB38780446A408F3
S31560021A4004F0010484F0010400F0FB003870002CFD
S31560021A5001D0002E0DD1002C01D1002E09D00FF637
S31560021A606C200AF03DF940F2A741DFF81C0916F036
S31560021A70D9FE0020B8606870002D0AD016F0CDFE3F
S31560021A8095F9081011F10C0F01DB0021297216F08D
S31560021A90C6FEFB68002B03D0002202212846984727
S31560021AA0002C02D0304616F052FD0020BDE8F081CF
S31560021AB038B5044621684868002803D16FF00E00E5
S31560021AC0207183E00A7802F0F002102A0ED0202AF2
S31560021AD006D0402A6DD1A16811F0F7FC207175E03D
S31560021AE0A289A1681CF07DF920716FE0487803280D
S31560021AF003D16FF00800207168E0002803D06FF010
S31560021B000900207162E00846FFF7DEFADFF8643901
S31560021B10A289A1682068406817F0CAFA2071002875
S31560021B2054D1206890F82C10490801F00101032273
S31560021B304270206890F82C300A0004D043F0040307
S31560021B4080F82C3003E003F0FB0380F82C3003D0DE
S31560021B506FF00400207139E02068446320684078A1
S31560021B60032809D00FF640000AF0BAF840F2E541C0
S31560021B70DFF8140816F056FEDFF8F458284616F019
S31560021B8063FD002120680C3016F0E4FC284616F04E
S31560021B9042FD20684078032829D10FF60C000AF02E
S31560021BA09FF840F2E941DFF8E007BDE8344016F0FD
S31560021BB039BE0FF638100AF093F840F2F241DFF8B8
S31560021BC0C80716F02FFE6FF0050020712068002806
S31560021BD00DD016F022FE216891F9082012F10C0F41
S31560021BE001DB22790A72BDE8324016F018BE31BDB9
S31560021BF0902400103D0D0010C70E001010B504466B
S31560021C002168087800F0F000202805D148681CF0A9
S31560021C1015F90020207102E06FF00500207120683E
S31560021C2000280DD016F0F9FD216891F9082012F10D
S31560021C300C0F01DB22790A72BDE8104016F0EFBD87
S31560021C4010BD7CB50646306890F908106FF00B053A
S31560021C500846A84201DA31715EE06FF00A0030711F
S31560021C6032685068002857D0117801F0F0011029C7
S31560021C704FD15178002947D1017D002903D06FF0F9
S31560021C800500307148E06A46FF2117F000F904004A
S31560021C9003D19DF8000030713EE03068103016F0D6
S31560021CA080FD002807D03068103016F001FD3068DC
S31560021CB0103016F07DFD002030713068143016F059
S31560021CC070FD002805D10A213068143016F0C0FC78
S31560021CD0307196F9040000280FD1022031684870ED
S31560021CE0306844603168486817F0EDFDDFF88817A0
S31560021CF03068406817F02CFE0EE0204616F0AAFF08
S31560021D0000213068416007E0022905D10020307168
S31560021D1002E06FF00F003071306800280AD016F0CA
S31560021D207CFD316891F90820AA4201DB32790A7298
S31560021D3016F075FD73BD0000550E00103D0F0010C4
S31560021D40D42C0310690B00101D0C001070B50546EB
S31560021D50286890F908106FF00B040846A04201DA71
S31560021D6029712FE06FF00A002871296848680028F7
S31560021D7028D0097801F0F001202914D0402921D118
S31560021D80AB6813F1080102D09968002904D1196879
S31560021D9011F00DFC287115E003F10802196811F0C3
S31560021DA0A2FB28710EE0AE683168B268002A03D1E0
S31560021DB01BF0F9FE287105E0B38906F108021BF0F3
S31560021DC0F9FE2871286800280CD016F026FD2968CD
S31560021DD091F90820A24201DB2A790A72BDE87040B5
S31560021DE016F01DBD70BD70B50546002028712968C4
S31560021DF04868002815D0087800F0F000102810D145
S31560021E00AC68B4F5803F02D34FF6FF7600E0264613
S31560021E10314689B22868406817F0D8F8B6B2A41B72
S31560021E20EFD1286800280DD016F0F7FC296891F9E1
S31560021E30082012F10C0F01DB2A790A72BDE87040A4
S31560021E4016F0EDBC70BD2DE9F84F05468A460027AF
S31560021E50DFF834B5002D08D10FF2246009F040FF97
S31560021E6040F2E351584616F0DDFC6878012808D046
S31560021E700FF2906009F034FF40F2E451584616F0D2
S31560021E80D1FC05F12C06B068002808D10FF200607B
S31560021E9009F026FF40F2E551584616F0C3FC686821
S31560021EA0002808D10FF27C6009F01AFF40F2E65171
S31560021EB0584616F0B7FC7068B168C968884208D39C
S31560021EC00BF5097009F00CFF4FF4BD61584616F028
S31560021ED0A9FCB06890F810803078400800F00100E4
S31560021EE04446A41004F001040443E869002816D0AD
S31560021EF016F0AEFCB2685169401AE96988420EDB97
S31560021F0001277068002804D16FF006080020D060AF
S31560021F10ADE04FF00008D06040467060A7E07068A0
S31560021F20B1688A6802440092C968A1EB0009B9F5F2
S31560021F30803F03D34FF6FF7948F002086A68B2F829
S31560021F4060C062464B469BB29A4209D2E146002C79
S31560021F5004D0002A04D16FF006081DE048F002089A
S31560021F6010FA89F0814208D20BF5167009F0B8FEB4
S31560021F7040F21361584616F055FC43464A4692B201
S31560021F800099686819F026FB8046002804D041460D
S31560021F904FF0FF30814227D1002C12D0484680B2E2
S31560021FA0B168C96888420CD2F368002B04D04A46ED
S31560021FB092B2032128469847307840F0100030707C
S31560021FC012E0686800F16002108841F203018842FB
S31560021FD002DB50880B2807DBF368002B04D04A46E5
S31560021FE092B2032128469847404600281CD1706861
S31560021FF010FA89F07060B268D168884201D0002C0C
S3156002200001D0D0600127686819F07FFE014611F1A0
S315600220100C0F03DB6FF00302914228D18046012741
S315600220200021B068C16022E04FF0FF3188421AD1C8
S31560022030686819F06AFE014611F10C0F04DB02466C
S315600220406FF003018A4205D1804601270021B068FC
S31560022050C1600CE0002C0AD06FF006080127002050
S31560022060B168C86003E001270020B168C860002F2C
S315600220701ED0B068016801F10C0480F8048000206B
S31560022080B06070606870002D0AD016F0C6FB95F9D4
S31560022090081011F10C0F01DB85F8088016F0BFFB02
S315600220A0BAF1000F02D0204616F051FA002001E084
S315600220B04FF0FF30BDE8F28F38B50446216891F9DA
S315600220C008206FF00B051046A84201DA227166E01D
S315600220D0087800F0F00010285ED14878002803D016
S315600220E06FF0040020715AE04868002850D0012041
S315600220F048702168486B002802D1086B002808D016
S315600221000FF2882009F0ECFD40F283619E4816F0DA
S3156002211089FBE068002808D10FF2204009F0E0FD53
S3156002212040F28461984816F07DFB20684463002083
S315600221302168086301462068FFF785FE00283ED0C5
S3156002214020684078012808D00FF25C2009F0C8FDAB
S3156002215040F289618C4816F065FBDFF81453284615
S3156002216016F072FA002120680C3016F0F3F9284650
S3156002217016F051FA20684078012820D18AA009F029
S31560022180AFFD40F28D618048BDE8344016F04ABB2F
S315600221906FF00A00207102E06FF0050020710846B8
S315600221A000280CD016F039FB216891F90820AA4262
S315600221B001DB22790A72BDE8324016F030BB31BDCE
S315600221C010B5044620684068002852D0A268217C77
S315600221D0002902D00068106001E0406810600020AB
S315600221E020712168087800F0F000102822D020289B
S315600221F00DD0402833D1207C002804D04868017C69
S31560022200E068018038E06FF00A00207134E04968C6
S31560022210207C002803D0498AE06801802CE0087C93
S31560022220400703D46FF00A00207125E0888AE168CE
S31560022230088021E04A68207C002808D1117D0029A7
S3156002224001D0012903D16FF00A00207114E0002841
S3156002225001D0D08A00E0108BE16808800CE00FF2B2
S31560022260F02009F03DFD40F2DD61474816F0DAFAEA
S3156002227002E06FF00A002071206800280DD016F087
S31560022280CCFA216891F9082012F10C0F01DB227950
S315600222900A72BDE8104016F0C2BA10BD38B50446DF
S315600222A021684A784868002858D0087800F0F0001B
S315600222B0102853D1207A032801D0022A4ED0032A4D
S315600222C04CD0012A03D16FF00400207149E0C007A7
S315600222D002D50846FFF7A3F82168486B002802D1A9
S315600222E0086B002808D000BF28A009F0F9FC40F26C
S315600222F01C71254816F096FA0420216848702068F9
S31560022300446300212068FFF7E3F800283AD020688A
S315600223104078042808D000BF23A009F0E1FC40F20F
S315600223202171194816F07EFA514D284616F08CF93D
S31560022330002120680C3016F00DF9284616F06BF96C
S315600223402068407800281DD017A009F0C9FC40F229
S3156002235025710D48BDE8344016F064BA6FF00A0084
S315600223602071084600280DD016F057FA216891F9B7
S31560022370082012F10C0F01DB22790A72BDE83240A5
S3156002238016F04DBA31BD000058F80110616C7265E5
S315600223906164792077726974696E67206F722063EF
S315600223A06C6F73696E6700007374617465210000F7
S315600223B038B50446216891F908206FF00B0510467E
S315600223C0A84201DA22711BE04868002815D0087815
S315600223D000F0F00020280CD1E068A168227C002A77
S315600223E003D106F0EDFF20710AE007F08DF8207147
S315600223F006E06FF00500207102E06FF00A002071BE
S31560022400206800280CD016F008FA216891F9082095
S31560022410AA4201DB22790A72BDE8324016F0FFB9A0
S3156002242031BDD068002903D16FF00501017004E067
S3156002243000230370096850680160906816F087B8D7
S315600224401CB504460020009023460C4A6168206849
S3156002245002F010FAE1680870E06890F9000010F185
S31560022460050F04D0A068BDE8164016F070B813BD1B
S31560022470B02B0310C319001003110010232400109F
S31560022480636F6E6E20213D204E554C4C000000005D
S31560022490636F6E6E2D3E63757272656E745F6D7379
S315600224A06720213D204E554C4C000000636F6E6ED6
S315600224B02D3E7374617465203D3D204E4554434FF5
S315600224C04E4E5F434F4E4E4543540000626C6F63FF
S315600224D06B696E6720636F6E6E6563742073746179
S315600224E07465206572726F7200000000496E7661D3
S315600224F06C6964206E6574636F6E6E207479706544
S3156002250000000000636F6E6E2D3E73746174652009
S315600225103D3D204E4554434F4E4E5F5752495445BA
S3156002252000000000636F6E6E2D3E7063622E7463F0
S315600225307020213D204E554C4C0000006D73672D76
S315600225403E6D73672E772E6C656E20213D203000BE
S31560022550696E76616C6964206E6574636F6E6E5FB8
S3156002256074797065000000002DE9D04348431E4926
S315600225700A6842F21071B2FBF1F21C49B1FBF2F247
S315600225804FF47A740021A4FB006714FB0177DFE93C
S3156002259018894F450DD801D346450AD242F21074C6
S315600225A0A4FB060114FB071143461BF0F6EE8008F6
S315600225B013E09200B0FBF2F242F2107042430B4615
S315600225C0A4FB020114FB03111A464B46994202D838
S315600225D003D3904201D34FF0FF30002802D0BDE80A
S315600225E0D04309E0BDE8D0839836100000CA9A3B12
S315600225F0000000000100000000F000B80138002869
S31560022600FCD17047704700001A491B480160704749
S3156002261081B01A4BC0F3044200F480018A1803EBBE
S315600226208201012200F01F0002FA00F000900A689F
S31560022630009802430A600868009001B0704781B052
S315600226400E4BC0F3044200F480018A1803EB820148
S31560022650012200F01F0002FA00F000900A6800985A
S3156002266082430A60086800900868009008680090D3
S3156002267001B0704701A521431002288140022880DB
S315600226800F481CF053BA000010B509F005F900288E
S3156002269005D158220FF2540119A009F085FA074CA8
S315600226A02068002800D080470121201D1CF046FAD0
S315600226B012F089F8BDE810401AF068BF285B021074
S315600226C02C5B0210002802D54FF0FF3070474FF4A2
S315600226D07A72114690FBF1F15143401A504300F26F
S315600226E0E73090FBF2F040187047000072745F7436
S315600226F069636B5F696E6372656173650000000092
S3156002270072745F696E746572727570745F67657490
S315600227105F6E6573742829203E203000DFF800F072
S31560022720243A0010DFF800F0303A00100168814266
S3156002273001D10120704700207047014600200A46F9
S3156002274000E0401C12688A42FBD17047FFF7E6BF81
S315600227500846FFF7E7BF80B50FF6BC1009F0C0FA6E
S31560022760002002BD80B509F0FAF8002002BD10B55E
S31560022770044602E0B7A009F0B3FA2046441E0028D8
S31560022780F8D110BDF8B504460D4616461F462846D2
S315600227900DF0D2F9001D206025726660E7600020A8
S315600227A02061F1BDF8B504460E4600252846306123
S315600227B0F068002802D0307A002801D12846F2BD9E
S315600227C03768002C01D13C46012507F10C00FFF762
S315600227D0BDFF0146002D0CD114F8042C22F08002B4
S315600227E0307A824205D007F10C00FFF7B1FF002074
S315600227F0F2BD002572682468BC4206D06D1C42F8A0
S31560022800044BF0688542F6D100E0002407F10C0023
S31560022810FFF79EFF35612046F2BD2DE9F047BAB05B
S315600228200024082308AA012103A8FFF7ABFF039837
S31560022830051FDFF880680FF69C03102211463046AA
S3156002284009F04EFA1020FFF792FF06F1500009F0E8
S3156002285047FAB5A009F044FA0A20FFF788FFB3A049
S3156002286009F03EFA03A92046FFF79CFF04460027BB
S3156002287024E00AF1010A9AF800002328F9D0D8F870
S31560022880300009F045F8D8F82810D8F82C20CDF891
S3156002289008800190D9F808000090A2EB0A0A8A44DF
S315600228A0642000FB0AFABAFBF2F38918D8F81C0016
S315600228B0091A06F1900009F013FA7F1C07988742FD
S315600228C057DA08A850F82700A0F1140805F110009D
S315600228D0FFF73CFF814698F8101021F080019DF8C1
S315600228E01400814205D0494605F11000FFF730FF1A
S315600228F0E3E7A822414610A81CF08AF9494605F189
S315600229001000FFF725FF08F13C0999F80C000090CA
S315600229104346102211460FF6080009F0E1F999F8CC
S31560022920000000F00700022804D10FF6000009F04B
S31560022930D7F91AE0410704D50FF2FC7009F0D0F915
S3156002294013E0002804D10FF2FC7009F0C9F90CE01B
S31560022950012804D10FF2F87009F0C2F905E00328E4
S3156002296003D10FF2F87009F0BBF9D8F82800824655
S3156002297081E7002C7FF476AF00203AB0BDE8F0879D
S31560022980F0B58FB00024082307AA022102A8FFF738
S31560022990F9FE0298051F0FF2D073102211460FF24C
S315600229A0D47009F09DF91020FFF7E1FE0FF2E07096
S315600229B009F096F902A92046FFF7F4FE04460027BD
S315600229C02AE0FFF7BAFE0190B08C009033461022DF
S315600229D011460FF2E47009F083F91CE0FFF7B8FEC6
S315600229E006F11C00FFF7A2FE002806F11C00E8D1E2
S315600229F0FFF7A3FE0190B08C009033461022114679
S31560022A000FF2A47009F06CF906F11C0007F00EFCD7
S31560022A1046A009F065F97F1C0698874215DA07A871
S31560022A2050F82700A0F1140605F11000FFF78EFE9C
S31560022A300146327C22F080029DF81000824205F146
S31560022A401000CBD0FFF784FEE5E7002CB2D1002060
S31560022A500FB0F0BD2D000000F0B58FB00024082342
S31560022A6007AA042102A8FFF78DFE0298051F0FF23E
S31560022A70746310221146DFF8400609F031F910201E
S31560022A80FFF775FE0FF2407009F02AF902A9204697
S31560022A90FFF788FE0446002727E0706A00903346F7
S31560022AA0102211460FF2587009F01AF91CE0FFF76E
S31560022AB04FFE06F11C00FFF739FE0028EDD106F144
S31560022AC01C00FFF73AFE0190706A009033461022AE
S31560022AD011460FF2147009F003F906F11C0007F0B3
S31560022AE0A5FB12A009F0FCF87F1C0698874215DA4E
S31560022AF007A850F82700A0F1140605F11000FFF7A9
S31560022B0025FE0146327C22F080029DF81000824248
S31560022B1005F11000CBD0FFF71BFEE5E7002CB5D11F
S31560022B2000200FB0F0BD0000200000000A00000087
S31560022B302DE9F04192B0002408230AAA032105A8D0
S31560022B40FFF720FE0598061FDFF870550FF29C53BB
S31560022B5010221146284609F0C3F81020FFF707FE37
S31560022B6005F1300009F0BCF805A92046FFF71AFE08
S31560022B7004464FF0000837E0FFF7DFFD0490687DFA
S31560022B800390A87D0290A8690190102000903B46B0
S31560022B90024601460FF29C6009F0A2F822E0FFF7B6
S31560022BA0D7FD07F11C00FFF7C1FD002807F11C00E5
S31560022BB0E2D1FFF7C2FD0490687D0390A87D029082
S31560022BC0A8690190102000903B46024601460FF22A
S31560022BD0446009F085F807F11C0007F027FBB3A0F3
S31560022BE009F07EF808F101080998804517DA0AA803
S31560022BF050F82800A0F1140706F11000FFF7A6FDB1
S31560022C00014607F110052A7822F080029DF81C0021
S31560022C10824206F11000C2D0FFF79AFDE2E7002C6D
S31560022C20A2D1002012B0BDE8F081F8B590B00024C0
S31560022C30082308AA052103A8FFF7A4FD0398051F28
S31560022C400FF2B04310221146DFF8740409F048F817
S31560022C501020FFF78CFD0FF2FC5009F041F803A932
S31560022C602046FFF79FFD044600272EE0FFF765FD2D
S31560022C700290308D0190708D00903346102211467D
S31560022C800FF2046009F02CF81EE0FFF761FD06F111
S31560022C901C00FFF74BFD002806F11C00E6D1FFF78A
S31560022CA04CFD0290308D0190708D0090334610225B
S31560022CB011460FF2BC5009F013F806F11C0007F03A
S31560022CC0B5FA7AA009F00CF87F1C0798874215DAE4
S31560022CD008A850F82700A0F1140605F11000FFF7C6
S31560022CE035FD0146327C22F080029DF81400824254
S31560022CF005F11000C9D0FFF72BFDE5E7002CAED138
S31560022D00002011B0F0BDF0B58FB00024082307AAE9
S31560022D10062102A8FFF736FD0298051F0FF2DC3383
S31560022D20102211460FF2785008F0DAFF1020FFF7F2
S31560022D301EFD0FF28C5008F0D3FF02A92046FFF762
S31560022D4031FD044600272AE0FFF7F7FC0190B08DBB
S31560022D5000903346102211460FF2905008F0C0FFE1
S31560022D601CE0FFF7F5FC06F11C00FFF7DFFC00280C
S31560022D7006F11C00E8D1FFF7E0FC0190B08D0090EF
S31560022D803346102211460FF2505008F0A9FF06F1A1
S31560022D901C0007F04BFA45A008F0A2FF7F1C0698BC
S31560022DA0874215DA07A850F82700A0F1140605F144
S31560022DB01000FFF7CBFC0146327C22F080029DF8C0
S31560022DC01000824205F11000CBD0FFF7C1FCE5E7A7
S31560022DD0002CB2D100200FB0F0BDF0B591B0002446
S31560022DE0082309AA194604A8FFF7CCFC0498051F14
S31560022DF0B44E0FF2143310221146304608F070FFBB
S31560022E001020FFF7B4FC06F1280008F069FF04A958
S31560022E102046FFF7C7FC0446002622E01022114630
S31560022E200FF2F84008F05CFF1AE0521C0968814212
S31560022E30FBD1786AF96A3B6B002A0392029301918D
S31560022E4000903B46EADD102211460FF2B44008F0CC
S31560022E5047FF07F1340007F0E9F914A008F040FFD4
S31560022E60761C089886421CDA09A850F82600A0F15A
S31560022E70140705F11000FFF769FC01463A7C22F05F
S31560022E8080029DF81800824205F1100002D0FFF719
S31560022E905FFCE5E7FFF75CFC0022796B07F1340023
S31560022EA0C5E7002CB3D1002011B0F0BD0A000000C6
S31560022EB0F0B58FB00024082307AA0A2102A8FFF7FB
S31560022EC061FC0298051F804E84A31022114630468B
S31560022ED008F006FF1020FFF74AFC06F1340008F0FE
S31560022EE0FFFE02A92046FFF75DFC0446002710E0BC
S31560022EF00FF2884008F0F4FE0AE00FF2644008F030
S31560022F00EFFE707C4007F3D50FF2644008F0E8FEEE
S31560022F107F1C069887422ADA07A850F82700A0F194
S31560022F20140605F11000FFF711FC0146327C22F00F
S31560022F3080029DF81000824205F1100002D0FFF770
S31560022F4007FCE5E7FFF704FC306B0190F06A00903E
S31560022F503346102211460FF2E03008F0C1FE707C53
S31560022F60C007CAD50FF2E83008F0BAFEC9E7002CEE
S31560022F70B7D1FFF785FB01460FF20C4008F0B0FEB1
S31560022F8000200FB0F0BD00002DE9F8418FB000249B
S31560022F90082307AA092102A8FFF7F4FB0298061F75
S31560022FA0DFF828515AA31022114605F17C0008F079
S31560022FB097FE1020FFF7DBFB05F1A40008F090FEF8
S31560022FC002A92046FFF7EEFB04464FF000082EE00A
S31560022FD0FFF7BEFB0FF2C831387F1F2804DA55F8B7
S31560022FE02000002800D0014697F822000190009147
S31560022FF03B46102211460FF2B03008F071FE14E023
S3156002300007A850F82800A0F1140706F11000FFF790
S315600230109DFB01463A7C22F080029DF810008242B6
S3156002302006F11000D4D0FFF793FB08F10108069869
S315600230308045E5DB002CC3D1002010B0BDE8F081ED
S3156002304010B5234C022829D1224602200AF093F9B0
S31560023050401E092822D8DFE800F0050B110E14176E
S31560023060211A1D08FFF7D9FB16E0FFF721FF13E0CF
S31560023070FFF786FC10E0FFF7EFFC0DE0FFF758FD67
S315600230800AE0FFF7D2FD07E0FFF73DFE04E0FFF737
S31560023090A4FE01E0FFF778FF002010BDC7A008F08C
S315600230A01FFE00BFCBA008F01BFE20460AF07AF98D
S315600230B0002010BDA4FE011060FF011084FF011004
S315600230C0DCFF0110000002104C000210B00002107A
S315600230D06CEF0110746872656164000074696D65F5
S315600230E0720000006576656E740000006D75746529
S315600230F0780000006D61696C626F78006D7367714C
S3156002310075657565000000006D656D706F6F6C00AA
S3156002311064657669636500001B5B324A1B5B480027
S31560023120252D2A2E2A73202533642000207265619C
S3156002313064792020000000002073757370656E64E8
S315600231400000000020696E697420202000000000E3
S3156002315020636C6F73652020000000002072756E1C
S315600231606E696E670000000073656D6170686F72EC
S3156002317065000000252D2A2E2A73207620202073D2
S31560023180757370656E64207468726561640A0000A6
S31560023190202D2D2D202D2D2D2D2D2D2D2D2D2D2D11
S315600231A02D2D2D0A00000000252D2A2E2A7320259A
S315600231B03033642025643A00252D2A2E2A73202571
S315600231C03033642025640A0020202D2D2D2D2D2DCF
S315600231D02D2D2D2D202D2D2D2D2D2D2D2D2D2D2DC4
S315600231E02D2D2D0A00000000252D2A2E2A7320205F
S315600231F030782530387820253033643A0000000074
S31560023200252D2A2E2A7320203078253038782030D2
S315600232100A000000252D2A2E2A7320252D382E2AF3
S3156002322073202530346420253864202025303464A8
S3156002323020000000252D2A2E2A7320252D382E2ABD
S315600232407320253034642025386420202530346488
S315600232500A000000202D2D2D2D20202D2D2D2D2014
S315600232602D2D2D2D2D2D2D2D2D2D2D2D2D2D0A0076
S31560023270252D2A2E2A7320253034642020253034C9
S31560023280642025643A000000252D2A2E2A73202503
S315600232903034642020253034642025640A0000001E
S315600232A0252D2A2E2A7320656E74727920737573A2
S315600232B070656E64207468726561640A000000005D
S315600232C0202D2D2D2D20202D2D2D2D2D2D2D2D2DED
S315600232D02D2D2D2D2D0A0000252D2A2E2A7320250F
S315600232E0303464202025643A00000000252D2A2E01
S315600232F02A732025303464202025640A00000000E9
S31560023300252D2A2E2A732025303464202025303438
S31560023310642020253034642025643A00252D2A2E27
S315600233202A732025303464202025303464202025F9
S315600233303034642025640A00252D2A2E2A73203013
S3156002334078253038782030782530387820000000AB
S3156002335061637469766174656420202000000000F0
S315600233606465616374697661746564200000000057
S31560023370706572696F6469630A0000006F6E65202A
S3156002338073686F740A00000063757272656E7420EA
S315600233907469636B3A3078253038780A0000000029
S315600233A0556E6B6E6F776E00252D2A2E2A73202539
S315600233B02D32307320252D38640A000055736167FB
S315600233C0653A206C697374205B6F7074696F6E7393
S315600233D05D0A00005B6F7074696F6E735D3A0A0016
S315600233E038B514461D4641F2F802904201D00B20D0
S315600233F032BD0498002801D0052032BD002901D0D3
S31560023400112032BD092C01D30F2032BD00F007F81E
S315600234102246B64928461BF058E8002032BD10B550
S31560023420B3480168B14CB3480078002812D0D1F88D
S315600234301009D4E9002322F0FF320243C4E90023D3
S31560023440A168884204D2121E63F1FF33C4E90023E5
S31560023450A06005E0082201F5116120461BF034E800
S315600234600020E06010BDA44800687047A349488DFB
S31560023470002808D1A2480289088D82428041C00F85
S3156002348081F8400002E0012081F840009D49488DA4
S31560023490002808D19A480289088D82428041C00F6D
S315600234A081F840007047012081F84000704780B57E
S315600234B092482021018000214180416044F21F012F
S315600234C08181914901610022426182830262826244
S315600234D080F840208B4A2023138000235380536058
S315600234E08089908111611846506190831062906262
S315600234F082F8400001468548017000F0A0F8002875
S3156002350001D000F07FF800208149087001468148A9
S3156002351001700846804908808049087080490860C1
S3156002352080490860014680480160804801607048B1
S3156002353000686E496F4A037A1B0702D50020107035
S3156002354004E001231370D0F8100988604FF47A60A2
S31560023550C86001BD10B4002833D0674A11680029DB
S3156002356006D110600021416008461168086029E0B2
S3156002357004890B899C420CD200210160116841606A
S3156002358011680860106000201CE04A68002A12D0A8
S315600235901146002915D023460A899A4211D09342D0
S315600235A0F3D20A68026041600A68002A00D050605D
S315600235B00860002006E0486001600021416008461C
S315600235C000E0012010BC704730B44B4B19680446CA
S315600235D000E01146002913D04A680D89A542F8D148
S315600235E00868002800D04260002A00D010600020DF
S315600235F008604860088919680989884200D11A609A
S3156002360030BC704738B53C4D2C6803E0208964684D
S31560023610FFF7DAFF002CF9D10020286031BD10B522
S315600236200446002000E0283422894FF6FF718A4260
S3156002363004D02046FFF78EFF0100F4D010BD10B50E
S315600236402D4C0020206004F5B670FFF7E8FF0100FC
S3156002365003D1201DBDE81040E1E710BD2DE9F84F0A
S3156002366031480468002C3ED02B4D2C4E2C4FDFF88F
S31560023670B480DFF8A09099F800000090D8F8003086
S315600236803A6831782888A0478246FF282BD0204C9A
S315600236902078401E03281AD8DFE800F00D021313C3
S315600236A0DFF888B0DBF80000002804D01BF06BFB63
S315600236B00020CBF8000000221146504611F088FE29
S315600236C005E0D8F800203968504611F081FE0020E6
S315600236D02070288030703860C8F8000089F80000D1
S315600236E0014611480160BDE8F18F0000685602107C
S315600236F000260310DA2C0310E4EF0110FC240310F9
S31560023700C4F401104025031020A10700DD2C03102C
S31560023710F8270310F927031002280310FA2703106B
S31560023720082803100C28031010280310142803100D
S31560023730FEF7F4BF0846FEF7F5BF000010B50400B9
S3156002374005D125220FF298116AA008F02DFA002001
S31560023750206010BD2DE9F341040006D15FF04102FD
S315600237600FF2A81163A008F01FFA0198002829D069
S3156002377011F09FFA002809D064A52946524808F03C
S31560023780AFFA442229464FA008F00EFA19F089F8DA
S31560023790002809D15DA529464C4808F0A1FA4422C1
S315600237A0294648A008F000FA08F076F8002809D001
S315600237B056A52946464808F093FA4422294641A06E
S315600237C008F0F2F9002519F06CF88046414E304651
S315600237D0FFF7AEFF07462068C10740D430F001000C
S315600237E004D04D2249A13C4808F0DEF90198002830
S315600237F002D16FF0910534E02846C8F83000022104
S31560023800404619F07FFA050029D128F001002060B0
S3156002381008F042F8002809D03CA529462C4808F051
S315600238205FFA6122294627A008F0BEF901980028AE
S3156002383009DD01AA002108F1500019F039FE08F1EC
S31560023840500019F0B2FD39463046FFF773FF11F0AA
S31560023850F4F8D8F830503046FFF76AFF0746002082
S31560023860206039463046FFF765FF2846BDE8F68197
S31560023870F8B5040005D18E220FF2A4011DA008F04E
S3156002388093F9144D2846FFF753FF06462068C10791
S3156002389006D531462846FFF74DFF6FF03300F2BD7D
S315600238A030F0010003D019F031FA074601E06FF0FB
S315600238B060070120206031462846FFF73BFF384605
S315600238C0F2BD000030000000200802104C08021011
S315600238D084080210A05B0210AC080210C8E7000060
S315600238E072745F636F6D706C6574696F6E5F696EBB
S315600238F069740000636F6D706C6574696F6E202108
S315600239003D2052545F4E554C4C00000072745F630A
S315600239106F6D706C6574696F6E5F77616974000054
S315600239205F636F6D706C6574696F6E5F646F6E6591
S31560023930000000000020704700207047002070479A
S315600239400020704710B51D4C02E054F8040B804706
S315600239501B488442F9D310BD10B5194C02E054F8E5
S31560023960040B804717488442F9D310BD80B51BF01B
S315600239700CFA00F02BF8002002BD80B5FFF7ECFFD1
S31560023980BDE801401BF0DFB91CB5142001900A2086
S3156002399000904FF400630022DFF82C101BA019F090
S315600239A004F8040005D1D8220FF24C0119A008F0E0
S315600239B0FBF82046BDE8164018F077BF5CF203605C
S315600239C060F203607CF203607B39001080B500F020
S315600239D02AE801F0BDF807F0C2FF19F04AFE11F0BD
S315600239E009F8FFF7D1FF19F065FE05F0CFFB11F07C
S315600239F012F8002002BD000072745F6170706C691B
S31560023A00636174696F6E5F696E6974006D61696E18
S31560023A100000000074696420213D2052545F4E55B7
S31560023A204C4C000000000FE180000CF11EFF2FE1FC
S31560023A3000F021E11EFF2FE100402DE9FF5F2DE935
S31560023A4000400FE101001EE3000054E3FFFFFF1A8E
S31560023A50204084E310002DE900D080E500D091E596
S31560023A601000BDE804F06FE1FFDFFDE80FE0A0E1C2
S31560023A700040ADE800D090E51000BDE804F06FE1CB
S31560023A80FFDFFDE8B0209FE5003092E5010053E3D9
S31560023A900300000A0130A0E3003082E59C209FE526
S31560023AA0000082E598209FE5001082E51EFF2FE167
S31560023AB0FF5F2DE9671F00FA816700FA6D1F00FA42
S31560023AC074009FE5001090E5010051E30100000AD1
S31560023AD0FF5FBDE804F05EE20010A0E3001080E53F
S31560023AE0FF5FBDE80F000DE910104DE204204EE2C3
S31560023AF000304FE1D3000EF104002DE9F05F2DE9AD
S31560023B00F000B1E8F0002DE908002DE92C409FE5B0
S31560023B10005094E500D085E524609FE5006096E557
S31560023B2000D096E51000BDE804F06FE1FFDFFDE826
S31560023B300FE0A0E1FF5FADE800F08DE50C8D0210AD
S31560023B40048D0210088D021010EEB00F00F00F0007
S31560023B507047000010B500BF0DA008F0C1F8FFF76E
S31560023B6062EF044604E0262204A103A008F01CF8D2
S31560023B70002CF8D110BD00003000000072745F683E
S31560023B80775F6370755F73687574646F776E0000D4
S31560023B9073687574646F776E2E2E2E0A00000000AD
S31560023BA00146000A40EA012080B2704701460802D7
S31560023BB000F47F0040EA01600A46120A02F47F427C
S31560023BC0104340EA1160704770B410F8013B11F877
S31560023BD0014B2546AB4209D043F020063546613D8E
S31560023BE01A2D0AD244F02004A64206D11446621E59
S31560023BF0002C04D0002BE8D101E0012000E0002077
S31560023C0070BC704770B504460E461546002C02D14C
S31560023C106FF0FE0070BD304600F010F8002802D04A
S31560023C206FF0FE0070BD3246092120460BF09AFF06
S31560023C30E583002084F82200208470BD09210CF0FF
S31560023C40B7B838B504460025002C06D1BC220FF25F
S31560023C5000310FF2EC2007F0A7FFE16A002918D0C5
S31560023C60A07FC00615D42046884705000DD00FF206
S31560023C70F02008F035F82A462146B04808F030F8B8
S31560023C800FF2F42008F02CF803E0E08B40F010000D
S31560023C90E083284632BD000070B505460E46002414
S31560023CA0002D06D1E1220FF2D8210FF2942007F0FF
S31560023CB07BFF28460CF06CF8092805D0E2220FF249
S31560023CC0C0219D4807F070FFA87FC00619D4E96A33
S31560023CD0002912D02846884704000ED00FF28020B1
S31560023CE007F0FEFF22462946944807F0F9FF0FF2D5
S31560023CF0882007F0F5FF204670BDE88B40F0100083
S31560023D00E883298C01F00800AA7F120704D50028EF
S31560023D1002D06FF0330070BD002806D040F60F72F5
S31560023D2011403046024091420DD005F12C004268A6
S31560023D30002A04D0314628469047044603E040F6FE
S31560023D400F7006402E84002C02D014F14A0F12D155
S31560023D50288C40F00800288495F82200401C85F8DB
S31560023D602200C0B2002806D14FF48A720FF21021E7
S31560023D7087A007F019FF204670BD000070B50446A3
S31560023D800025002C40F0078040F227120FF2142122
S31560023D906BA007F009FF20460BF0FAFF092805D051
S31560023DA04FF494727FA1644807F0FEFE04F1200688
S31560023DB0B078002802D16FF0FE0070BD401EB07070
S31560023DC0C0B2002801D0284670BD7169002902D0B0
S31560023DD0204688470546002D02D015F14A0F01D1CB
S31560023DE000203080284670BD2DE9F04104468846A1
S31560023DF016461F46002C06D140F255120FF2B41138
S31560023E004FA007F0D1FE20460BF0C2FF092805D06D
S31560023E104FF4AB7267A1484807F0C6FE94F82200D9
S31560023E20002805D16FF0FE0007F087FD00200DE047
S31560023E30A56B002D05D03B46324641462046A84733
S31560023E4004E06FF0490007F078FD0020BDE8F081DC
S31560023E502DE9F0410446884616461F46002C06D1D7
S31560023E604FF4C0720FF25C1135A007F09DFE20463A
S31560023E700BF08EFF092805D040F2811251A12E481F
S31560023E8007F092FE94F82200002805D16FF0FE003A
S31560023E9007F053FD00200DE0E56B002D05D03B4693
S31560023EA0324641462046A84704E06FF0490007F0D3
S31560023EB044FD0020BDE8F08170B504460E46154605
S31560023EC0002C06D14FF4D2720FF208111CA007F033
S31560023ED06BFE20460BF05CFF092805D040F2A51266
S31560023EE03CA1154807F060FE236C002B05D02A46DC
S31560023EF031462046BDE8704018476FF0490070BDF4
S31560023F0038B504460D46002C40F007804FF4E07247
S31560023F100FF2D4010AA007F047FE20460BF038FFE5
S31560023F20092805D040F2C1122FA1034807F03CFED2
S31560023F306562002032BD0000D808021070090210C6
S31560023F4064657620213D2052545F4E554C4C0000EC
S31560023F5072745F6465766963655F696E6974000031
S31560023F601B5B33316D5B452F6B65726E656C2E64C0
S31560023F7065766963655D20001B5B306D0A00000033
S31560023F8072745F6465766963655F6F70656E000003
S31560023F906465762D3E7265665F636F756E74202109
S31560023FA03D20300072745F6465766963655F636C39
S31560023FB06F73650072745F6465766963655F726567
S31560023FC06164000072745F6465766963655F7772C7
S31560023FD06974650072745F6465766963655F636F51
S31560023FE06E74726F6C00000072745F6465766963EA
S31560023FF0655F7365745F72785F696E6469636174C5
S3156002400065000000704770B506460D4602281ADA4A
S31560024010DFF8CC18002D11D02A6841F82020DFF88D
S31560024020C4080468002C0ED004F13E0009F0AAFC14
S315600240302A46314609F0BCFE2468F3E7DFF8A82871
S31560024040126841F8202070BD5FE2F8B505460C465D
S31560024050002701E07F1CFFB2042F17DADFF88C0815
S3156002406007EB071110EB0116B07A0328F2D14FF471
S31560024070807206F110012846FFF7A6FD0028E9D1F5
S31560024080002C01D0706820600020F2BD6FF00F0036
S31560024090F2BDF8B504460D461646314689B2284643
S315600240A00CF0E0FB0746761C002F1ED407F0C0001A
S315600240B0C0280ED119E0314689B228460CF0D2FBEF
S315600240C0002812D42178C0B281420ED1761C641CBB
S315600240D07F1E002FEFDC641C314689B228460CF045
S315600240E0C1FB002801D4D8D102E04FF6FF70F2BDC1
S315600240F0761C304680B2F2BD38B504460D46294676
S3156002410089B220460CF0AEFB6D1C002812D400F07A
S31560024110C001C02911D010FA85F221898A4209DAD2
S315600241204519294689B220460CF09CFB002801D429
S31560024130E5D102E04FF6FF7032BD6D1C284680B2B3
S3156002414032BD2DE9F84F84B00446DFF8A007224657
S3156002415002EB021100EB011B9BF80B00022809DB44
S315600241600FF29C7007F0BCFD40F2FB21DFF880077E
S3156002417014F058FBDFF868579BF80B0055F82000DF
S31560024180002807D10021204600F0E0F800208BF8D5
S315600241900A0074E00BF110001AF044EA01460022AC
S315600241A0123189B210460BF0E9FE040064D0002297
S315600241B00C2101A81AF060EABBF80800FFF7F0FCD0
S315600241C0ADF8040001208DF806004FF48076ADF854
S315600241D008600C2201A920460CF09CFA0BF10F092B
S315600241E00C2709F10109C8464FF0000A03E00AF1FB
S315600241F0010A09F1010999F800002E2801D0002868
S31560024200F5D15246D2B2394689B220460CF03CFB11
S315600242107B1C9BB2A9EB080292B2414620460CF087
S31560024220E7FA57FA8AF77F1C99F800000028D8D176
S315600242300022394689B220460CF026FBADF80060B2
S31560024240ADF802607F1C3B469BB20422694620465B
S315600242500CF0CEFA35239BF80B0005EB8002214663
S315600242609BF80F0005EB8000C06819F0A3FC0546B9
S3156002427020460CF090F801E04FF0FF35284605B075
S31560024280BDE8F08F38B52E2019F00AFE040001D180
S31560024290002032BD1AF0B1FD6FF00705014689B202
S315600242A0B1F5806F01DA284606E0024692B2DFF87F
S315600242B03816204619F054FD0146A942EAD0002874
S315600242C004D0204619F0C5FD002032BD00220FF24F
S315600242D08D21204619F0BAFD204632BD70B5002503
S315600242E0DFF8FC4500E06D1C2946C9B2042904DAF0
S315600242F004EB8100C0680028F5D104290ADA04EBD0
S315600243008106FFF7BFFFF060002803D025722846BA
S31560024310C0B270BD0022207A401C04F10C0301E099
S31560024320521C401C1146C9B204290DDA0146C9B2B3
S31560024330042900DB00200146C9B253F82110002986
S31560024340EED02072C0B270BD042070BDF8B50446CE
S315600243500D4600271BE0DFF89C0507EB470110EBD3
S3156002436081063068002811D0307A214688420DD104
S3156002437072682946DFF87405234603EB031C00EBDB
S315600243800C10103033689847002030607F1C042F71
S31560024390E1DB0025234601E06D1CEDB2042D15DA42
S315600243A09D42F9D04FF4887010FB05F1DFF83C2589
S315600243B05618B67A022EEFD110FB03F010440F3274
S315600243C0525CC17B8A42E7D10421C173DFF81C05C6
S315600243D003EB031110EB0114E17B04290FDADFF81A
S315600243E0005505F10C0050F8210019F032FD05F177
S315600243F00C00E17B002240F821200420E073F1BD2D
S3156002440080B51AF0FAFC80B200220DE0DFF8DC1407
S3156002441002EB021301EB0313997A022902D119897D
S315600244208142EED0521CD2B2042AEFDB02BD0000FA
S3156002443038B505462C46042C09DB0FF2DC4007F042
S315600244404FFC40F20641DFF8A80414F0EBF9DFF8FE
S315600244509C0404EB041110EB0114A07A032847D8DC
S31560024460DFE800F05202113DFFF7CAFF2081022009
S31560024470A0720020E072012020730020607328463B
S31560024480BDE832405DE6207B401E2073C0B2002844
S315600244903AD1617B491C61730846C0B2042819D1BE
S315600244A0E17A0846421C012A0DDCDFF8342402EB6D
S315600244B080004068002806D0491CE1720120207302
S315600244C00020607307E000212846FFF73FFF0020C7
S315600244D0A07231BD21732846BDE8324031E62068BC
S315600244E0002802D0401E20600ED10020A07231BD8D
S315600244F00FF2404007F0F4FB40F24541DFF8F0036B
S31560024500BDE8344014F08EB931BD10B5002404E024
S315600245102046C0B2FFF78CFF641C2046C0B2042856
S31560024520F6DB10BD70B5034603EB03121501DFF827
S31560024530BC6374190322A2727151DFF8BC239142E3
S3156002454000D97251211DFFF701FF7059002804D16D
S31560024550A07A032801D10020A07270BD2DE9F04730
S3156002456088B01646984630891028C0F2C380002368
S315600245700C2204A930460CF067F80C2840F0BA8089
S31560024580BDF81000FFF70CFB0025DFF8602300E0A2
S315600245906D1C2946C9B2042980F2AC8001EB011375
S315600245A012EB0317B97A0229F2D139898142EFD126
S315600245B0BDF81400FFF7F4FA8146BDF81600FFF75E
S315600245C0EFFA04469DF81200000640F19380B9F1B5
S315600245D0010F40F08F80D8F80000C149FA7A51F88D
S315600245E02210884240F086800C22314607F1100084
S315600245F0FFF74FFD81464FF6FF78494640468142B6
S3156002460078D04B460422694630460CF01DF80428E1
S3156002461070D1BDF80200B0F5807F6BD1BDF80000A5
S31560024620B0F5807F66D109F104099DF8130010F098
S315600246300F0F02D1B24649461AE030460BF0ABFE86
S3156002464000212846C0B2FFF781FE0020B87254E00E
S31560024650BDF80C00FFF7A4FA10FA89F0B0F5803FB6
S3156002466048DABDF80C00FFF79BFA01464944641E1E
S31560024670204680B20028E0D00A46BAF8080092B214
S315600246808242DAD289B25046FFF736FD814641460A
S3156002469088422FD04B460A2201A950460BF0D4FF1E
S315600246A00A2827D109F10A09BDF80600B0F5807F0C
S315600246B0CED1BDF80400B0F5807FC9D1BDF80C003B
S315600246C0B0F5806FC4D14B469BB2042207A930462F
S315600246D00BF0BAFF04280DD10798786030460BF0CC
S315600246E05AFE0298FFF762FA01462846C0B2FFF701
S315600246F019FF02E030460BF04EFE08B0BDE8F087C7
S315600247002DE9F84F80460E4614461D460027B946E7
S3156002471001E009F101094946C9B2042927DA01EB28
S3156002472001100001714901F10A02125C022AF0D1FC
S315600247304FF48072103101444046FFF745FA002873
S31560024740E7D1394600E0491C0B46DBB2042BE0DABE
S31560024750684803EB430200EB820210680028F2D13C
S315600247601460556082F808906FF0040080E03A4663
S315600247700421924611E003280DD1604890F800C0EA
S31560024780B87BACEB000C10466346C0B2DBB2984213
S3156002479001D2624651460AF1010A5046C0B2042865
S315600247A007DA524B00EB001713EB0717B87A0028AB
S315600247B0E1D15046C0B2042811D10846C0B20428DD
S315600247C008DA00EB00121001484A02F10A031B5C88
S315600247D0032B02D04FF0FF304AE08A4617184FF09B
S315600247E000094946434B00E0491C0A46D2B2042AF4
S315600247F007DA02EB4200820098580028F4D103EBF4
S315600248000209B9F1000F02D14FF0FF3030E089F8AA
S3156002481008A00120B872DFF8E4B09BF80000B87314
S31560024820C9F80040C9F80450FF2E00D9FF26324667
S31560024830414607F110001AF0EBF9002007F110016A
S315600248408855FFF74BFDF873042806DB0020B87223
S31560024850C9F800004FF0FF300AE09BF80000401CE8
S315600248608BF800005046C0B2FFF7E2FD6FF004001D
S31560024870BDE8F28F2DE9F04105460C4616461F4605
S31560024880002C0BD0002D09D02878002806D02846A7
S3156002489019F0C8EE8046B8F5807F02D36FF00F003C
S315600248A01BE02146284605F013FB002805D1214668
S315600248B02846FFF7CAFB002801D100200DE0084810
S315600248C00068002802D16FF0050006E03B463246DA
S315600248D041462846BDE8F04112E7BDE8F081000096
S315600248E0A85B0210F42403102C170210C45B02109A
S315600248F0A809021004600210803A0900D52C031040
S31560024900646E7320736572766572206F7574206F3C
S315600249106620617272617900617272617920696E74
S31560024920646578206F7574206F6620626F756E6439
S3156002493073000000756E6B6E6F776E20646E735FC8
S315600249407461626C6520656E7472792073746174C9
S31560024950653A0000DFF800F009271000724A02EBA0
S315600249608000C0F8801070470122010007D400F071
S315600249701F018A406D49400941F820207047203066
S3156002498002FA00F06A490860704770B40246FF2373
S315600249900124002A24D44FF01445520905EB8206FD
S315600249A0D6F8845000F01F0294402C43C6F8844027
S315600249B04FF014440246920804EB8202C00000F0F3
S315600249C01800D2F82044834024EA0303C2F8203454
S315600249D0D2F82034C01C81401943C2F820141BE06F
S315600249E02032544D2868944004432C60524C104641
S315600249F0800804EB8000D20002F01802D0F800446E
S31560024A00934024EA0303C0F80034D0F80034D21C81
S31560024A1091401943C0F8001470BC7047012102002E
S31560024A200ED44FF01443520903EB8203D3F80421E8
S31560024A3000F01F0001FA00F01043C3F8040170474A
S31560024A403E4B1A68203001FA00F010431860704736
S31560024A5084E789E738B505461446FFF796FF21468F
S31560024A602846BDE83440F3E7D8E710B50446FFF7B9
S31560024A70F0FF2046BDE81040F6E710B50446FFF7A2
S31560024A80E9FF2046BDE81040EFE700003FEE130F56
S31560024A9000F58010704780B50120FFF75BFFBDE827
S31560024AA00140FDF7B1BD11E080B506F0D5FE51ECCF
S31560024AB02E0F234AD2E900238018594141EC2E0F6A
S31560024AC0FDF7E2FDBDE8014006F0D6BE38B555EC0D
S31560024AD00E4F03E001210846FDF746FD51EC0E0F2D
S31560024AE0A94201D1A042F5D0164917488167144AF6
S31560024AF0164801684FF47A70B1FBF0F00021C2E902
S31560024B00000151EC0E0FD2E900238018594141ECA5
S31560024B102E0F01200EEE320F00221E216FF00100D1
S31560024B20BDE83840A9E70000CC2E1000840200944C
S31560024B308002119480001194000011940001119476
S31560024B4078560210A94A00109C361000200006C052
S31560024B5010B5FFF79BFF0446FEF7F6FF02462146B5
S31560024B60002004F075F804F014FFFFF79CFF074974
S31560024B70074819F0FFFF00F073FB00F069FC054877
S31560024B8006F00CFFBDE81040FEF7DCBEFFFF171013
S31560024B90F04E0310280A02101CB50446002000904D
S31560024BA040F604521F2120460CF0D3FF01AA1021C1
S31560024BB020460CF0B6FF019820F4007040F4526073
S31560024BC001900246102120460CF0C3FF6A4611216D
S31560024BD020460CF0A6FF009820F0040000900246E2
S31560024BE0112120460CF0B5FF40F642221F212046D5
S31560024BF00CF0AFFF002016BD10B50446642017F016
S31560024C00A8FF2046BDE81040C6E710B5DFF8481396
S31560024C10DFF8480302F0BEFA04000CD00FF26C30E3
S31560024C2007F05EF821460FF2743007F059F80FF27A
S31560024C308C3007F055F8002010BD00207047002028
S31560024C40704780B56FF0490006F077FE002002BD1E
S31560024C5080B56FF0490006F070FE002002BD80B597
S31560024C601046012907D1002807D00622BB494968A8
S31560024C70096919F0CDFF002002BD6FF0FE0002BD8A
S31560024C802DE9F8430E46B648076F4FF000093546E0
S31560024C9018E0C4F5006219F0BBFF4A46A2F500624D
S31560024CA008F50068A8EB0404A0460024686800EBD7
S31560024CB00801381904EB0209B9F5006FE9D819F051
S31560024CC0A7FF2D68002D04D06A894FF000084C4674
S31560024CD0ECE732893946A14802F054FA04000AD058
S31560024CE0AAA006F0FDFF2146B6A006F0F9FF00BFB6
S31560024CF0B2A006F0F5FF0020BDE8F2832DE9F84385
S31560024D000026304600909648C76E6A4639469348F2
S31560024D1002F014FAB0460098002806D00322014633
S31560024D2089B204200BF02AF90646002E22D03546B7
S31560024D301AE0C8F5006219F06BFF2246A2F500621E
S31560024D4009F50069A9EB0808C1464FF000086868D2
S31560024D50484407EB080108EB0204B4F5006FE8D893
S31560024D6019F056FFA0462D68002D03D06A894FF0D0
S31560024D700009ECE73046BDE8F28300007CB5002608
S31560024D80764C204602F016FA764D3046687017E089
S31560024D9069780120B0408143697010E06A46314605
S31560024DA0C9B2204602F008FA0028F1D19DF8000047
S31560024DB00228EDD169780120B04001436970761C02
S31560024DC03046C0B20328E9D3697811F0070F13D0D1
S31560024DD0A87888421FD00121614803F0DDFA00BF3E
S31560024DE080A006F07DFF00BF82A006F079FF00BFBB
S31560024DF072A006F075FF0EE00021594803F0CCFA66
S31560024E0078A006F06DFF00BF7CA006F069FF00BFC8
S31560024E106AA006F065FF6878A87073BD10B504468F
S31560024E2006F01AFD207903281FD8DFE800F0140285
S31560024E300B14E0684B494A7802434A700A78104379
S31560024E40087012E0E06847494A7882434A700A78F5
S31560024E501043087009E0424803F08AFA002804D039
S31560024E604FEA000168A006F03BFFBDE8104006F07D
S31560024E7003BD000038B53A4D4FF40061012019F0C8
S31560024E807BFEE866002807D04FF40061012019F026
S31560024E9073FE286700280DD15EA006F021FF00BFD1
S31560024EA060A006F01DFF00BF44A006F019FF6FF078
S31560024EB02F0440E00020E8622B4828632B48686391
S31560024EC02B48A8632B48E8632B4828640020A86413
S31560024ED02A4828662A486866FFF797FE1DA1284673
S31560024EE003F044FA04000DD04AA006F0F9FE21460A
S31560024EF04FA006F0F5FE00BF30A006F0F1FE6FF09F
S31560024F00FE0418E0042000904FF47A7300221D49D3
S31560024F104EA018F0BAF9A866002803D018F045FA30
S31560024F20002808D03BA006F0DBFE174806F0D8FE44
S31560024F3022A006F0D5FE002C09D0E86E002801D02A
S31560024F4006F00CFF286F002801D006F007FF204606
S31560024F5032BD000065300000A40F0210807E021090
S31560024F6034600210D62C03103B4C00103F4C0010EC
S31560024F70434C0010514C00105F4C0010FD4C001069
S31560024F80814C00107D4D0010300A02101B5B3333DA
S31560024F906D5B572F4442475D20000000525F4554C7
S31560024FA04845525F4F70656E206661696C65642123
S31560024FB02C20726573203D20256400001B5B306DDA
S31560024FC00A000000525F45544845525F5772697441
S31560024FD065206661696C6564212C20726573203D6B
S31560024FE0202564001B5B33326D5B492F4442475D6B
S31560024FF0200000006C696E6B207570006C696E6BC8
S3156002500020646F776E000000525820657272203DF0
S3156002501025640A001B5B33316D5B452F4442475D55
S31560025020200000004E6F206D656D6F727900000082
S31560025030656D61632064657669636520696E69740E
S31560025040206661696C643A20256400007068796C38
S315600250506E6B0000DFF800F00B281000DFF800F03E
S315600250603B281000DFF800F0CF281000DFF800F0D0
S315600250705328100010B414EE161F002004EE160F0B
S315600250807B4A1068002809D14AF20450794C236899
S3156002509003432360784C2368184320601068401CE1
S315600250A0106004EE161F10BC704714EE161F002027
S315600250B004EE160F6E4A1068002802D01068401E71
S315600250C01060106800280DD14FF6FB70694B1A68A4
S315600250D0024042F425421A60674B1A68104040F457
S315600250E02540186004EE161F7047000070B50E4624
S315600250F01446624D62492846FFF7ACFF00280CD081
S3156002510063A006F0EDFD00BF65A006F0E9FD00BFF5
S3156002511068A0BDE8704006F0E3BD002C04D0012C07
S3156002512015D0042C27D070BD0122314609B228461B
S31560025130FFF794FF002832D055A006F0D1FD514802
S3156002514006F0CEFD5BA0BDE8704006F0C9BD002248
S31560025150314609B22846FFF781FF00281FD000BFFB
S315600251604BA006F0BDFD484806F0BAFD51A0BDE869
S31560025170704006F0B5BD4022314609B22846FFF7B7
S315600251806DFF00280BD000BF41A006F0A9FD3F4885
S3156002519006F0A6FD47A0BDE8704006F0A1BD70BD51
S315600251A038B50D460124012A00D00024FFF762FFBC
S315600251B02246294609B23148FFF754FFBDE831401D
S315600251C073E7000080B541F6080081420ED300BF46
S315600251D02FA006F085FD00BF38A006F081FD00BF56
S315600251E034A006F07DFD4FF0FF3002BD6A4609B27B
S315600251F02248FFF73BFF9DF8000002BD6FF0FE00FC
S3156002520070476FF0FE0070476FF0FE00704738B56A
S3156002521004464FF0FF3519F08EFD04281ED1207822
S31560025220502801D0702817D16178084630380A288C
S3156002523014D230390902A0780246303A0A2A0DD2CF
S31560025240E2781346303B0A2B08D200EB800301EB6F
S3156002525043018D18A5F50475284632BD284632BD30
S315600252605FF000021CA101A00BF08DBC70696E009C
S31560025270C82E1000101A2880001A2881945B02102A
S31560025280143602105C0A0210840A0210A80A02107E
S315600252901B5B33316D5B452F4442475D2000000046
S315600252A04750494F206F70656E206661696C656410
S315600252B0000000001B5B306D0A0000004750494F3A
S315600252C02070696E2076616C756520697320696CE1
S315600252D06C6567616C000000ED500010A151001012
S315600252E0C55100100352001009520010FD51001002
S315600252F00F52001030B4664800F1500565A191E87E
S315600253001C0085E81C000021A0F86C104FF4807226
S31560025310194662F3992141652146090C09048165A2
S3156002532030BC704738B504460D46002C05D1CE22F6
S315600253300FF26C115FA006F037FC002D05D1CF226B
S315600253400FF25C1160A006F02FFC002C05D1D4226E
S315600253500FF24C1160A006F027FC206F816840684E
S315600253600DF0E0FC002802D06FF0FE0032BD002096
S3156002537032BD00207047000038B504460D46002C49
S3156002538005D1EB220FF260114AA006F00DFC002C4B
S3156002539005D1EE220FF250114FA006F005FC206FE8
S315600253A04168086A4560086A806CC0F380700028AC
S315600253B0F9D0002032BD002070470000F8B50446DF
S315600253C00D4617461E46002C40F0078040F20D122D
S315600253D00FF2241137A006F0E7FB002D40F007809C
S315600253E04FF487720FF2101148A006F0DDFB002C15
S315600253F040F007804FF488720FF2FC0136A006F087
S31560025400D3FB324606212046FFF7B3FF3846F2BD8C
S3156002541070B5054606F020FA2879042814D11C4E88
S31560025420F46D002C40F0078040F223120FF2EC017B
S315600254303FA006F0B9FBA968C9B220460EF0E6F9AC
S315600254400121304610F0F8FEBDE8704006F014BA4D
S3156002545010B50024FFF74EFF204615E00C4800F118
S315600254607401016741A1C16400230322416F10F0F8
S315600254709BFE040000F0078040F217220FF2C4017F
S3156002548035A006F091FB01200028E7D0204610BD2A
S3156002549070F3011000C20100080001004000000024
S315600254A072615F756172745F636F6E6669677572EA
S315600254B06500000073657269616C20213D2052545B
S315600254C05F4E554C4C00000063666720213D2052BA
S315600254D0545F4E554C4C00007561727420213D201C
S315600254E052545F4E554C4C0072615F756172745FC7
S315600254F0707574630000000072615F756172745F3B
S315600255007472616E736D6974000000006275662064
S31560025510213D2052545F4E554C4C000075736572A6
S315600255205F75617274305F63616C6C6261636B003C
S3156002553072785F6669666F20213D2052545F4E55D0
S315600255404C4C000072745F68775F75736172745F4A
S31560025550696E697400000000726573756C74203D33
S315600255603D2052545F454F4B00000000255300100A
S315600255707353001079530010B7530010BD530010D7
S31560025580F8B50026DFF8D446DFF8D456297F01F055
S315600255900101207F00F00100014303D0304600F094
S315600255A0D2F80646DFF8BC7638460FF024F8DFF804
S315600255B0B80602883946DFF8B4060068DFF8B03606
S315600255C01B88184418F080EF297F01F00101207FC3
S315600255D000F00100014308D0304600F0B4F82146DD
S315600255E04969884200D208466061F1BDF8B5002774
S315600255F0DFF88046DFF86456DFF86466317F01F0D3
S315600256000101287F00F0010001430AD0384600F00C
S315600256109AF80746E761012020700020606200F078
S3156002562061F8DFF854060288DFF840060068DFF8A2
S315600256304C160988014404F1280018F046EF04F17B
S3156002564028000EF0DCFF307F00F00100297F01F0B8
S315600256500101084308D0384600F075F831464969B9
S31560025660884200D208467061F1BDF8B5DFF81006CF
S315600256700078002808D0DFF80C06B0F90020114641
S31560025680012901DB511E018000F0A1F901F0D4FB72
S31560025690DFF8F4C5DCE90023DFF8F00500780028BE
S315600256A00BD022F0000423F0FF35DFF8E4652F46C5
S315600256B0BD420AD801D3B44207D2DFF8D805002129
S315600256C010185941CCE9000106E0002804D04FF4D5
S315600256D07A61DFF8C4050160DFF8BC050168491C20
S315600256E00160F1BDDFF8B4050078002800D070478C
S315600256F010B5DFF88045A06900281FD000F023F8B6
S31560025700A061DFF85C255068A169002807D00846C9
S3156002571013465B68984200D91846506000E05160B3
S31560025720DFF838255068002807D0084611464968D0
S31560025730884200D90846506000E05160002000F0BF
S3156002574002F8A06110BD01460020DFF8202512682C
S31560025750D2F81029002A06D08A42104601D3401A8E
S3156002576001E0401E401A002907D0DFF80815096AD1
S31560025770814201D2401A704700207047F8B5002571
S31560025780DFF8E8442068B0F82072380702D500F0E6
S3156002579000F90125DFF808050078002868D0DFF8EF
S315600257A0C064780532D5DFF8FC040078002808D09A
S315600257B0DFF8E8040078002803D00021DFF8E80467
S315600257C00180308D002801D0401E3085308DDFF893
S315600257D08C1408850120DFF8D4140870DFF8D00431
S315600257E00078002802D0FFF701FF0FE0DFF88C0493
S315600257F000882168DFF8BC240B5C1370DFF878340C
S315600258001B88C018084410F8010C107070880128B3
S3156002581001D100F00EFADFF8A004007801280DD15C
S31560025820DFF844040088002808D0DFF83004408896
S31560025830012801D0222801D1FFF7A2FE2068B0F824
S315600258402072790514D5718D491C7185DFF80C2497
S315600258505185DFF828140A88DFF85814835C0B70C8
S31560025860DFF814341B88D218104410F8010C087043
S31560025870780702D500F00DF80125002D05D000202D
S3156002588000902068D0F88C090090BDE8F140FDF7E1
S31560025890EDBDF8B50021DFF824040180DFF8FC03D2
S315600258A00078002871D00C46DFF80C0400780128D5
S315600258B014D1DFF80C04008800280FD0DFF8A81393
S315600258C0098800290AD0DFF8FC231188814201D2B7
S315600258D0491C11801188884200D10124DFF8E8034F
S315600258E00188002942D0DFF890030088DFF8B833D8
S315600258F01D88A9421CD2002809D0DFF86423168DC0
S31560025900DFF8C8733F89B74201D3F61C1685DFF804
S3156002591058231288002A0BD0002809D1DFF83C23CD
S31560025920168DDFF8A8733F89B74201D3F61C168538
S31560025930002817D1DFF830030088002812D0DFF87C
S315600259402C030068B0F82002000504D4A9420DD3E6
S315600259506D1C1D800AE0002018800146DFF8FC02FB
S31560025960018503E0A94201D36D1C1D8000F061F937
S31560025970012C0AD1FFF704FEDFF8440300880128F0
S3156002598003D10020DFF83C130880BDE8F140FDF743
S315600259906DBD80B50021DFF838030180DFF818039A
S315600259A0007801280ED1B048008800280AD0AB489A
S315600259B04088032806D1DFF808030088002801D151
S315600259C0FFF7DEFD0021DFF8FC02018001BD30B485
S315600259D0DFF80023B6480078002804D00120107052
S315600259E000205070A6E09188491C9180084680B2DA
S315600259F032280CD0084680B2642808D0084680B2A5
S31560025A00962804D0084680B2C82840F09380B248EF
S31560025A10B24B1B7803F00F03022B06D0032B0DD07B
S31560025A20042B05D0082B06D00BE0402303700AE056
S31560025A304123037007E00123037004E060230370CF
S31560025A4001E0002303700378980603D4084680B207
S31560025A50C82830D100201C4614F01F0404DD58000B
S31560025A6000F03E00401EC0B2D478A34207D018466A
S31560025A70C00980F0010010700120D0801AE05C0637
S31560025A8015D51478641EA441E40F1470002811D051
S31560025A90D5886D1CD580ADB2A8420BDA1C46E409E6
S31560025AA01470401D854205DB0020D08002E003F0C1
S31560025AB001001070D3708A480378980603D40846AA
S31560025AC080B2C82831D100201C4604F01F04002C85
S31560025AD004DD580000F03E00401EC0B29478A34236
S31560025AE007D01846C00980F001005070012010816D
S31560025AF01AE05C0615D55478641EA441E40F54700E
S31560025B00002811D015896D1C1581ADB2A8420BDA39
S31560025B101C46E4095470401D854205DB0020108155
S31560025B2002E003F001005070937089B2C82901D176
S31560025B30002090805178107830BC0EF05DBA10B5B6
S31560025B404C4C684860600020A060E0602061606143
S31560025B5001F0F4F9FDF7ABFC0120607000202070C3
S31560025B60A061E0612062014605E0206A002801D05A
S31560025B7000202062491CB1F57A7FF6D3002010BD61
S31560025B8010B53C4C6078002852D045480078002811
S31560025B9003D04649097800292ED14049097800295F
S31560025BA02AD1002818D131480068B0F82012480579
S31560025BB009D501213D4801703D48007800280BD087
S31560025BC0FFF714FD08E02C480088002804D1080578
S31560025BD002D50120354908700EF018FA00F029F84E
S31560025BE035480078012805D11F480088002801D071
S31560025BF0FFF7C6FC0EF01EFA0EF0E8F9B0F57A7FF2
S31560025C0003D3FFF732FD0EF0E4F923480068B0F5DE
S31560025C107A6F01D3FDF703FC01F0D2F9FDF71EFDA1
S31560025C2001F05EF96069002802D0BDE810400047C5
S31560025C3010BD80B50A48007F00F001000749097F60
S31560025C4001F00101084305D00B480088002801D104
S31560025C50FFF748FDBDE801400EF0D6BC40250310B3
S31560025C60FC24031014610210AE2C031000260310EC
S31560025C70B82C0310A8600210B02C0310B62C0310C7
S31560025C808B2C0310942C031068560210DA2C031026
S31560025C9041FBE1FF40420F0074560210842C031050
S31560025CA0872C0310852C0310962C0310822C03106C
S31560025CB0802C0310902C0310812C03109E2C031051
S31560025CC0A62C0310A82C0310982C0310C4F4011000
S31560025CD0A22C0310762C0310DB2C03108E2C0310DF
S31560025CE08C2C0310F570001000211B4801601B48C4
S31560025CF001807047C288120B521E0BD0521E05D00D
S31560025D00521E042A06D9521F02D005E00FF081B94D
S31560025D100FF0D4BB042070470520704710B50E4CB7
S31560025D202068002807D0022106F073FC002811D1F2
S31560025D30002020600EE04FF4807019F022F8040013
S31560025D4001D1072010BD0E22054918F0BEEB204690
S31560025D500FF0B4FB002010BD586102102828031012
S31560025D602C28031038B50500C04C04D120690028E0
S31560025D7001D019F008F800202061002D04D1A06935
S31560025D80002801D018F0FFFF0020A061207031BD0D
S31560025D9070B5044626880421042EC0F0CD80A07911
S31560025DA010F00F0006D0022800F08380062800F06B
S31560025DB0AA80B1E0AD4DA878227A02F03F02014690
S31560025DC08A420FD0002808D0A869002803D018F0AC
S31560025DD0DAFF0020A8610020A870207A10F03F0F39
S31560025DE040F0A880A8780028208919D1400800F4DC
S31560025DF0FC606881A869002803D018F0C4FF0020FF
S31560025E00A861688918F0BDFFA861002801D1072042
S31560025E1070BD0020A881208900F47040E8810BE003
S31560025E200246520802F4FC62A9898A4232D100F41F
S31560025E307040E98988422DD1361FB6B2A8896A892F
S31560025E4031188A4226DB324604F10A01AB691844EC
S31560025E5018F03AEBA8893618AE81A878401CA8706B
S31560025E60E188C80510D5880501D5301FA881A989A2
S31560025E70A86901F0ABF90020A870A869002803D0D0
S31560025E8018F081FF0020A861002C53D0204618F03C
S31560025E907AFF4FE0A869002803D018F074FF00204B
S31560025EA0A861002C02D0204618F06DFF0020A87071
S31560025EB070BD6089C20702D50A210A2E3CDB8207C1
S31560025EC002D5091D8E4237DB420702D5091D8E4275
S31560025ED032DB020702D5091D8E422DDBC20602D5D0
S31560025EE0091D8E4228DB800602D5491C8E4223DBC1
S31560025EF004F10A0001F09BF904212180208140F21D
S31560025F000310E0800EE0214604F10A0001F064F914
S31560025F100721E180208105E00320E0800846208099
S31560025F20022020810821204606F073FB002801D05A
S31560025F304E480461002070BD062070BD70B54B4CA2
S31560025F40A588E0882D1AADB249480288104605F147
S31560025F500A01884204D2A2F10A004FF6E0750540B2
S31560025F60444E05F10A0018F00CFF3060002805D196
S31560025F704149087840F00800087070BD291D01800B
S31560025F8000213068418030680171022130684171B8
S31560025F903068831DA188E088091A8D4203D14FF4C7
S31560025FA08070188001E000201880617859806078DE
S31560025FB0002805D0E088400941EA801159800AE04C
S31560025FC00846A1881F31491140EA8110588020890C
S31560025FD000F58050208159882089014359802A46DC
S31560025FE06169E0880144181D18F06EEA082130687C
S31560025FF006F00FFB002801D031682161E388A28890
S315600260001946521A954212D16169002901D00021BE
S3156002601061610021217018490A78002803D102F0D3
S31560026020F7020A7070BD42F008020A7070BDED1880
S31560026030E5806078401C60700F49087840F008007F
S31560026040087070BD10B5094C2069002807D0082178
S3156002605006F0DFFA002808D10020206110BD207802
S31560026060002802D0BDE8104068E710BD5C610210EE
S31560026070C02C031014900210AA8F021070B5044649
S31560026080DFF818582868B0F804620DF0BFFF344094
S315600260902868A0F80442BDE870400DF0CBBF70B529
S315600260A00446DFF8F8572868B0F804620DF0AEFFD0
S315600260B034432868A0F80442BDE870400DF0BABFC8
S315600260C0DFF8D8070068B0F8021501F4006001280D
S315600260D003DA01F48051012904DB0021DFF8C007ED
S315600260E0817470470121DFF8B8078174704710B573
S315600260F0DFF8B0470822DFF8A417096801EBC00091
S3156002610000F50061204618F0E0E9204610BD81B036
S3156002611001218DF80010C00000F60700DFF87C1739
S315600261209DF800300A6813540A68125C8DF80020E4
S315600261309DF80020D207F7D501B0704781B00021E3
S315600261408DF80010C00000F60700DFF850179DF8C2
S3156002615000300A6813540A68125C8DF800209DF8B4
S315600261600020D207F7D401B07047F8B5044600257F
S31560026170DFF82C67708E42F6FF77B84200DB01DAF1
S315600261801420F2BD2846FFF7B2FF41880288837960
S31560026190DB0701D416251DE00079034603F00C03E4
S315600261A0042B01D0162515E0800701D4162511E0CF
S315600261B0242901DA16250DE040F20110814201DB45
S315600261C0162507E0B2F5805F01DA162502E0BA42CB
S315600261D000DD1625280025D10120FFF788FF4188BA
S315600261E002888379DB0701D416251BE0007910F05B
S315600261F00C0F01D0162515E0800701D4162511E093
S31560026200242901DA16250DE040F20110814201DBF4
S31560026210162507E0B2F5805F01DA162502E0BA427A
S3156002622000DD162528003DD1204604283ADB0120F0
S3156002623030720320FFF75BFF02465088138891791C
S31560026240CF0701D5002822D0C90722D5F18D0F4686
S31560026250B84223D1002921D045281FDA107910F0DF
S315600262600C0F14D1B07B022804D1A3F58051B1F58D
S31560026270005F04D3022808D0308F834205D110799B
S3156002628080070CD50020307209E0022507E003255D
S3156002629005E0002802D1F08D002800D001252800F3
S315600262A000D01E25280041D1204602283EDD02206C
S315600262B0FFF71DFF0246508813889179CF0701D5F3
S315600262C0002828D0C90728D5318E0F46B84229D171
S315600262D0002927D0452825DA107900F00C00042819
S315600262E019D1B07B022804D1A3F58051B1F5005FC4
S315600262F004D302280DD0F08E83420AD11079800928
S3156002630000F00100F070107980070CD50020307221
S3156002631009E0022507E0032505E0002802D1308E58
S31560026320002800D00125280000D01D2528000CD1A8
S3156002633006E02046C0B2FFF7DAFE80797074641C0C
S315600263402046717BC0B28842F3D32846F2BD2DE95E
S31560026350F84F00244FF0030AD146DFF8C07ADFF81F
S31560026360C05AA889B7F80C8008EA0008DFF83065D9
S3156002637020467087B0700220FFF7B9FE0188F18669
S315600263800079800701D54FF001095046FFF7AFFE4D
S31560026390028832870079800701D54FF0010AF18DB4
S315600263A00B460AFB032ADFF87C0AB0F800E0D64502
S315600263B005DADFF8740A0088704482420BDBDFF884
S315600263C06C0AB0F800C0D44507DADFF8640A0088C0
S315600263D06044824201DA1E20B6E1B6F836A0308EFB
S315600263E0834609FB0BA9CE4506DADFF83CBABBF851
S315600263F000B0DE44F2450DDBCC4506DADFF830EA62
S31560026400BEF800E0F444E24504DB4A4504DA9B1830
S315600264109A4501DA1D2097E1DFF88024D2F80090D0
S3156002642099F881E909F51A631A68D3F804C0B5F8D0
S3156002643002B0B7F802A01EF0090F2FD01EF0060FA9
S3156002644053D00EF00603042B4FD0B8F1000F0BD0D9
S315600264505FEA487302D45FEA8E7346D45FEA0873D2
S3156002646002D45FEA4E7340D4002A08D02B699A425E
S3156002647003D3DFF8C03A9A4201D3362064E10EF0C4
S315600264800603062B05D1BCF1000F02D0944500D35A
S315600264900124002C02D05FEAC86326D5DFF8983A59
S315600264A01B78002B23D01EF0090F0CD1BBF1020F13
S315600264B01BD0BBF1030F18D0BAF1020F15D0BAF197
S315600264C0030F45D111E05FEA4E7305D4BBF1030FAA
S315600264D00BD0BAF1030F08D05FEA8E7338D4BBF1E2
S315600264E0020F02D0BAF1020F32D130202CE11EF037
S315600264F0090F14D1002809D04FF0010B002902D0F0
S315600265004FF0220A24E04FF0000A21E000294FF002
S31560026510000B02D04FF0010A1AE0DA4618E00028B2
S3156002652007D0002C02D04FF0030B04E04FF0020BB1
S3156002653001E04FF0000B002908D05FEA4E7302D5E6
S315600265404FF0030A04E04FF0020A01E04FF0000A3E
S31560026550BBF1030F02D0BBF1020F03D16A626A601C
S315600265607A627A60337A002B07D1BBF1000F02D0D0
S31560026570BAF1000F01D12920E6E05AEA0B0301D0F5
S315600265800123F371F379002B0AD0002803D04FF46C
S315600265908061718704E0002902D04FF4006171873F
S315600265A0BBF1020F08D0BBF1030F05D0BAF1020F9F
S315600265B002D0BAF1030F05D101213171002801D150
S315600265C000217187A5F802B0A7F802A00021F18424
S315600265D031853183F182012C1CD102EB0C01B1FBB6
S315600265E0F2F402FB1411944509D3348300290AD1CB
S315600265F0B6F8188008F10108A6F8188003E04FF093
S315600266000108A6F81880F48400290DD0F18C491C83
S31560026610F18409E0BBF1020F01D101213183BAF1A4
S31560026620030F01D00121F1840021DFF89049218016
S3156002663009F580610C8C002812D0002C10D00988D4
S3156002664000290AD0891C46F2A71804FB018446F287
S31560026650A811B4FBF1F1B18604E00021B18601E034
S315600266600021B186B18E002902D1F478002C04D1C2
S31560026670002904D0F178002901D11F2064E0002BA3
S3156002668005D0002803D0718F41F4806171870021A3
S315600266903184F1837184B1847171B171718399F8B6
S315600266A0511111F0080303DD738F43F004037387FE
S315600266B011F0800103DD718F41F0080171870021BD
S315600266C0B96287F84010A96285F840105FEA8E7158
S315600266D02CD5002A0ED0DFF8F019B2FBF1F10529AC
S315600266E002D20121318405E04B009BB20A2193FB61
S315600266F0F1F131845FEA4E7118D5944502D2318C3C
S31560026700B18413E06244DFF8C019B2FBF1F2052AE4
S3156002671002D20121B18404E052000A21B2FBF1F1F6
S31560026720B184B28C318C02EB5102B284002802D061
S315600267300220FFF703FDF08D002802D00320FFF749
S31560026740FDFCFEF71DFF0020BDE8F28F5449487A32
S3156002675000F00F02012A07D0022A05D0042A03D0CC
S3156002676000F00F00082801D1488D7047087900288B
S3156002677003D0C820488300208883DFF850090021AF
S3156002678001800176DFF8480901800176FF207047B3
S31560026790DFF84009002181700170704710B5404CE6
S315600267A0208E002802D00220FFF7B1FCE08D00287F
S315600267B002D00320FFF7ABFC4FF2F330FFF75EFC2B
S315600267C00020A070E07120716071A0712083E08268
S315600267D02084E0836084A084E0842085DFF840061C
S315600267E00021816280F84010DFF83006816280F80D
S315600267F0401008466083E0706070DFF83C170870EE
S3156002680010BD0021DFF830070170704770B40C4686
S31560026810234B9D7B0246954200D098739D7BDA7B23
S31560026820002A0DD0EA060BD40A0009D12A4602F0E4
S315600268300F02032A04D09C8F45F020059D7302E067
S3156002684005F0DF059D73DFF890280E464FF6FF755B
S31560026850AE4202D01568A5F834419C7B1268A2F854
S3156002686030410A0001D0C00602D40020187313E03A
S3156002687008462D2806D01A2804D0322802D0587A23
S31560026880002802D04120187306E01B2902D142205B
S31560026890187301E04020187370BC7047002603101D
S315600268A0802C0310786102102DE9F843064688466B
S315600268B00024A146DFF87C554FF0FF30A882012004
S315600268C0A872A87BF10605D54FF0010900F0EF002A
S315600268D0A8730AE0C10605D5314601F00F01012908
S315600268E040F0BF8100F00F00A87306F00F06A87B88
S315600268F006EB0017FFB23846122810D022280ED0B7
S31560026900242811D042280AD0442815D0482813D00A
S31560026910822804D084280FD088280DD010E0022067
S31560026920FFF723FC04460BE005F1300105F12E006A
S315600269300DF0EAFD040003D1687BFFF716FC0446FE
S31560026940200040F00B810020A8853846112800F00F
S31560026950E680122843D013283BD0142800F0FA8030
S31560026960182800F0F780212800F0D180222800F054
S31560026970D880232800F0EE80242855D0282800F0FD
S31560026980E980312827D0322800F0E480342800F0EC
S31560026990E180382800F0DE80412800F0AE8042288F
S315600269A000F09A80432800F0D580442800F0B98030
S315600269B0482858D0812800F09680822800F082808C
S315600269C0832800F0C780842875D0882800F0A980C3
S315600269D0C2E01324E3E01324FFF713FFDFE0FFF7BF
S315600269E06FFBA87C002800D15124200040F0D7809C
S315600269F005F0E3FC040009D10020A8720DF078FDD1
S31560026A00040003D10121DFF8D4060170200000F0F2
S31560026A10C680FF2800F0C380A87A002801D10DF055
S31560026A2069FD05F00AFDBAE0FFF791FC04000CD19E
S31560026A300020A87205F13A000DF05EFD040004D153
S31560026A40688FFFF72CFB01206870200000F0A7809A
S31560026A50FF2800F0A480A87A002801D10DF04EFD2F
S31560026A60FFF79CFE9BE0B9F1000F0CD0288E002840
S31560026A7003D00220FFF762FB05E0E88D002802D012
S31560026A800320FFF75BFBFFF761FE040007D10020DE
S31560026A90A8720DF035FD040001D101202870200096
S31560026AA07DD0FF287BD0A87A002801D10DF02AFD7F
S31560026AB0FFF76EFE73E00DF025FDFFF769FE00201D
S31560026AC0A8726CE00DF01EFD0446FFF761FE002021
S31560026AD0A872200063D142270DF010FDFFF75EFE1B
S31560026AE00020A8725BE00DF00DFD0446FFF750FE34
S31560026AF00020A872200052D141270DF0FFFC044607
S31560026B00FFF74CFE0020A872200048D1212705F02D
S31560026B1094FC0DF0EFFC0446FFF773FE3FE0FFF7CF
S31560026B2070FEB9F1000F02D038460DF0E0FCA87B8A
S31560026B3010F00C0F0CD0288E002803D00220FFF72D
S31560026B40FDFA05E0E88D002802D00320FFF7F6FA89
S31560026B50FE2424E0112422E0122420E0A87B0228ED
S31560026B600BD0042805D0082819D10DF0CBFCFFF70D
S31560026B700FFE0DF0C3FCFFF711FE204616280CD15E
S31560026B8005F05BFC0DF0B6FC0020FFF7C0FA0120B1
S31560026B90FFF7BDFA0120A87301E00220A873204620
S31560026BA0FF281ED10120E872AF85122F06D0132F5F
S31560026BB004D0242F06D0482F04D007E04FF4FA60A1
S31560026BC0A88205E042F22830A88201E0C820A882A5
S31560026BD0B5F914100A460A2092FBF0F0091AA98246
S31560026BE03FE0A87B0146324601F00F039A4233D05A
S31560026BF058EA040016D01143080713D528780028EE
S31560026C0003D00DF07FFCFFF7C3FD288E002803D06A
S31560026C100220FFF77CFA05E0E88D002802D0032007
S31560026C20FFF775FA200009D0A87B082801D1042055
S31560026C30A873A87B40F01000A87306E040460028BF
S31560026C4002D0444646F01006AE730020E872214632
S31560026C50A87BBDE8F443D9E50021E972BDE8F443B7
S31560026C60D4E5BDE8F18370B5724EF07A002800F083
S31560026C70C38000242546B28D1146B6F91400002859
S31560026C8056D114462409122906D0132904D0242980
S31560026C9012D0482920D09FE0B07A002801D10DF0A9
S31560026CA029FC05F0CAFB707A00F00F00012801D1B9
S31560026CB0758D91E001258FE0B07A002801D10DF043
S31560026CC01DFCFFF76BFD707A00F00F00022801D100
S31560026CD0758D81E001257FE0307900280FD07079CB
S31560026CE0002801D12D2519E0B078002802D1308E16
S31560026CF0002807D1B07900280DD11A250EE0308E12
S31560026D00002801D01B2509E0707A00F00F000428E4
S31560026D1001D1758D02E008240120307028005BD015
S31560026D20B07A002801D10DF0EDFBFFF731FD53E09B
S31560026D30122906D0132904D024291BD048292FD022
S31560026D404AE0B07A002847D02046B0720DF0D0FBF8
S31560026D50002808D10120DFF88413087096F82C40C9
S31560026D6004F00F0438E0FF2836D00DF0C3FB05F0BF
S31560026D7064FB31E0B07A00282ED02046B07206F16C
S31560026D803A000DF0B9FB002803D10120707004248B
S31560026D9022E0FF2820D00DF0B1FBFFF7FFFC1BE0DD
S31560026DA0B07A002818D03079002826D0B6F91A00B1
S31560026DB0010011DDB6F91C1081420DDB204670839D
S31560026DC0B083B0720DF09CFB002822D0FF2803D05E
S31560026DD00DF098FBFFF7DCFC2046C0B200280BD012
S31560026DE00020F072280001D044F0100429462046A3
S31560026DF0C0B2BDE8704009E570BD308E002802D091
S31560026E00B0780028E8D02046B0720DF079FB0028F1
S31560026E10DCD1012030700824DEE700004025031033
S31560026E20FC240310C62C0310C02C0310C42C0310C0
S31560026E30C22C0310802C031080B50DF0E7F8DFF842
S31560026E4094120879002847D04878002844D0CA8B23
S31560026E50088C002804D0824202D30020487105E0E3
S31560026E60824201D2521CCA830120487148790028A5
S31560026E700AD0888C002807D04A8C824202D2521CE1
S31560026E804A8401E000204871487900281FD0DFF863
S31560026E9050020089002804D0DFF84822128D82420F
S31560026EA009D201208871B1F91A00012814DB888B96
S31560026EB0401C888310E0887900280DD000208871F4
S31560026EC0B1F91A00012807DB0020888304E088797B
S31560026ED0002801D000208871BDE801400DF0AAB8F3
S31560026EE0DFF8F011888E002811D0DFF8EC01006817
S31560026EF090F84004C0070AD4088E002807D00878A4
S31560026F00002802D01B210420CEE400208870087974
S31560026F1000280ED0087800280BD04879002802D1C4
S31560026F202C210420C0E48879002802D11A21042089
S31560026F30BAE47047010050C3DD2C031038B56648C9
S31560026F400168644C48796073C888800200F6FF70F5
S31560026F5060860020A087FFF7B3F8002504E0284684
S31560026F60C0B2FFF7D4F86D1C2946607BC9B2814274
S31560026F70F5D305F0EEF90020A072E072A0702070E1
S31560026F806070E073E070A086E08320846084A084F1
S31560026F9020716072608560872086E0850120A0731B
S31560026FA00021FFF733FC0020A0852073E071FEF715
S31560026FB09BFE0020BDE83240FFF760B8C82C031084
S31560026FC02DE9F0470124002605F017FCDFF8088159
S31560026FD0D8F80010414D2878002803D001F60D003C
S31560026FE044780678B1F820923A4F5FEAC97018D5AC
S31560026FF0F87A002815D191F820A15FEA8A6008D54F
S31560027000F87B002802D10DF00BFBB8870120F873DC
S3156002701001E00020F87329F0110900215046FFF7BC
S3156002702043FC5FEAC9600FD5F87A00280CD1B87BB9
S31560027030C10609D4014621F01001012904D00021BC
S3156002704000F00F00FFF730FCF87A002801D0FFF756
S315600270500AFE2878002835D0E00705D40021B87BDF
S3156002706000F00F00FFF720FC30070DD41E480078B1
S31560027070002809D000203874387CD8F800101B4AE2
S315600270801288885405F072FAA00703D5184800786A
S31560027090002805D0A0070BD415480078002807D031
S315600270A005F097FA04F00204D8F8000080F80F4859
S315600270B0D8F80000B0F82002C00503D5BDE8F04755
S315600270C005F0E2BABDE8F087A08601002425031028
S315600270D068250310802C031000260310A68F021069
S315600270E0C4F40110FC240310A58F0210C62C0310F1
S315600270F0A78F021030B585B00C46B1F5807F01DDF1
S315600271004FF48074294D22460146284617F080FDC9
S3156002711005F5807004802021406803F0F3FE244860
S315600271204168886A002807D003208DF80400C020D1
S3156002713002906846896A884705B030BD2DE9FC41F0
S315600271400C4615464FF47A66184F07F5807801A803
S3156002715000904FF0FF3306222021D8F8040004F095
S3156002716061F800280BD1B8F80020002A07D039460A
S31560027170204617F0AAE9B8F80000286000263046D3
S31560027180BDE8F68180B50846114689B200F0B4F8CA
S31560027190002002BD80B541605FF0000108A003F0E7
S315600271A071FE0249C1F80401002002BD806102102D
S315600271B0807E021000207047022010700020704707
S315600271C0656F655F76657468657200005A4A126813
S315600271D0002A00D01047704770B504460D4600205D
S315600271E0208060800A202880544E062206F1100113
S315600271F0201D17F06AE9208840F001002080288867
S31560027200801D2880B178F07840EA0120608130786C
S31560027210717841EA0021A181208840F00200208035
S315600272202888001D288020882080002070BD7CB5BB
S3156002723004462688414DF00706D50622211D05F132
S31560027240100017F042E905E00022062105F1100060
S3156002725017F012EAB00708D5607B2870207B687049
S31560027260E07AA870A07AE87004E000220421284639
S3156002727017F002EA700708D5607C2871207C687175
S31560027280E07BA871A07BE87104E000220421281D3E
S3156002729017F0F2E9300708D5607D2872207D6872A2
S315600272A0E07CA872A07CE87205E00022042105F168
S315600272B0080017F0E2E9F00608D5607E2873207EA2
S315600272C06873E07DA873A07DE87305E0002204215F
S315600272D005F10C0017F0D0E919480468002C09D0B2
S315600272E005F10C00009005F108032A1D294605F1F7
S315600272F01000A047002076BD80B5124B1A78002A8E
S3156002730018D1114A1278012A14D0104A1268002A3A
S3156002731001D090420ED101221A700D4A11800D4998
S31560027320086000210C4801800C480170FEF706FED9
S31560027330002002BD012002BDAC600210886202100C
S31560027340B06002105C6102108E2C03106C61021038
S315600273506061021070610210626102105D6102106A
S31560027360012802DA4042112801DB292070470249CE
S3156002737051F82000704700BFD80A021038B50400E1
S3156002738008D10FF6940004F0ABFC9721DFF8700881
S3156002739011F048FA606800281ED10FF6880004F0E2
S315600273A09FFC9821DFF8580811F03CFA14E0254654
S315600273B024686868002808D10FF6780004F090FC0B
S315600273C09C21DFF83C0811F02DFA686808F0E3FFAB
S315600273D02946092005F048FD002CE8D131BD38B5B3
S315600273E000EB4001CC00DFF81C582859002803D076
S315600273F0FFF7C4FF0020285100202919087531BD06
S3156002740010B500240BE0012908D1111D906800F027
S31560027410F4FB03E00429F6D102201075641C0A2CE1
S315600274201DDADFF8E00704EB440110EBC102107DC0
S315600274300028F3D0508A401C508280B2B0F5967F05
S3156002744004DA117D012905D1042803DD2046FFF700
S31560027450C6FFE3E70329DDD104201075DEE710BD20
S315600274602DE9F24F84B00A231A46154611464FF0AB
S31560027470000A56463746B04600900393029201913F
S31560027480DFF87CB715E010DDB9F81200024639461E
S315600274908A420AD3CDF80880074606E0024631469C
S315600274A08A4202D3CDF80C80064608F101085FFADB
S315600274B088F8B8F10A0F37DADFF8480708EB4801AF
S315600274C000EBC10999F814400A2D04D1002C02D1AF
S315600274D045466DB2E9E7002CE7D0012C09D008DCFD
S315600274E00BF1880004F0FCFB4FF49371584611F0DF
S315600274F099F90098002804D00068D9F804108842E7
S315600275000FD0012CBFD1D9F800000028B9F81200BB
S31560027510C4D0014652469142C7D3CDF80480824612
S31560027520C3E7404640B25AE0009C039E0298019926
S315600275309DF810309A0762D40A2D01D1DA075ED51A
S315600275404FF01808DFF8BC760A2D02DAEDB22E4645
S3156002755021E0024652B20A2A44DAC0B2064618FB53
S3156002756006F03858002808D00FF2D86004F0B8FB4D
S3156002757040F26F11584611F055F90A2E08DB0FF2E8
S31560027580DC6004F0ADFB40F28111584611F04AF915
S315600275903046FFF724FF0A2E08DB0FF2C06004F0C4
S315600275A09FFB40F28511584611F03CF918FB06F82C
S315600275B007EB0805287D002809D05F4607F1C80059
S315600275C004F08EFB40F28711384611F02BF9002C3D
S315600275D001D02068686000206882304640B205B0FB
S315600275E0BDE8F08F304640B20A2801DAF6B2C4E747
S315600275F0084640B20A2802DAC9B20E46BDE74FF023
S31560027600FF30ECE72DE9FC4105460C4616461F465F
S3156002761095F8360006280AD0DFF8E48508F1F4000A
S3156002762004F05EFB40F2AB11404611F0FBF8002C11
S315600276300CD02068002809D0294602F023FC0028D5
S3156002764004D1207800F0F000E02802D16FF00F003C
S315600276502FE02A4639462046FFF702FF002828D443
S31560027660DFF8A01500EB400211EBC2040220207580
S31560027670A5600622314604F10C0017F0C9FA002013
S31560027680608212E0086820604F68092005F0ECFB12
S315600276904FF400600090334605F1370239462846BA
S315600276A000F0F4FB384608F076FE21680029E9D13D
S315600276B00020BDE8F68138B5044600250FE0DFF804
S315600276C0440505EB450100EBC101087D002805D0A4
S315600276D08868A04202D12846FFF781FE6D1C0A2DFA
S315600276E0EDDB31BDF8B586B006460C000AD10FF265
S315600276F0905004F0F5FA4FF42271DFF8040511F0A8
S3156002770091F84AE075682888B0F5807F42D1287979
S3156002771006283FD1687904283CD16888082839D17F
S31560027720042205F10E0104A817F072FA042205F18B
S31560027730180105A817F06CFA6068002801D10027C5
S3156002774005E00599814201D1012700E00027380052
S3156002775001D0012300E0022305F1080204A92046B4
S31560027760FFF750FFE888B0F5807F13D1002F11D064
S315600277700220039004A8029005F108000190201DE2
S31560027780009004F1370305F1080204F1370120463F
S3156002779000F0B4F9304608F0FEFD07B0F0BDF8B56A
S315600277A004460D46DFF85C0402EB420110EBC106AB
S315600277B0307D02280ADADFF8487407F59E7004F015
S315600277C08FFA40F2ED21384611F02CF8307D02280E
S315600277D018D1718A40F21D10814206DB311D2046A6
S315600277E000F00BFA00280DD10AE0B1F5877F09DBBC
S315600277F006F10C02311D204600F0EFF9002801D196
S31560027800032030754FF40060009006F10C0304F11A
S3156002781037022946204600F039FBF2BDFEB5044622
S315600278200D4617463E46002C09D10FF2544004F02D
S3156002783057FA40F21B31DFF8C80310F0F3FF002D50
S3156002784009D10FF2D43004F04BFA4FF44771DFF8E6
S31560027850B00310F0E7FF002F09D10FF2144004F0D5
S315600278603FFA40F21D31DFF8980310F0DBFF214644
S31560027870386802F007FB00280BD0DFF88C334FF430
S315600278800060009004F137022946204600F0FEFAB5
S31560027890FEBD386800F0F001E02915D101208DF8AF
S315600278A0040000208DF805005E208DF806007878C9
S315600278B000F07F008DF80700B8788DF80800F87838
S315600278C08DF8090001ABDAE7A36803EA0001626892
S315600278D01340994209D080B24FF6A961884204D01A
S315600278E0E06800281AD004F10C06C84B1A781827EB
S315600278F0104617FB00F0DFF80CC30CF11401095CAB
S3156002790002290EDB31680CF1040E5EF8000081423A
S3156002791007D129462046FFF742FFFEBD6FF00300FE
S31560027920FEBD00222046314601E0521C52B20A2AAE
S3156002793013DA17FB02F40CF11406365D022EF4DB41
S315600279400E680CF1040E5EF80440A642EDD11A7080
S31560027950D2B22946FFF723FFFEBD2A4600F002F89F
S31560027960FEBD00002DE9F84F83460D4614464FF0E2
S31560027970FF38C14600265946286802F083FA002875
S3156002798008D1286800F0F001E02903D0002D01D06B
S31560027990002802D16FF00F00AEE05A460121284658
S315600279A0FFF75EFD8246BAF1000F00F1A5809548A9
S315600279B00AEB4A0110EBC107387D002804D1012683
S315600279C030463875C7F808B0387D012808D007DC1C
S315600279D08F4804F085F940F2C931894810F022FFD8
S315600279E0002E01D1002C11D12946584600F005F926
S315600279F08146002C00F07F8008D100BF86A004F08B
S31560027A006FF940F2DB317E4810F00CFF397D084693
S31560027A1001280FDD7D4880F800A04FF400600090D9
S31560027A2007F10C030BF137022146584600F02EFA95
S31560027A30814660E05FD10026254600E02D68002D74
S31560027A4012D06989288981420AD12868002807D01C
S31560027A508FA004F045F94FF47B71694810F0E2FE9D
S31560027A60287B0128EAD00126002E10D0002229891F
S31560027A70022008F083FA05000DD0214608F04EFD7B
S31560027A80002808D0284608F086FC002503E0254633
S31560027A90284608F0E4FC002D2CD040F207425849F3
S31560027AA0092005F0A5F901001FD0002318460860D9
S31560027AB04D603A68002A08D0012301E002465B1C49
S31560027AC010680028FAD1116000E03960032B09D3EF
S31560027AD03C6820683860606808F05DFC21460920D1
S31560027AE005F0C2F94FF0000905E0284608F053FC9C
S31560027AF0C14600E0C1464846BDE8F28F2DE9F84F1F
S31560027B0004468A4616469B46002C07D15CA004F0C2
S31560027B10E7F84FF48B613A4810F084FE00221C218C
S31560027B20022008F02BFA050002D14FF0FF3052E036
S31560027B3068891C2809DA324F07F5CA7004F0D0F852
S31560027B4040F26441384610F06DFE0D986F68FCF79E
S31560027B5027F8F88094F8360006280AD0DFF8A08065
S31560027B6008F5E47004F0BCF840F26B41404610F050
S31560027B7059FEDDF83080DDF82C905946062207F171
S31560027B80080017F045F80622494607F1120017F079
S31560027B903FF804220A9907F10E0017F039F8042219
S31560027BA0414607F1180017F033F84FF480703880B9
S31560027BB008207880062038710420787140F6060025
S31560027BC00090334652462946204600F05FF9284621
S31560027BD008F0E1FB0020BDE8F28FF8B501230393BC
S31560027BE002910C490191011D009100F1370300F1E8
S31560027BF03701FFF783FF05B000BD034AEDE70000DA
S31560027C001C0B0210A0620210047F0010DC2C031011
S31560027C10880C02103C0E02107120213D204E554CFC
S31560027C204C000000712D3E7020213D204E554C4C7B
S31560027C3000000000722D3E7020213D204E554C4CB6
S31560027C40000000006172705F7461626C655B695D01
S31560027C502E71203D3D204E554C4C000069203C2043
S31560027C604152505F5441424C455F53495A45000068
S31560027C7069706164647220213D204E554C4C00004F
S31560027C806E6574696620213D204E554C4C0000009D
S31560027C906E6F207061636B6574207175657565734F
S31560027CA020616C6C6F77656421000000002900D04A
S31560027CB012E0704780B52FA005F064FE002805D15A
S31560027CC03BA004F00DF86FF0FE0002BD2A4905F0F4
S31560027CD0D1FF002002BD000038B584B0274C207861
S31560027CE0002823D1264D284603F0FAFF05F1340019
S31560027CF003F0F6FF284603F0F3FF41F2040025186D
S31560027D000A200390102002904FF480500190201DAB
S31560027D10009000230FF219022DA1284614F085FD6A
S31560027D20284605B0BDE8304014F0BFBD05B030BD91
S31560027D3038B5144C2068416800680BF04CFF002887
S31560027D4000D000BEFDF7FBFE0F4910480CF0DCFBCD
S31560027D500F4D0120287004E0FDF712FF012014F098
S31560027D60F8FE28780128F7D020680068BDE832401E
S31560027D700CF050B865300000AD7C001090630210C4
S31560027D80280D02106CF30110B02C0310AE2C0310F8
S31560027D90D92C031010B5044603F05EFD2079002845
S31560027DA001D10CF01AF9BDE8104003F065BD000080
S31560027DB04661696C656420746F20676574206E65C0
S31560027DC074776F726B206465766963652E0A00004C
S31560027DD065746865726361745F7468726561640014
S31560027DE070B504460D4660890E284ADD63689E8931
S31560027DF01978C80718D501290AD15878002813D1ED
S31560027E0098785E2810D1607B40F0100060730BE0BA
S31560027E105FF006023BA1184616F04EEC002803D12D
S31560027E20607B40F008006073082E03D0B6F5C16F20
S31560027E3013D026E095F83D00000722D560890D280B
S31560027E401FDD6FF00D01204608F0A1FA002818D157
S31560027E502946204601F009FE11E095F83D0000072B
S31560027E600FD560890D280CDD6FF00D01204608F0F4
S31560027E708EFA002805D129462046FFF733FC0020FA
S31560027E8070BD204608F087FA002070BD2DE9F843E0
S31560027E9007460C4615461E460898FBF781FE814644
S31560027EA00E21204608F073FA002802D06FF0010016
S31560027EB023E0D4F80480A8F80C90062231464046A6
S31560027EC016F0A6FE0622294608F1060016F0A0FE66
S31560027ED007F11805A87F062809D0094E304603F037
S31560027EE0FFFE4FF4967106F1340010F09BFC2146BA
S31560027EF038462A68BDE8F8431047BDE8F2830000B9
S31560027F00800D0210FFFFFFFFFFFF00007047FAF7C8
S31560027F1005BC0846FAF706BC80B5806C06F032FEF0
S31560027F20002002BD80B5806C06F066FE002002BDB0
S31560027F3070B5064614461D46002907D0002C05D0AA
S31560027F40002D03D0B06C06F09AFD10E0002902D035
S31560027F50B06C06F0B7FD002C03D02146B06C06F07B
S31560027F60F4FD002D03D02946B06C06F0DCFD00203E
S31560027F7070BD80B508461146FCF745F8002002BD83
S31560027F802DE9F84396B004460E46914600274FF413
S31560027F907A70B3FBF0F03946CDE90A014FF47A788C
S31560027FA008FB103308FB03F30C9308460190049018
S31560027FB0002C06D1E1220FF2DC710FF2EC7003F0B5
S31560027FC0F3FD002E06D1E2220FF2C8710FF2E070C5
S31560027FD003F0EAFD1E9D002D06D1E3220FF2B47175
S31560027FE00FF2D47003F0E0FD202239460EA816F097
S31560027FF0E2FD01AB0EAA3946304605F04BFB00287E
S3156002800023D10422019800F1140104A816F000FE9F
S3156002801004220498011D03A816F0FAFD019805F0E2
S315600280202FFB03A801F0F9FF02A901F051FF002816
S315600280300BD0042202A9284616F0EAFD012203218A
S3156002804002200FF00BFB060002D56FF0FE0044E043
S315600280501F9810218DF8181002218DF819103946D3
S31560028060ADF81A1061690791002804D0102206A99A
S3156002807030460EF0DBFF102000900AAB41F206029A
S3156002808040F6FF7130460FF02DFE4A4602A9304691
S3156002809009F00CF800281AD1FAF7F2FA814605A916
S315600280A0304609F040F804000ED4FAF7E9FAA0EB7C
S315600280B0090908FB09F84FF47A70B8FBF0F0AC8056
S315600280C00599E980A86004E06FF0910701E06FF01E
S315600280D0910730460EF0F6FF384617B0BDE8F083DA
S315600280E080B500F085FABDE8014000F003BB80B5BB
S315600280F0806C06F03CFD002002BD10B5040007D17D
S3156002810040F261120FF2BC610FF2CC6003F04CFDDB
S3156002811004F13E0005F036FC002801D10C2010BDAA
S3156002812004F134010A8882864A7A920703D5428E1E
S3156002813042F0020242864A7A120703D5428E42F022
S31560028140080242864A7A920603D5428E42F020029D
S315600281504286497A490603D5418E41F040014186FD
S31560028160002105F0E5FE002010BD7CB50446002224
S315600281700621684616F080EA002C07D14FF4C772D2
S315600281800FF260610FF2506003F00EFD4C21012088
S3156002819016F0F2FC050001D10C2076BDF7F7E0FF80
S315600281A0062204F13E01684616F08DFD22466946B6
S315600281B0284605F03BFB06462046FFF79EFF05F183
S315600281C028000FF61001016194F83610017094F8D8
S315600281D0362004F1370105F1290016F019FD6068B1
S315600281E06861E068E861A068A861304676BD3EB520
S315600281F004460D46002C07D14FF4DF720FF2F051A0
S315600282000FF2046003F0D0FC0094019502A8FBF71C
S3156002821095FA6946DFF8380503F0F2F9002804D1C9
S315600282204FF0FF3102A8FBF795FA00203EBD38B544
S3156002823005466C6A002C2DD0FFF797FF2046FBF7A8
S3156002824000FD002826D103212046FBF725FD0028E4
S3156002825020D1B4F8500085F83D0040F2DC50A88683
S31560028260DFF8F0046861DFF8F0040068002802D1E4
S31560028270284606F07CFC284606F084FCB4F85000DA
S31560028280C00502D5284606F0D5FC2846FFF735FF1D
S31560028290002032BD6FF00B0032BDF8B586B00546E0
S315600282A00E4617465C21012016F066FC040006D1D4
S315600282B00FF2685003F014FD6FF0FE0054E005F112
S315600282C05800FFF723FEEC6405F150000780002199
S315600282D08170017102202877032231462846FBF716
S315600282E091FC0622314604F13E0016F0ECFC0620B3
S315600282F084F8360040F2DC50A086DFF86004A061A4
S3156002830004F1370201212846FBF7D6FD73783278ED
S315600283100FF2205104F14C0003F045FE04F14C00CB
S3156002832020630FF2245014F039FD00281BD00FF29F
S31560028330205001F0C0FD05900FF2245001F0BBFD04
S3156002834003900FF22C5001F0B6FD0490DFF8100492
S315600283500290DFF810040190009503AB04AA05A908
S31560028360204606F0CCFC002007B0F0BD2A2294E736
S31560028370014601F14C02106800280AD0107A0028E2
S3156002838005D101201072DFF8E00303F039B900204D
S3156002839070476FF0FE00704738B504460D46002CF4
S315600283A007D140F249320FF2D8410FF2EC4003F0A6
S315600283B0FBFB04F15800FFF7AAFD04F1520101220A
S315600283C00A70012D01D14A7001E000224A7001460D
S315600283D004F15800FFF79DFD2146DFF88C03BDE8E6
S315600283E0344003F00DB980B54FF0FF326946DFF8CD
S315600283F0600303F015FA0028F6D100980068002899
S3156002840007D140F26F320FF2A0410FF2B04003F093
S31560028410CBFB00984068002807D14FF45C720FF2DC
S3156002842088410FF2B04003F0BFFB00980068406AD3
S31560028430002803D000994968426E90470098083038
S31560028440FBF74CFAD0E71CB509E00FF29C4003F04B
S3156002845047FC40F2BA31DFF8140310F0E3F94FF04B
S31560028460FF326946DFF8000303F0DAF90028ECD13F
S31560028470009890F8520000281DD000985830FFF7F7
S3156002848046FD009901F152025478002111700146AD
S3156002849000985830FFF73DFD0098C06C002C05D05F
S315600284A00022DFF8CC1206F045FC04E00022DFF879
S315600284B0C41206F03FFC00985830FFF728FD0022F0
S315600284C0009981F85420014600985830FFF721FD43
S315600284D00098016E0029C2D088470400BFD0009878
S315600284E0C16C20460A6990470028F1D0204607F001
S315600284F052FFEDE7F8B584B00FF228450FF2FC366D
S31560028500DFF84C4200200090082304F5BE620FF2A9
S315600285100C4104F5A16002F097FE002805D040F2F6
S31560028520D3323146284603F03FFB04F5A967102093
S3156002853003900C2002904FF48060019004F5C260B3
S3156002854000900023DFF8302228A1384614F06DF936
S31560028550002805D04FF476723146284603F024FB94
S31560028560384614F0A2F9002805D040F2DA323146D4
S31560028570284603F019FB00200090082304F1E80264
S315600285800FF2B431204602F05FFE002805D040F2B9
S31560028590E3323146284603F007FB102003900C2095
S315600285A002904FF48060019004F58470009000237D
S315600285B0DFF8C8214EA104F1400014F036F9002814
S315600285C005D04FF47A723146284603F0EDFA04F18B
S315600285D0400014F06AF9040005D040F2EB323146ED
S315600285E0284603F0E1FA204605B0F0BD65727800D0
S315600285F038B58CB000250CF037FB0FF2443003F02F
S315600286006FFB5F48046824E0204601F006FD0146E0
S3156002861004A815F0D4EF201D01F0FFFC014608A85E
S3156002862015F0CCEF616A0391E16C0291218B0191A5
S315600286300090E38A04AA2946524803F051FB6D1C56
S31560028640207D11F064FA01460FF2083003F048FB10
S31560028650E468002CD8D10FF2083003F041FB002504
S31560028660494804680FE0E28A29460FF2083003F0AF
S3156002867037FB6D1C207D11F04AFA01460FF2D420B9
S3156002868003F02EFBE468002CEDD10FF2FC2003F020
S3156002869027FB00253D48046824E0204601F0BDFC26
S315600286A0014604A815F08AEF201D01F0B6FC0146CA
S315600286B008A815F084EF616A0391E16C0291218B3F
S315600286C001910090E38A04AA29462E4803F008FB2A
S315600286D06D1C207D11F01BFA4FEA00019DA003F08C
S315600286E0FFFAE468002CD8D10CF0CAFA0DB030BD9E
S315600286F06574780030B58BB000250CF0B5FA00BF12
S31560028700A7A003F0EDFA224804681AE0204601F0B9
S3156002871084FC014607A815F052EF201D01F07DFC8E
S31560028720014603A815F04AEFA18A02910190608A78
S31560028730009007AB227C29469FA003F0D1FA6D1CFC
S31560028740E468002CE2D10CF09BFA0BB030BD00005D
S315600287503C7402101D780010F8240310EF8100109B
S3156002876017C501102F82001044790210440E0210C0
S3156002877035EC001073EC001047840010E78300109C
S3156002878018F60110BC0E021014F601101CF6011048
S3156002879028F601106C7769705F6E65746465765F42
S315600287A070696E67000000006E657469660000009D
S315600287B0686F73740000000070696E675F7265733C
S315600287C0700000006E65746465765F666C616773DF
S315600287D05F73796E630000006C7769705F6E6574B3
S315600287E0696600006E65746465765F616464000044
S315600287F065746865726E657469665F6C696E6B6F67
S3156002880075747075740000006E6574696620213D2A
S315600288102052545F4E554C4C000000006D616C6CEA
S315600288206F63206E65746966206661696C65640A49
S315600288300000000072747468726561645F2530328C
S315600288407825303278000000746370697000000029
S315600288503139322E3136382E31302E3130300000F9
S315600288603139322E3136382E31302E310000000049
S315600288703235352E3235352E3235352E3000000002
S315600288806574685F6465766963655F6C696E6B6300
S3156002889068616E676500000064657620213D20523E
S315600288A0545F4E554C4C00006574685F74785F7413
S315600288B068726561645F656E747279006D73672D47
S315600288C03E6E6574696620213D2052545F4E554C5A
S315600288D04C0000006D73672D3E62756620213D2057
S315600288E052545F4E554C4C0053686F756C64206EE3
S315600288F06F742068617070656E210A006574685FC6
S3156002890073797374656D5F6465766963655F696E55
S3156002891069745F7072697661746500006572786DFC
S3156002892062000000726573756C74203D3D2052547E
S315600289305F454F4B000000006574786D6200000071
S31560028940416374697665205043422073746174652D
S31560028950733A0A0073746174653A2025730A0000DB
S315600289604C697374656E20504342207374617465FA
S31560028970733A0A00232564206C6F63616C20706F02
S31560028980727420256420000054494D452D57414993
S315600289905420504342207374617465733A0A00002E
S315600289A04163746976652055445020504342207372
S315600289B074617465733A0A00232564202564202550
S315600289C0733A2564203C3D3D3E2025733A2564205A
S315600289D00A000000197F0010257F0010317F001009
S315600289E0737F001000000000817F0010E18000109C
S315600289F0EF80001010B5040006D03B220FF29831CA
S31560028A000FF2AC3003F0D0F81CEE1C0F20F07E4063
S31560028A10DFF8701324010959081810BD10B50C4609
S31560028A20002806D045220FF2A0310FF2843003F0FF
S31560028A30BBF8002C06D546220FF28C310FF2943029
S31560028A4003F0B2F8BFF34F8F0CEE3C4F10BD00003F
S31560028A5010B50C46002807D04FF49A72DFF82C1333
S31560028A600FF24C3003F0A0F804F0FF040CEEBC4F9A
S31560028A70BFF36F8F10BD000080B5002807D04FF49A
S31560028A80A072DFF80C130FF2283003F08DF81CEE9B
S31560028A90BC0F02BD10B50C46002807D040F2491241
S31560028AA0DFF8F0120FF2083003F07EF804F0FF04EC
S31560028AB004EE164F10BD000001F007010CEE7C1F9C
S31560028AC07047000038B504460D46002C07D040F2C8
S31560028AD0AD120FF224310FF2D82003F065F8202D83
S31560028AE019D2FBF731F80546002D07DD40F2B312C5
S31560028AF00FF204310FF2E82003F056F8DFF8840231
S31560028B0000EB041000EB8500426808201168014200
S31560028B10FCD1002032BDDFF86C0200EB04108268E3
S31560028B204FF00040F2E7F8B504460D461746002CB2
S31560028B3007D04FF4E5720FF2D4210FF2742003F0DE
S31560028B4033F82401DFF83C62301985603751281DFD
S31560028B50006800F01F00401C40013061B0F57F7F65
S31560028B6002D94FF47F7030613069B0F5E07F02D987
S31560028B704FF4E07030612F46002038602021FFF705
S31560028B80A1FF20202C46002207E00146090904EBDA
S31560028B90810101F540610A60103031698842F4D37F
S31560028BA020211046FFF78EFF15F0E0FF202309E033
S31560028BB004EBC30202F5C045286002F5C042121DED
S31560028BC011605B1C32699342F2D320210020FFF7C9
S31560028BD079FF202108E04FF0A0308A0814EB820268
S31560028BE002F580621060091D30698142F3D320214B
S31560028BF00020FFF767FF00224FF0FF310AE01046C0
S31560028C00400904EB800303F52070016003F5C0732D
S31560028C101960203230698242F1D320210020FFF7A9
S31560028C2051FF00214FF0FF3206E00846400904EB8F
S31560028C30800080300260203130698142F5D3202184
S31560028C400020FFF73FFF222038600020F2BD0000BF
S31560028C5070B504460E461546002C06D040F2152223
S31560028C600FF2BC1152A002F09FFF002D00F00780A8
S31560028C7040F216220FF2A81159A002F095FF414860
S31560028C8000EB041000EB85004660002070BD00001A
S31560028C9038B50446FAF758FF0546002C00F00780FF
S31560028CA040F22B220FF2941141A002F07DFF002DBB
S31560028CB040F307804FF40B720FF2801148A002F066
S31560028CC073FF304800EB041000EB8500446804F142
S31560028CD01400016821F00201016001684907FCD4B1
S31560028CE04FF0FF3528480019056000210846FFF756
S31560028CF0E9FE04F581308030056004F5803080300D
S31560028D00056004F5803000F55060056000224FF082
S31560028D10A03106E0900814EB800000F58230016015
S31560028D20121D202AF6D3002004F58634241D206005
S31560028D3032BD000010B5040000F0078040F25122F7
S31560028D400FF20C111AA002F02FFF2046FFF794FED5
S31560028D50014641F001012046FFF77AFE00200CEE43
S31560028D609C0FFF212046FFF795FE01200CEEFC0FBB
S31560028D7000210846FFF7A0FE01200CEE9C0F0020A2
S31560028D8010BD00004C7E021080010100F00E021040
S31560028D90180F0210400F021061726D5F6769635FA0
S31560028DA06765745F6163746976655F697271000095
S31560028DB0696E646578203C2041524D5F4749435F46
S31560028DC04D41585F4E52000061726D5F6769635F25
S31560028DD061636B00697271203E3D203000000000C5
S31560028DE0286370755F696429203C2052545F435042
S31560028DF055535F4E5200000061726D5F676963761C
S31560028E00335F776169745F727770000061726D5F5C
S31560028E106769635F646973745F696E697400000091
S31560028E2061726D5F6769635F7265646973745F615E
S31560028E306464726573735F736574000061726D5FFB
S31560028E406769635F7265646973745F696E6974008A
S31560028E5061726D5F6769635F6370755F696E69741E
S31560028E600000000010B500BF08A002F039FF064CF2
S31560028E70204602F035FF04F1340002F031FF20464D
S31560028E80BDE8104002F02CBF181002100A48656C4B
S31560028E906C6F2052542D546872656164210A000019
S31560028EA02DE9FE4305460E46814FD7F8089099F89C
S31560028EB000804FEA880808F03C08B8F1140FC0F247
S31560028EC0A48068890428C0F0A080686800780828B1
S31560028ED040F09B80786900F0F001E02900F095800F
S31560028EE0396800F0CFFF002840F08F802889082873
S31560028EF0C0F08B80284600F0F9FC002840F085809F
S31560028F0008F110042146284607F041FA00284FD09E
S31560028F1000222989414489B2022007F02FF8040011
S31560028F2073D0618908F1080081421FD342464946DF
S31560028F30606815F06DFEC8F1000109B2204607F0BF
S31560028F4026FA00280CD05B4E304602F0C9FEAF21ED
S31560028F5006F138000FF066FC204607F01CFA54E072
S31560028F602946204607F0DAFA002803D0204607F0A1
S31560028F7012FA4AE0284607F00EFA25466C68414620
S31560028F80284607F004FA00283FD1D5F8049078699C
S31560028F90C9F80C003869C9F8100000202070628890
S31560028FA010464FF6F871884215D30932628014E092
S31560028FB06442214609B2284607F0E9F90028DDD065
S31560028FC03C4C04F1C00002F08BFEC02104F1380073
S31560028FD00FF028FC19E008326280FF2089F8080049
S31560028FE00020A9F80A004146484600F079FCA9F833
S31560028FF00A0002960120019000200090FF2302469B
S3156002900007F11401284600F028FE2846BDE8FE4313
S3156002901007F0C1B90A4603212DE9F84384B0074631
S315600290208846914600222421012006F0A7FF04000B
S315600290303BD0608924280AD21E4D05F1F40002F065
S315600290404FFE4FF4B17105F138000FF0EBFB7D680E
S31560029050666886F8008086F801900020B080F0800D
S315600290601C2279686068083015F0D2FDE8680390C2
S3156002907028690090694603A800F0AAFC050011D091
S31560029080002070806189304600F02AFC708002956B
S315600290900120019000200090FF2303AA014620468A
S315600290A000F0DBFD204607F076F905B0BDE8F083F7
S315600290B0108D0210801002100268516002680A6008
S315600290C0016048607047426801684A6002684168A8
S315600290D00A604060014601607047F9F71FBB0846A7
S315600290E0F9F720BB70B506463B4C04F10800FFF762
S315600290F0F4FF054606F134012046FFF7DDFF2946F7
S3156002910004F10800BDE87040E9E738B50024324949
S31560029110086888420BD0A0F13404FAF784EC05465D
S3156002912004F13400FFF7CFFF2846FAF782EC2046B7
S3156002913032BDF8B516E004F12806F76D06F014FEA6
S315600291400546012D02D1204606F05AFD380001D0AF
S315600291502046B847002D05D1306802F0FFFD204653
S3156002916006F0C6FDFFF7D1FF0400E4D1F1BD10B5EC
S315600291700AE0184850F82400010000D08047641CB9
S31560029180042CF6D3FFF7D5FF0024F9E710B588B0B3
S315600291900020124C19E0002312A2102104A802F04A
S315600291A0F5FE202003901F2002904FF4806001900C
S315600291B004F1A80000900023094A04A9204613F08E
S315600291C034FB204613F071FB01200028E3D008B07F
S315600291D010BD0000E47E02103CF4011080560210BD
S315600291E06F9100107469646C65256400DFF8CC05C4
S315600291F0DFF8CC150160DFF8CC154160704738B5F1
S315600292000446DFF8B855294600F02DF800280DD03F
S3156002921002214172017B491C0173A36C002B03D0AE
S315600292200122294620469847002032BD4FF0FF3082
S3156002923032BD10B5846A002C06D0246804E005218C
S31560029240204600F03DFA2468002CF8D110BD806AF1
S315600292500A6800E00068002803D043689342F9D1A7
S315600292607047002070472DE9F04107460D46BE6AF9
S31560029270FFF7EDFF040037D1DFF84C8540F20112AB
S3156002928041460A2003F0B4FD04002DD0002D01D121
S31560029290002000E0286860600020608160722072B1
S315600292A02073DFF8180500682968002E0ED1814206
S315600292B008D008F1880002F013FD40F20D11404615
S315600292C00FF0B0FA00202060BC620DE0814208D146
S315600292D008F1BC0002F004FD40F2131140460FF0A3
S315600292E0A1FA3068206034602046BDE8F08102460B
S315600292F00020926A00E01A46002A04D013688B4264
S31560029300F9D109681160002A01D16FF00F00704728
S31560029310F8B505460F4614466989084608284BDBA8
S315600293206E68304600F0DCFA002845D121463846A0
S31560029330FFF78DFF00283FD03178112902D0162918
S3156002934031D039E0DFF8742421681368994215D167
S31560029350311D02D07168002910D17078002801D1C0
S315600293600A207070BC6A002C00D02468002C23D0BE
S315600293707178204600F0A4F92468F7E7311D1BD006
S315600293807168002918D021681A46914205D1706821
S31560029390009069463846FFF75AFF00280CD071786C
S315600293A000F08EF908E0417A012905D10021418158
S315600293B00221417200210172284606F0ECFFF1BDDE
S315600293C070B504460E466FF005052846316801F011
S315600293D0F002E02A0CD0DFF8F04304F5807002F068
S315600293E07FFC40F2C71120460FF01CFA284670BD7A
S315600293F0DFF8C823126891420CD1DFF8CC4304F53A
S315600294009C7002F06DFC4FF4E47120460FF00AFA8C
S31560029410284670BDDFF8B4130D6800E02D68002D94
S3156002942011D095F83D108906F8D5002C05D0216833
S31560029430002902D06A688A42F0D13146284600F095
S3156002944003F80100EAD070BD70B505460E46306875
S3156002945000F0F001E0290DD0DFF86C4304F5B67038
S3156002946002F03EFC40F2EB1120460FF0DBF96FF0A2
S31560029470050070BDDFF84413096888420DD1DFF834
S31560029480484304F5D47002F02BFC4FF4F671204683
S315600294900FF0C8F96FF0050070BD95F83D008006C3
S315600294A00CD4C94C04F5F27002F01AFC40F2EF11CA
S315600294B020460FF0B7F96FF0050070BD31462846B9
S315600294C0FFF7D1FE04001CD0607A002814D1207BFD
S315600294D0002806D1AB6C002B03D001223146284608
S315600294E0984716222146284600F014F9052120469F
S315600294F000F0D2F801206072207B401C20730020AD
S3156002950070BD4FF0FF3070BDF8B504460E466FF081
S3156002951005052F46306800F0F001E0290BD0AA4C11
S3156002952004F5077002F0DCFB40F2272120460FF0BB
S3156002953079F92846F2BDA149096888420BD1A24C45
S3156002954004F5157002F0CCFB4FF40A7120460FF059
S3156002955069F92846F2BD9D48056813E095F83D0015
S3156002956080060ED5002C05D02068002802D06968D6
S31560029570814206D13146284600F008F8390000D00B
S3156002958007462D68002DE9D13846F2BD70B506460C
S315600295900D46286800F0F001E0290CD08A4C04F5EB
S315600295A0237002F09DFB40F24A2120460FF03AF901
S315600295B06FF0050070BD8149096888420CD1824C02
S315600295C004F5337002F08CFB40F24B2120460FF01B
S315600295D029F96FF0050070BD96F83D0080060CD43F
S315600295E0794C04F5427002F07BFB40F24E21204634
S315600295F00FF018F96FF0050070BD29463046FFF787
S3156002960026FE04001FD0217B0846022817DA21466F
S315600296103046FFF76CFE207A002804D017222146D6
S31560029620304600F077F8B36C002B03D0002229464F
S315600296303046984721460A2003F016FC01E0481E90
S315600296402073002070BD6FF0050070BD38B55F48AD
S3156002965005680FE06089002808D0401E608180B2EC
S31560029660002803D12146284600F009F82468002C18
S31560029670F0D12D68002D01D0AC6AF8E731BD4A7A87
S31560029680012A08D14A684D4B1B689A4203D00222CE
S315600296904A7216223EE0704738B504460D46032DDF
S315600296A006DB15F0AAFB90FBF5F105FB110500E060
S315600296B0012565816089002801D10120608131BD63
S315600296C010B50446607A022807D001280AD160895B
S315600296D0002802D00A46824204D22046FFF7DCFF07
S315600296E00120607210BD10B586B040F29444ADF8A8
S315600296F014400024ADF816400424049405AC039487
S3156002970002930223019300230093012300F0B6FA29
S3156002971006B010BD2DE9FC4705460E4617462C4895
S31560029720006800904FF0000842460821104606F095
S3156002973025FC04003ED0D4F80490608908280AD239
S31560029740DFF884A00AF5517002F0CAFA40F20231DB
S3156002975050460FF067F8686800903846162807D1B9
S3156002976006F104087068C9F804000120307206E048
S31560029770172804D1DFF85C807068C9F8040038469F
S31560029780162801D0172812D189F80070002089F8AE
S315600297900100A9F802000821484600F0A1F8A9F8DC
S315600297A002002B46424669462046FFF79CFF20464A
S315600297B006F0F1FDBDE8F38700000000FC7E0210B2
S315600297C0E0000001E0000002A0110210F424031080
S315600297D02C170210007F021018B40022ADF8002088
S315600297E0134610F001020BD0002909DD10F8014B77
S315600297F08DF80140491E03E030F8024B1B19891EA1
S315600298000129F9DC002902DD00788DF80000BDF837
S315600298100000181881B201EB104188B200EB1140CA
S31560029820002A05D0010201F47F41C0F307200843F4
S3156002983080B212BC70472DE9F04104460D461646C9
S315600298401F464FF0000814E061896068FFF7C4FFA5
S3156002985038180746BFB207EB1047A07AC00707D58C
S31560029860C8F10108380200F47F40C7F307270743AF
S315600298702468002CE8D1B8F1000F05D0380200F454
S315600298807F40C7F3072707432846FAF789F93C184A
S315600298903046FAF785F9211888B200EB114000EBE1
S315600298A01040C04380B2BDE8F0813CB4049C1D68A0
S315600298B02B461B0C13FA85F3246813FA84F303EB25
S315600298C014439CB204EB1344A3B203EB144302B0F9
S315600298D030BCB0E71CB5049C0094FFF7E6FF16BDEA
S315600298E080B5FFF779FFC04380B202BD70B504460A
S315600298F000252E4614E061896068FFF76DFF28181F
S315600299000546ADB205EB1045A07AC00707D5C6F18C
S315600299100106280200F47F40C5F307250543246843
S31560029920002CE8D1002E05D0280200F47F40C5F352
S3156002993007250543ED43284680B270BD000000004E
S315600299401CB50020009009D00E4C204602F0C8F9E2
S315600299504FF4AB7104F144000EF064FF0EF0AFFDFC
S3156002996015F00EFA03F0FBF905F034F814F00EF870
S315600299700FF03CF8FFF73AFCFAF744FB13F0DEFA15
S3156002998013BD00BF201502103FEE130F00F58010C5
S31560029990704780B54FF4606200210C4815F00BF9F0
S315600299A0FFF7F2FF014600221046FFF7BCF80020DF
S315600299B0FFF7C0F90020BDE80240FFF769B9002051
S315600299C0FFF718B801460020FFF728B8047F021097
S315600299D010B50446002903D00EF041FF002803D1DA
S315600299E02046BDE8104000E010BD70B5017801F078
S315600299F0F001E02906D1DFF860140968002901D078
S31560029A00084670BDDFF85414096815E091F83D30D8
S31560029A1003F00502052A0ED14A68002A0BD08E6829
S31560029A20046806EA0405324095421CD09A0702D4BD
S31560029A30CA68944217D009680029E7D100210EF05E
S31560029A400EFF01000FD1DFF818040068002808D065
S31560029A5090F83D1001F00501052902D141680029FF
S31560029A6002D1002070BD084670BD2DE9F84F8346CD
S31560029A708A460126DBF8047097F8008040460009A2
S31560029A80042840F085804FEA880808F03C08788808
S31560029A90FAF786F804462146BBF80800814202D2EC
S31560029AA0584606F0A0FBBBF80A00404570DBBBF8DF
S31560029AB00800A0426CD3B8F1140F69DB4046014638
S31560029AC03846FFF70DFF002862D13869DFF89493B4
S31560029AD0C9F81400F868C9F8100099F8140000F083
S31560029AE0F000E02817D19AF83D00800636D509F1D4
S31560029AF014015046FFF7ABFB00282FD0D9F81400AB
S31560029B00DFF86413884204D1D9F81000002800D126
S31560029B100026544626E03546544694F83D00C00772
S31560029B200CD56068002809D0D9F81420824219D071
S31560029B302146104600F0A6F9002813D1002D0FD059
S31560029B4099F814007F2809D00025DFF8100304680D
S31560029B50544500D12468002CDFD103E0002401E0E3
S31560029B602468F5E7002E0CD05146D9F8100000F0B3
S31560029B7089F900280CD199F8100000F0F000E0286D
S31560029B8006D0002C04D0F8884FF63F71084204D004
S31560029B90584606F000FC00205DE0C9F80040C9F8AE
S31560029BA004A0C9F808703878800000F03C00A9F873
S31560029BB00C005146584609F033FC00283ED1414616
S31560029BC0494209B2584606F0E2FB787A01280FD07C
S31560029BD0022812D0062806D0112815D151465846B9
S31560029BE013F015FF2AE0514658460FF0FDFF25E0B7
S31560029BF051465846FFF754F920E009F114025146DE
S31560029C005846FFF785FB19E02146D9F8140000F0A3
S31560029C1039F900280FD199F8140000F0F000E02815
S31560029C2009D04146584606F0B4FBCBF804700221CF
S31560029C305846FFF7EFF9584606F0ADFB0020C9F823
S31560029C400000C9F80400C9F80800A9F80C00C9F8B0
S31560029C501000C9F81400BDE8F28F18B585B000246B
S31560029C60049403940A9C02949DF8244001949DF8FE
S31560029C702040009400F002F806B010BD30B585B001
S31560029C800A9D0C46002A05D0002902D009680029DF
S31560029C9000D12C1DBDF8301004910B9903910295E9
S31560029CA09DF8241001919DF820100091214600F044
S31560029CB013F805B030BD18B585B00024049403943A
S31560029CC00A9C02949DF8244001949DF820400094D9
S31560029CD000F002F806B010BD2DE9F84F04460E46B4
S31560029CE015469A460027E089012807D062A001F04E
S31560029CF0F7FF40F233315D480EF094FD002D00F01F
S31560029D009F80DDF838B04FF014085846002828D0F6
S31560029D100BF103004FF6FC7909EA000909F1140810
S31560029D20494609B2204606F032FB00281FD10D993A
S31560029D305A46606814F06CFFCB4506DA3A46A9EBE0
S31560029D400B016068584414F0FAEC384604E0616826
S31560029D5031F810107F18401C09EBD971B0EB610F16
S31560029D60F5DB1421204606F012FB002802D06FF0C4
S31560029D7001006EE0D4F80490608914280AD2DFF8F4
S31560029D80ECB00BF1880001F0ABFF40F2613158464E
S31560029D900EF048FD0B980A9989F808A089F809001F
S31560029DA04FEA0A2A4FEA1A2A4AEA002ABA44286875
S31560029DB0C9F81000D9F810001AFA80F7D9F810001D
S31560029DC007EB10474FEAA80848F0400889F8008078
S31560029DD089F8011099F800000002000A40EA0120A1
S31560029DE0C7192089F9F7DCFEA9F8020007EB00081B
S31560029DF00020A9F806001E4F3888F9F7D1FEA9F8A7
S31560029E00040040443988491C3980002E04D119491E
S31560029E100968C9F80C1002E03168C9F80C10D9F863
S31560029E200C1010FA81F0D9F80C1000EB114081B2D7
S31560029E3001EB104101EB1141C943A9F80A1003E095
S31560029E406168086900906D460C982A462146436906
S31560029E509847BDE8F28F0000288D0210F4240310A3
S31560029E60F8240310108D0210E0000001E8150210BC
S31560029E70BE2C03102C170210702D3E726566203DB3
S31560029E803D203100C24312D0002810D091F83D2007
S31560029E9092070ED54A6890420BD08B6803EA00019E
S31560029EA01A40914205D1DB431840984201D1012004
S31560029EB070470020704780B5694600F009F80028AF
S31560029EC001D0009802BD4FF0FF3002BD00000000D5
S31560029ED0F8B584B00C466A46017807E003A98A425F
S31560029EE080F0808042F8045B10F8011FA1F1300314
S31560029EF00A2B77D200250A26302911D110F8011FC4
S31560029F00782901D0582903D1102610F8011F07E0DD
S31560029F10082605E0303906FB05110D4610F8011FCB
S31560029F20A1F130070A2FF5D3102E16D1A1F16103E4
S31560029F300A2F05D3062B03D3A1F14107062F0CD2B4
S31560029F401A2B01D2612300E041230A31C91A41EA80
S31560029F5005110D4610F8011FE2E72E29BED0002931
S31560029F600BD0202909D00C2907D00A2905D00D2942
S31560029F7003D0092901D00B2934D16846121A9210EE
S31560029F80521C042A38D8DFE802F02D3F030D1D006B
S31560029F90B5F1807F26D20098B0F5807F22D245EA5D
S31560029FA0006531E0B5F5803F1CD20098B0F5807F40
S31560029FB018D20199B1F5807F14D245EA006545EA67
S31560029FC0014521E0B5F5807F0CD20098B0F5807F1F
S31560029FD008D269464868B0F5807F03D28A68B2F5CE
S31560029FE0807F01D3002016E0009945EA016545EAC3
S31560029FF0004545EA022507E02CA001F071FE40F219
S3156002A000031128480EF00EFC002C03D02846F9F7FF
S3156002A010CDFD2060012005B0F0BD10222249FCB5BD
S3156002A0200023006800900C466E461D4607E0431CFE
S3156002A030904230DA2E2004F8010B761C6D1C2846FD
S3156002A040C0B2042829DA4FF0000C30780A2790FB58
S3156002A050F7FE0EEB8E07A0EB470086F800E001AF35
S3156002A0603030E6465FFA8EFE07F80E000CF1010C00
S3156002A07030780028E9D16046A0F1010CC0B2002810
S3156002A0801846D4D0431C904205DA6046C0B2385CAA
S3156002A09004F8010BEFE70020F6BD002004F8010C7E
S3156002A0A00846F6BDA01602102C8D0210756E686108
S3156002A0B06E646C6564000000406001460160704732
S3156002A0C00268516002680A600160486070474268CF
S3156002A0D0116042684A604160086070474268016880
S3156002A0E04A60026841680A604060014601607047E2
S3156002A0F00168814201D10120704700207047704794
S3156002A1000AF0B2BD0AF0BCBDF8F708BB0846F8F71C
S3156002A11009BB80B51C30FFF7CFFF002002BD38B502
S3156002A12004460D46002C06D170220FF240010FF252
S3156002A130540001F039FD68460AF03FFC2046FFF7FD
S3156002A140D7FF00280BD12068A0F1340420460AF01C
S3156002A1501AFB002803D1002D02D4256300E00024F7
S3156002A16000980AF035FC204632BD000072745F73B7
S3156002A1707573705F6C6973745F64657175657565B7
S3156002A18000000000737573705F6C69737420213D03
S3156002A1902052545F4E554C4C0000000038B50546BF
S3156002A1A00C46FFF7BCFF03E021462846FFF7B7FFE0
S3156002A1B00028F9D1002032BDF8B507460C46002AC0
S3156002A1C017D0012A1BD13D6800E02D68BD420ED032
S3156002A1D020460AF0BEFA0646A5F134000AF0B9FA3C
S3156002A1E08642F2D204F134012846FFF770FFBD427F
S3156002A1F00CD104F134013846FFF769FF06E04FF4EB
S3156002A2008C720FF21001ACA001F0CEFC0020F2BD00
S3156002A2100000000072745F737573705F6C697374AB
S3156002A2205F656E71756575650000000038B5044638
S3156002A23068460AF0C2FB25680DE0A5F134021021DA
S3156002A2400FF2200001F04CFD2868A04202D09BA0CC
S3156002A25001F046FD2D68A542EFD100980AF0B8FBE1
S3156002A26031BD0000252E2A7300000000F8B50746AE
S3156002A2700C4615461E46FFF74CFFFE84BC847D7471
S3156002A28007F12800BDE8F24039E7F8B504460D4605
S3156002A29016461F46002C07D140F27D120FF254017A
S3156002A2A00FF2304001F080FCB6F5803F07D34FF4E1
S3156002A2B0BF720FF240010FF2481001F075FC3800D0
S3156002A2C009D0012807D040F27F120FF22801DFF889
S3156002A2D0880901F069FC2A460221204605F042FC03
S3156002A2E04FF6FF733A46314689B22046FFF7BEFF04
S3156002A2F00020F2BD72745F73656D5F696E6974008A
S3156002A30038B5040007D14FF4D1720FF268010FF22B
S3156002A310C43001F049FC204605F03AFD022807D018
S3156002A32040F2A3120FF24C01DFF8B80601F03CFCD2
S3156002A330204605F019FD002807D14FF4D2720FF2BC
S3156002A3403401DFF81C0901F02FFC04F12800FFF745
S3156002A350DBFE0546FF2104F11C00FFF71FFF2946BD
S3156002A36004F12800FFF7D2FE204605F049FC0020E2
S3156002A37032BD000072745F73656D5F64657461639C
S3156002A38068000000F8B504460D461646B5F5803FEE
S3156002A39007D340F2D7120FF27C010FF2640001F08C
S3156002A3A003FC300009D0012807D04FF4EC720FF29B
S3156002A3B06401DFF8A40801F0F7FB01F06DFA0028EA
S3156002A3C00CD00FF250073946DFF8980801F088FC86
S3156002A3D04FF4ED72394638A001F0E6FB21460220C1
S3156002A3E005F03CFC040001D10020F2BD4FF6FF737C
S3156002A3F03246294689B2FFF739FF2046F2BD000090
S3156002A40076616C7565203C2030783130303030555D
S3156002A4100000000072745F73656D5F6372656174DC
S3156002A4206500000038B5040007D140F2FF120FF252
S3156002A43090010FF2A02001F0B7FB204605F0A8FCC0
S3156002A440022807D04FF400720FF27401DFF8940508
S3156002A45001F0AAFB204605F087FC002807D040F2EF
S3156002A46001220FF25C01DFF8000801F09DFB01F0AA
S3156002A47013FA00280CD00FF248052946DFF8E407E4
S3156002A48001F02EFC40F20322294691A001F08CFBDA
S3156002A49004F12800FFF738FE0546FF2104F11C008F
S3156002A4A0FFF77CFE294604F12800FFF72FFE2046BF
S3156002A4B005F01EFC002032BD300000002F000000B7
S3156002A4C072745F73656D5F64656C657465000000C8
S3156002A4D0F2B5044615460FF23816002C06D140F244
S3156002A4E0352231460FF2EC1001F05EFB204605F094
S3156002A4F04FFC022806D040F236223146DFF8E404E9
S3156002A50001F052FBDFF864070168002901D020469A
S3156002A51088470AF0CEFB00280AD03146DFF850079A
S3156002A52001F0DEFB40F23B22314669A001F03CFBC2
S3156002A53012F0B7F900280AD13146DFF8380701F080
S3156002A540CFFB40F23B22314661A001F02DFB01F0C8
S3156002A550A3F900280AD03146DFF8080701F0C0FBEC
S3156002A56040F23B2231465AA001F01EFB04F128005C
S3156002A570FFF7CAFD0646A08C00280FD0401EA084B5
S3156002A580314604F12800FFF7C1FDDFF8F4080168DF
S3156002A590002901D0204688470020F2BD0098002895
S3156002A5A007D1314604F12800FFF7B0FD6FF0910044
S3156002A5B0F2BD12F076F90746282038632B46627C94
S3156002A5C004F11C01384612F03BFB050006D0314609
S3156002A5D004F12800FFF79AFD2846F2BD009800288C
S3156002A5E009DD6A46002107F1500012F061FF07F1AA
S3156002A5F0500012F0DAFE314604F12800FFF786FDBC
S3156002A6000AF01BFA386B0028BFD0C6DD4042F2BDA5
S3156002A6105F72745F73656D5F74616B6500000000E5
S3156002A620022255E70021FBE770B5040007D140F22C
S3156002A630BD220FF28C010FF29C0001F0B5FA2046A2
S3156002A64005F0A6FB022807D040F2BE220FF2700187
S3156002A650DFF8900301F0A8FADFF890080168002994
S3156002A66001D020468847002504F12800FFF74CFDFB
S3156002A670064604F11C00FFF73BFD002810D129466F
S3156002A68004F11C00FFF74BFD0125314604F1280059
S3156002A690FFF73CFD012D01D10AF0CFF9002070BD14
S3156002A6A0A18CE08C814202D2491CA184EDE731463D
S3156002A6B004F12800FFF72AFD6FF03F0070BD00002D
S3156002A6C072745F73656D5F72656C65617365000058
S3156002A6D03000000073656D20213D2052545F4E5557
S3156002A6E04C4C000010B500F11C042046FFF700FD3B
S3156002A6F0002805D1206834380AF02BF8607201E030
S3156002A700FF206072607A10BD10B504460AF024F824
S3156002A710D4F888200AE012F8073C12F8081C8B422B
S3156002A72000D90B46834200D81846126804F18801A4
S3156002A7308A42F0D110BDF8B507460AF05BF801E02F
S3156002A7406FF0FE0000282FD138460AF008F800287C
S3156002A7502AD0D7F89040002CF2D0204605F018FB9C
S3156002A7600328EDD107F13400FFF7B8FC627C394665
S3156002A77004F11C00FFF720FD0028E3D12046FFF715
S3156002A780B1FFA06AFFF7C0FF06463546A06A09F028
S3156002A790E0FF854205D0A76A314638460AF02AF8B4
S3156002A7A0D0E76FF0FE00CDE7F1BD70B50446002537
S3156002A7B001F124063078FF2805D1204609F0C9FF49
S3156002A7C07178884207D12046FFF79EFF01462046F0
S3156002A7D00AF010F80125284670BD38B504460D46C4
S3156002A7E0002C07D140F2F3320FF240010FF27C6087
S3156002A7F001F0DAF92A460321204605F0B3F920462C
S3156002A800FFF787FC0020A06204F11105FF2129757C
S3156002A8106875E97404F12C00FFF74EFC012028707C
S3156002A82004F13400FFF76BFC002032BD72745F6D79
S3156002A830757465785F696E69740000002DE9FC4184
S3156002A84004460E4600250FF2F80712F02AF8002891
S3156002A8500AD13946DFF81C0401F042FA40F23B4263
S3156002A86039465BA001F0A0F901F016F800280AD07B
S3156002A8703946DFF8F00301F033FA40F23B423946DB
S3156002A88053A001F091F9002C06D140F23C423946C0
S3156002A8900FF2D85001F088F9002E06D140F23D42FF
S3156002A8A039460FF2B40001F07FF904F13400FFF784
S3156002A8B027FCD6F89000A04206D040F241423946C3
S3156002A8C0DFF84C0901F070F968460AF076F806F18D
S3156002A8D03400FFF703FC04F11C07F868002808D06F
S3156002A8E009F037FF8046304609F033FF804500D1D4
S3156002A8F001253846FFF7FCFB002805D13868343855
S3156002A90009F027FF787201E0FF207872002D0ED0E1
S3156002A910F868FFF7F9FE06463546F86809F019FF4A
S3156002A920854204D002223146F868FFF704FF009898
S3156002A9300AF04EF804F13400FFF7E4FBBDE8F38158
S3156002A94072745F6D757465785F64726F705F7468D8
S3156002A950726561640000000074687265616420213A
S3156002A9603D2052545F4E554C4C00000038B50546AA
S3156002A97000F092FF00280CD00FF258042146DFF84F
S3156002A980E40201F0ADF940F2D642214610A001F090
S3156002A9900BF92946032005F061F9040001D1002074
S3156002A9A032BDFFF7B6FB0020A06204F11105FF215C
S3156002A9B029756875E97404F12C00FFF77DFB0120A7
S3156002A9C0287004F13400FFF79AFB204632BD00007E
S3156002A9D03000000072745F6D757465785F637265CE
S3156002A9E061746500701702102DE9F34381B0044665
S3156002A9F015460FF284280AF05CF9002809D0414610
S3156002AA009B4801F06DF940F23352414693A001F042
S3156002AA10CBF811F046FF002809D14146954801F06E
S3156002AA205FF940F2335241468CA001F0BDF800F066
S3156002AA3033FF002809D041468A4801F051F940F2B5
S3156002AA403352414685A001F0AFF8002C06D140F2A0
S3156002AA50365241460FF2144001F0A6F8204605F040
S3156002AA6097F9032806D040F237524146DFF8BC0513
S3156002AA7001F09AF811F015FF064604F13400FFF76B
S3156002AA803FFB7A480168002901D0204688470020AA
S3156002AA90306304F124077868B04219D1B878FF2888
S3156002AAA00FD0401CB87004F13400FFF72BFBDFF8BF
S3156002AAB0D0030168002901D0204688470020BDE8FE
S3156002AAC0FE8304F13400FFF71DFB6FF03F00F6E7EB
S3156002AAD0002819D17E60FF2078700120B87038781E
S3156002AAE0FF280AD0786809F034FE39780A4682422D
S3156002AAF003D22A467868FFF71EFE04F12C0106F19E
S3156002AB008800FFF7DDFACEE70298002808D1922086
S3156002AB10306304F13400FFF7F5FA6FF09100CEE787
S3156002AB202B46627C04F11C01304612F089F805005E
S3156002AB3005D004F13400FFF7E5FA2846BFE7C6F808
S3156002AB409040684609F039FF304609F002FE054634
S3156002AB502946787881420BD27D70786809F0F9FDD2
S3156002AB607978814204D2022229467868FFF7E3FDAA
S3156002AB70009809F02DFF0298012809DB02AA00213C
S3156002AB8006F1500012F094FC06F1500012F00DFC32
S3156002AB9004F13400FFF7B6FA09F04FFF04F134000E
S3156002ABA0FFF7AEFA7968306B00280AD1B1423FF4FA
S3156002ABB07AAF40F2B15241460FF2CC0000F0F4FF98
S3156002ABC071E70025B14206D14FF4B76241460FF2F2
S3156002ABD0D00000F0E9FFD6F83080684609F0EDFE55
S3156002ABE07868002808D009F0B4FD8146304609F03D
S3156002ABF0B0FD814500D1012504F11C00FFF778FA0A
S3156002AC00002805D1E069343809F0A3FD787001E0C7
S3156002AC10FF207870002D0ED07868FFF775FD8146AB
S3156002AC204D46786809F095FD854204D00222494670
S3156002AC307868FFF780FD009809F0CAFE04F13400D7
S3156002AC40FFF760FA0020C6F89000B8F1010F01DB49
S3156002AC50C8F10008404632E734170210300000009F
S3156002AC60B8170210E8170210101802108C2503108C
S3156002AC704C180210781802105F72745F6D757465F5
S3156002AC80785F74616B6500006D757465782D3E6FD3
S3156002AC90776E6572203D3D2074687265616400005E
S3156002ACA06D757465782D3E6F776E657220213D20D5
S3156002ACB07468726561640000022295E62DE9FC41C2
S3156002ACC005000FF2941606D140F2346231460FF255
S3156002ACD09C1000F069FF284605F05AF8032806D052
S3156002ACE040F235623146DFF8440300F05DFF00272B
S3156002ACF011F0D7FD00280AD13146DFF8E40800F0EA
S3156002AD00EFFF40F23A62314679A000F04DFF00F063
S3156002AD10C3FD00280AD03146DFF8C80800F0E0FF1C
S3156002AD2040F23A62314672A000F03EFF11F0B9FD80
S3156002AD30044605F13400FFF7E3F96C48016800291F
S3156002AD4001D02846884705F11C08D8F80C008442D1
S3156002AD5008D06FF0FE06266305F13400FFF7D2F9DC
S3156002AD60304677E098F80A00401E88F80A00C0B2BA
S3156002AD70002866D105F12C00FFF7B0F9684609F0A4
S3156002AD801CFE29462046FFF710FD07464046FFF7A0
S3156002AD90AFF900284CD1D8F80000A0F1340420465F
S3156002ADA009F0DDFC002806D140F265623146DFF823
S3156002ADB0580800F0F9FE04F13400FFF78FF92046D7
S3156002ADC009F0E1FC002800D00024002C04D14046A2
S3156002ADD0FFF78EF90028DED0002C1FD0C8F80C4091
S3156002ADE0012088F80A0005F12C0104F18800FFF7BA
S3156002ADF067F90020C4F890004046FFF779F9002809
S3156002AE0007D1D8F80000343809F0A3FC88F80900A5
S3156002AE1002E0FF2088F80900012705E00020C8F853
S3156002AE200C00FF2088F80900009809F0D1FD08E0BF
S3156002AE30009809F0CDFD0020C8F80C00FF2088F8C4
S3156002AE40090005F13400FFF75DF9012F01D109F020
S3156002AE50F4FD0020BDE8F68172745F6D75746578E5
S3156002AE605F72656C65617365000000006D7574657F
S3156002AE707820213D2052545F4E554C4C0000000014
S3156002AE809025031070B504460D000AD028460128A5
S3156002AE9000F0078040F2527216A1DFF8740900F0E2
S3156002AEA083FE00F0F9FC00280CD000BF11A63146E3
S3156002AEB0DFF8300700F014FF40F2547231460CA0FE
S3156002AEC000F072FE2146042004F0C8FE040001D19F
S3156002AED0002070BD6574FFF71CF90020606204F102
S3156002AEE02800FFF70CF9204670BD00009425031078
S3156002AEF03000000072745F6576656E745F637265BA
S3156002AF00617465002DE9FC41044688460026002CE2
S3156002AF1007D140F2AF720FF218110FF2183000F03B
S3156002AF2043FE204604F034FF042807D04FF4F6624D
S3156002AF300FF2FC01DFF8D40600F036FEB8F1000F1E
S3156002AF4002D16FF0FE006EE0374604F12800FFF78B
S3156002AF50DBF80546606A48EA0008C4F82480DFF830
S3156002AF60B0060168002901D020468847684609F084
S3156002AF7024FD04F11C00FFF7BBF8002846D1D4F883
S3156002AF801C8019E002F13001496E636A0B408B4204
S3156002AF9000D10020D8F8008000280DD102F13007D8
S3156002AFA092F89800400701D5786E0643104609F07C
S3156002AFB0EAFB00203860012704F11C0080451FD09F
S3156002AFC0A8F134026FF0FE0092F89830D907D9D40E
S3156002AFD099070AD502F1300CDCF86430616A1940CF
S3156002AFE0D8D0CCF864100020D4E7009809F0F0FCC1
S3156002AFF0294604F12800FFF789F86FF0390012E05C
S3156002B000002E03D0606A20EA06066662009809F09E
S3156002B010DFFC294604F12800FFF778F8012F01D1F9
S3156002B02009F00BFD0020BDE8F6810000B0180210A1
S3156002B03072745F6576656E745F73656E6400000038
S3156002B0402DE9F84F05460E4691460FF2C814002DBB
S3156002B05006D140F6350221460FF2D81000F0A4FD63
S3156002B060284604F095FE042806D040F636022146AC
S3156002B070DFF8980500F098FD09F01BFE00280AD05B
S3156002B0802146DFF8B80700F02BFE40F6390221466A
S3156002B09088A000F089FD11F004FC00280AD121463F
S3156002B0A0DFF83C0500F01CFE40F63902214681A01D
S3156002B0B000F07AFD00F0F0FB00280AD02146DFF8A6
S3156002B0C0240500F00DFE40F63902214679A000F013
S3156002B0D06BFD6FF0FE00002E00F09880074611F0BF
S3156002B0E0E0FB83460BF130086FF02700C8F80000DA
S3156002B0F0DFF84C070168002901D02846884705F128
S3156002B1002800FFF701F882465FEAC97005D5686ACA
S3156002B1103040B0420FD100270DE05FEA897004D556
S3156002B120686A304207D0002705E040F6570221469A
S3156002B13060A000F039FD0A9C002F15D10020C8F8E6
S3156002B1400000002C02D0686A30402060686A304095
S3156002B150C8F864008BF898905FEA497048D5686AC7
S3156002B16020EA06066E6243E0009800280AD16FF074
S3156002B1709104C8F80040514605F12800FEF7C6FF63
S3156002B180204643E00B9BC8F864608BF898906A7C13
S3156002B19005F11C01584611F053FD060006D05146D2
S3156002B1A005F12800FEF7B2FF30462FE0009801282D
S3156002B1B009DB6A4600210BF1500012F079F90BF1B6
S3156002B1C0500012F0F2F8514605F12800FEF79EFF94
S3156002B1D009F033FCD8F80000002815D105F12800E3
S3156002B1E0FEF792FF8246002C02D0D8F864002060F7
S3156002B1F0514605F12800FEF789FFDFF84806016827
S3156002B200002901D028468847D8F80000BDE8F28FA9
S3156002B210281902105F72745F6576656E745F726577
S3156002B220637600001CB502240194049C0094FFF727
S3156002B23007FF16BD6576656E7420213D2052545F08
S3156002B2404E554C4C000000002DE9F04104460E4676
S3156002B25017469846002C06D140F6251216A10FF223
S3156002B260C85000F0A1FC069D280008D0012806D02F
S3156002B27040F6261210A1DFF8980500F095FC3246DA
S3156002B2800521204604F06EFC65742046FEF741FFF8
S3156002B2906762A4F8288000206085A085E08504F1B5
S3156002B2A03000FEF709FF04F13800FEF728FF0020A0
S3156002B2B0BDE8F0813000000072745F6D625F696E96
S3156002B2C069740000F8B504460D46160009D030468A
S3156002B2D0012806D040F68E121DA1DFF8340500F073
S3156002B2E063FC00F0D9FA00280BD000BF18A73946D4
S3156002B2F0BC4800F0F5FC4FF419623946B7A000F07D
S3156002B30053FC2146052004F0A9FC040001D100206B
S3156002B310F2BD6674FEF7FDFE2585208D800000F085
S3156002B32005FD6062002804D1204604F0E1FC00209D
S3156002B330F2BD00206085A085E08504F13000FEF74D
S3156002B340BBFE04F13800FEF7DAFE2046F2BD0000CD
S3156002B35072745F6D625F637265617465000000009E
S3156002B36038B5040040F0078040F6C91223A10FF2F7
S3156002B370B84000F019FC204604F00AFD052806D004
S3156002B38040F6CA121DA1DFF8C00400F00DFC20468B
S3156002B39004F0EAFC002806D040F6CB1217A1DFF8CB
S3156002B3A0AC0400F001FC00F077FA00280BD000BF75
S3156002B3B012A529468B4800F093FC40F6CD12294629
S3156002B3C090A000F0F1FB04F13800FEF799FEFF2130
S3156002B3D004F11C00FEF7E2FEFF2104F13000FEF7E5
S3156002B3E0DDFE04F13800FEF78DFE606A00F0B6FC01
S3156002B3F0204604F07DFC002032BD000072745F6D51
S3156002B400625F64656C657465000000002DE9F6474D
S3156002B41004460E469946002C07D140F606220FF2E4
S3156002B420C8110FF2044000F0BFFB204604F0B0FCE6
S3156002B430052807D040F607220FF2AC11DFF80804A0
S3156002B44000F0B2FB0198002830D009F032FC0028E7
S3156002B4500CD00FF294152946DFF8E00300F040FCA9
S3156002B46040F60A2229465DA000F09EFB11F019FA09
S3156002B47000280BD10FF270152946594800F030FCAE
S3156002B48040F60A22294655A000F08EFB00F004FA27
S3156002B49000280BD00FF250152946524800F020FCC6
S3156002B4A040F60A2229464DA000F07EFB002711F0E5
S3156002B4B0F8F9804656480168002901D02046884737
S3156002B4C004F13800FEF720FE0546608D218D884224
S3156002B4D036D10198002833D1294604F13800FEF7A7
S3156002B4E015FE6FF03F0076E0019800280CDDF7F755
S3156002B4F0C7F8074601AA002108F1500011F0D8FFEB
S3156002B50008F1500011F051FF294604F13800FEF7A8
S3156002B510FDFD09F092FAD8F8300000285BD104F1FB
S3156002B5203800FEF7F1FD05460198002808DDF7F7B9
S3156002B530A7F8C71B0198C01B019001D50020019096
S3156002B540618D208D814218D16FF02700C8F83000D6
S3156002B55001980028C0D04B46627C04F13001404617
S3156002B56011F06EFB8246BAF1000FBDD0294604F196
S3156002B5703800FEF7CBFD50462DE0616AA08D41F89A
S3156002B5802060A18D491CA185208D89B2814201D39B
S3156002B5900020A085618D4FF6FF7081429CD0491CC8
S3156002B5A0618504F11C00FEF7A3FD00280DD1002180
S3156002B5B004F11C00FEF7B3FD294604F13800FEF7DC
S3156002B5C0A5FD09F03AFA002005E0294604F13800A3
S3156002B5D0FEF79CFD0020BDE8F68700003000000003
S3156002B5E078180210E81702105F72745F6D625F73FB
S3156002B5F0656E645F7761697400000000022305E787
S3156002B6000022FBE73000000098190210C4190210EC
S3156002B610942503102DE9F64704460E469946002CFA
S3156002B62007D140F61D320FF2EC110FF2FC1000F05A
S3156002B630BBFA204604F0ACFB052807D040F61E3262
S3156002B6400FF2D011DFF8000200F0AEFA019800287E
S3156002B65032D009F02EFB00280CD00FF2B81529461D
S3156002B660DFF8D80100F03CFB40F62132294672A091
S3156002B67000F09AFA11F015F900280CD10FF2941520
S3156002B6802946DFF8CC0100F02BFB40F62132294631
S3156002B69069A000F089FA00F0FFF800280CD00FF2DA
S3156002B6A074152946DFF8AC0100F01AFB40F6213228
S3156002B6B0294661A000F078FA002711F0F2F8804678
S3156002B6C0DFF87C010168002901D02046884704F131
S3156002B6D03800FEF719FD618D00290AD1019900290A
S3156002B6E007D1014604F13800FEF710FD6FF09100B4
S3156002B6F08BE02546824634E04B466A7C05F11C01A6
S3156002B700404611F09DFA04003FD1019800280CDDF5
S3156002B710F6F7B6FF074601AA002108F1500011F0BC
S3156002B720C7FE08F1500011F040FE514605F138009F
S3156002B730FEF7ECFC09F081F9D8F83000002864D1F4
S3156002B74005F13800FEF7E0FC82460198002808DD24
S3156002B750F6F796FFC71B0198C01B019001D5002022
S3156002B7600190688D002817D16FF02700C8F8300065
S3156002B77001980028C0D1514605F13800FEF7C6FC93
S3156002B7806FF09100C8F830003FE0514605F138008D
S3156002B790FEF7BCFC204638E0686AE98D50F8210065
S3156002B7A03060E98D491CE985288D89B2814201D3D1
S3156002B7B00020E885688D002801D0401E6885DFF884
S3156002B7C0844005F13000FEF793FC002812D1002177
S3156002B7D005F13000FEF7A3FC514605F13800FEF78D
S3156002B7E095FC2168002901D02846884709F025F989
S3156002B7F000200AE0514605F13800FEF787FC216811
S3156002B800002901D0284688470020BDE8F687000057
S3156002B810341702105F72745F6D625F7265637600E1
S3156002B8200223F7E60023F5E66D6220213D2052549D
S3156002B8305F4E554C4C000000300000004C18021060
S3156002B8408C250310902503107C1A0210F01A021040
S3156002B85078180210E817021010B5064C012104F19F
S3156002B860080013F06BF92068002802D0BDE810408A
S3156002B870004710BD3C8D021010B5064C606800286A
S3156002B88000D08047012104F10800BDE8104013F0A2
S3156002B89060B900BF3C8D021038B5F8F7C4E80546BA
S3156002B8A0044813F043F904462846F8F7C2E82046EE
S3156002B8B0C0B232BD448D021080B5064800F010FA5F
S3156002B8C00549064800F00CFA054800F009FA6FF0DF
S3156002B8D0490002BDCC1E0210F01E02100C1F02109F
S3156002B8E0E81E021080B5064800F0FAF905490648D6
S3156002B8F000F0F6F9054800F0F3F96FF0490002BD71
S3156002B900CC1E0210241F02100C1F0210E81E021029
S3156002B9100021030002D55B4200E0491C0F2909D2CF
S3156002B920DFF8BC2252F831009842F6D102EBC10030
S3156002B930406870470FF2D420704710B50446FFF78F
S3156002B940ABFF002802D0A748046010BD10F0A9FF23
S3156002B950002802D1A348046010BD046310BD1CB563
S3156002B9600FF2B02000F0BCF99F4C204600F0B8F907
S3156002B9700FF2B82001900FF2A82000900023012256
S3156002B980052104F1240000F0ABF904F14800BDE89A
S3156002B990164000F0A5B995480068704770B5934E99
S3156002B9A03568F8F74BF90446AC4201D1002070BD08
S3156002B9B0002C09D03068002801D0F8F7DFF943215E
S3156002B9C02046F8F769F93460284670BD18B4874A8C
S3156002B9D01468002C02D112BC13F0CBB80B46024697
S3156002B9E00021204601B010BCF8F732BA38B50546D8
S3156002B9F000247F4800F074F900E0641C202C0BDA06
S3156002BA0069680FF2342000F06BF910F04AFF29469C
S3156002BA10FFF768FF0028F0D070A000F061F90020FF
S3156002BA2032BDE0B5002808D06946FFF745FF002819
S3156002BA3005D16846FFF7DAFF0EBD6FF039000EBD1D
S3156002BA407CB50D46022810D06A4C012808D110F048
S3156002BA5028FF0146204600F043F900F05BF973BD0A
S3156002BA6004F1740000F03CF973BD0022694668680F
S3156002BA7012F04AFF044669680098884204D100BF02
S3156002BA806FA000F02DF973BD002C10D0264630460B
S3156002BA9004F07EF901280AD16B6822464FEA060154
S3156002BAA06CA000F01DF93046FFF7BBFF73BD21465F
S3156002BAB070A000F015F973BD5FF0010272A14F48E4
S3156002BAC0FEF78BBE80B510F0ECFE002806D04FF074
S3156002BAD0FF314A48BDE80440FFF7EEB8002002BDD8
S3156002BAE080B5002800F007804FF42C720FF2A01187
S3156002BAF06BA000F059F810F0D4FE002804D03F483D
S3156002BB00BDE80240FFF7DAB801BD002803D03A4B20
S3156002BB10DB685B6A0360002903D03748C068806AC5
S3156002BB200860002A03D03448C068C06A1060704753
S3156002BB3038B505460C46ED1DED08ED00E408E40057
S3156002BB40A54206D340F20D320FF264115EA000F0F8
S3156002BB502BF8641B224629464BA000F0CDFE2649EF
S3156002BB60C860BDE83140A7E7002801D100207047D0
S3156002BB702349020604D000F0FF00085C401C7047AF
S3156002BB8010F47F4F04D0C0F30720085C0930704779
S3156002BB9010F47F0F04D0C0F30740085C1130704781
S3156002BBA0000E085C193070471CB5134600228DF8EA
S3156002BBB00020144A1468002C0BD10A46014612482A
S3156002BBC000F08EF800F0A6F89DF80000002802D179
S3156002BBD0FAE71A46A04713BD000000000A000000FB
S3156002BBE04CF40110488D0210581C02104C8D021044
S3156002BBF0CC1C0210F81C0210508F0210648F0210C7
S3156002BC00CC1D0210A08F0210941D021045554E4B9A
S3156002BC104E4F57000A205C207C202F0A000000004D
S3156002BC204E6F7620323620323032340031353A3039
S3156002BC30323A303400000000203078256C780000FB
S3156002BC40496E76616C696420696E7075743A2025F6
S3156002BC50730A00006261636B7472616365202573A7
S3156002BC60283078256C78292C2066726F6D202573B2
S3156002BC700A000000496E76616C6964207069643AF4
S3156002BC8020256C640A00000068656170000000008F
S3156002BC905F686561705F756E6C6F636B0000000054
S3156002BCA06C6576656C203D3D2052545F454F4B0076
S3156002BCB05F72745F73797374656D5F686561705F77
S3156002BCC0696E697400000000656E645F616C696725
S3156002BCD06E203E20626567696E5F616C69676E00A1
S3156002BCE00EB478B5024605AB094E40F2FF14214602
S3156002BCF0304600F075F90546A54200D92546294623
S3156002BD003046FFF763FE284672BC5DF810FB00BF43
S3156002BD10508D021080B503490348FFF7E1FF6FF0CB
S3156002BD20490002BD441F0210541F02107CB504462E
S3156002BD30FFF7C8FE0546084E2146F06800F024FE6D
S3156002BD4000902846FFF7CCFE3268002A02D02146D0
S3156002BD5068469047009876BD508F021011B581B043
S3156002BD6009480168002901D001A88847019800287E
S3156002BD7008D0FFF7A7FE0446019800F0BDFE2046F4
S3156002BD80FFF7AEFE13BD00BF608F02100368B3FB00
S3156002BD90F1F201FB1231026008467047014600204B
S3156002BDA007E0531C0B6000EB8003107800EB430046
S3156002BDB030380A681378303B0A2BF2D370472DE984
S3156002BDC0F54F89B08B469846159F179D0024202112
S3156002BDD0224601A812F0B2EC16980090A1466806B7
S3156002BDE002D50FF2E81A01E00FF2CC1AE80601D585
S3156002BDF025F00105E80701D5302600E02026A807D0
S3156002BE0026D514984C280FD0682802D06C280BD0FF
S3156002BE100EE00AA8B0F9000000280FD52D240A9872
S3156002BE20404280B20A9009E00A98002806D502E0EC
S3156002BE300A98002802D52D2440420A9020462D28D1
S3156002BE4006D0680701D52B2402E0280700D52024F6
S3156002BE50A8060BD5B8F1020F02D0B8F1100F01D1C6
S3156002BE60BF1E03E0B8F1080F00D17F1E0A980028B2
S3156002BE7010D130208DF804004FF001090DE04146E3
S3156002BE800AA8FFF783FF1AF8000001A901F8090062
S3156002BE9009F101090A980028F1D11698814500DB5B
S3156002BEA048463F1A099915F0110F0ED1220008D0A3
S3156002BEB0002F06DD7F1E04E0594501D220220A705A
S3156002BEC0491C3A46571E002AF6DC220004D0594520
S3156002BED000D20C707F1E491CAA0625D5B8F1020F46
S3156002BEE009D1594501D230220A70491C59451AD2E4
S3156002BEF062220A7017E0B8F1080F04D1594512D2CE
S3156002BF0030220A700FE0B8F1100F0DD1594501D2F7
S3156002BF1030220A70491C594505D26A0601D5582253
S3156002BF2000E078220A70491CEA0608D43A46571E8F
S3156002BF30002A04DD594500D20E70491CF6E7024616
S3156002BF40501E91450CDA594501D230220A70491CBD
S3156002BF50F5E7594503D201A810F809000870491C93
S3156002BF604846A0F10109002802DD00980028F0D1B8
S3156002BF703846471E002805DD594501D22020087043
S3156002BF80491CF5E708460BB0BDE8F08F08B400B56A
S3156002BF9001AB00F025F85DF808FB13460A464FF040
S3156002BFA0FF3100F01DB80CB480B502AAFFF7F5FFA9
S3156002BFB002BC5DF80CFB0000303132333435363763
S3156002BFC0383961626364656600000000303132337D
S3156002BFD0343536373839414243444546000000001D
S3156002BFE02DE9F44F84B00C469946054606198246F9
S3156002BFF0564514D24FF0FF363446A4EB0A040EE0DF
S3156002C00003970292CDF80480CDF800C0024631460D
S3156002C0102846FFF7D4FE05460498401C049004980F
S3156002C0200078002800F05681252804D0B54280F0B9
S3156002C030328128702FE1002701E047F0100704984B
S3156002C040401C049000782D28F7D02B2802D147F0A7
S3156002C0500407F4E7202802D147F00807EFE7232810
S3156002C06002D147F02007EAE7302802D147F00107FC
S3156002C070E5E74FF0FF3BD846014630390A2904D23C
S3156002C08004A8FFF78BFE80460DE02A280BD10498A0
S3156002C090401C049059F8048BB8F1000F03D5C8F11F
S3156002C0A0000847F010075A46049800782E2816D1E1
S3156002C0B00498401C04900178084630380A2804D255
S3156002C0C004A8FFF76BFE024606E02A2904D104980B
S3156002C0D0401C049059F8042B002A00D500224FF028
S3156002C0E0000C04980078682803D06C2801D07A285E
S3156002C0F00FD184460498411C0491BCF1680F08D1A3
S3156002C10008460078682804D14FF0480C0846411C5E
S3156002C11004910A2304980178253900F09080203929
S3156002C120022940F2A580133900F09B800A3900F09B
S3156002C1308B80491E16D0491E00F09780491E02293F
S3156002C14040F29680091F00F09080891F00F0878078
S3156002C150491E5ED0C91E25D0891E76D0C91E00F042
S3156002C16082808BE0F8060AD4202003E0B54200D232
S3156002C17028706D1CA8F10108B8F1000FF6DC59F8B9
S3156002C180041B3046854200D229706D1C2021A8F11D
S3156002C1900108B8F1000F7FF73FAF854200D22970E0
S3156002C1A06D1CF4E759F8041B002900D1524900239B
S3156002C1B000E05B1C434502D0C85C0028F9D1002A26
S3156002C1C003DD9A4200DD1A461346F8060AD404E0F5
S3156002C1D0B54201D2202028706D1C4046A0F10108AC
S3156002C1E08342F5DB002006E0B54201D20A782A7066
S3156002C1F06D1C491C401C9842F6DB4046A0F10108C2
S3156002C2008342BFF609AFB54201D2202028706D1C69
S3156002C210F3E718F1010F02D1984647F0210759F862
S3156002C220040B03970292CDF80480CDF800C0102368
S3156002C230024631462846FFF7C2FD0546ECE6B542A0
S3156002C24029D22520287026E00223BCF14C0F28D182
S3156002C25009F1070929F00709F9E80201D0E608237E
S3156002C260F3E747F040071023EFE747F00207ECE7F2
S3156002C27009F1070020F0070000F1080931468D42F6
S3156002C28001D2252028706D1C04980078002804D0FD
S3156002C2908D4200D228706D1CBEE60498401E049042
S3156002C2A0BAE6BCF16C0F02D159F8040BA8E6BCF1F0
S3156002C2B0480F03D159F8040B40B2A1E6BCF1680FEE
S3156002C2C059F8040B7FF49CAE80B2B9077FF598AE3D
S3156002C2D000B295E62846002C07D0B04202D2002171
S3156002C2E0297002E0002106F8011CA0EB0A0A5046FA
S3156002C2F005B0BDE8F08F00BF6C1F021030B44A88EB
S3156002C300531C1D468C88ADB2A54200D100230D8810
S3156002C3101C46A4B2A54201D1072004E001EB8202C9
S3156002C32090604B80002030BC704701460A8848887E
S3156002C33082420CD0104601EB80008068521C0A8053
S3156002C3408B8892B29A4203D100220A8070470020FB
S3156002C350704710B5DFF80005242141804FF48071E3
S3156002C36001804FF480518180C180DFF8F044002063
S3156002C370A087E0870A20A4F840000020208160811F
S3156002C3800A20A081002020670120F9F7EBFC00203B
S3156002C390A0676067E067E070DFF8C404016891F83F
S3156002C3A00F0800F0FD0081F80F080020A070607091
S3156002C3B02070A0712071607110BD70B50024204696
S3156002C3C0F9F795FEDFF89064418871800088B08045
S3156002C3D00120F9F78CFE418831800288F280B088AC
S3156002C3E07388C3189A4204DA5118884201DA162011
S3156002C3F070BD2046F9F7A2FE0120F9F79FFEDFF82D
S3156002C4005C54708812F0BDFC286700280DD10120AB
S3156002C410E8710A2012F0B5FC2867002800D10224D0
S3156002C42012F0B1FC0020286705E02146E97112F09E
S3156002C430AAFC20462867204670BD38B5DFF81C5432
S3156002C4400020A870F9F763FE0120F9F760FEA86F75
S3156002C450002801D012F097FCE86F002804D0A96F7B
S3156002C460884201D012F08FFC686F002807D0A96F4E
S3156002C470884204D0E96F884201D012F084FC08F049
S3156002C480F5FF0020F9F76EFC00202867A867686749
S3156002C490E867E870DFF8C803016891F80F0800F0F2
S3156002C4A0FD0081F80F08002068702870A871287155
S3156002C4B0687105F13C00FFF738FF040001D012F005
S3156002C4C062FC002CF5D105F10800FFF72EFF04008F
S3156002C4D001D012F058FC002CF5D131BD417901F042
S3156002C4E00F01022903D0032903D1F9F703BCF9F737
S3156002C4F04FBC0220704710B5044660790009228855
S3156002C50040F201118A420EDB04202080607900F03D
S3156002C510F00060710120E080082020810021204621
S3156002C520BDE8104075E0DFF83423002802D01179A7
S3156002C530884215D0107102F13C012046FFF7DEFEFB
S3156002C540002812D004212180617901F0F001617125
S3156002C5500121E180208100212046BDE8104058E09B
S3156002C5602046BDE8104012F00EBC10BD10B5BB4CA3
S3156002C57000206070A06F002807D0E16F002904D107
S3156002C580616F814201D012F0FEFB606FA067E06FBF
S3156002C590002804D000F0DCF80020E06707E004F130
S3156002C5A00800FFF7C2FE002801D000F0D1F8A0799A
S3156002C5B000280DD081070BD500F0FD00A071206F19
S3156002C5C0F9F7ACFB002803D0A07940F00200A07115
S3156002C5D010BD38B5A14DAC6F002C14D06878002818
S3156002C5E00CD0E86F002809D10120F9F790FD686F39
S3156002C5F0E8670120F9F7A2FD00206870204600F086
S3156002C600A7F80020A867E878401E8041C00FE8704E
S3156002C61031BDF8B507460C4600259248007800F011
S3156002C6200F00012801D1F020F2BD787900F00F00E9
S3156002C63078718A4E707910F0070F01D101207071FE
S3156002C6407979707941EA00117971384600F080F89B
S3156002C65000280DD006F108013846FFF74FFE0500A7
S3156002C66002D044F0800406E07079401C707102E0EA
S3156002C6707079401C7071200604D5B07904F07F048D
S3156002C6800443B4712846F2BD2DE9FC41724D744FE4
S3156002C6903868A98821F0010130F801806F4EF0797F
S3156002C6A0012819D10A2012F06CFB040014D0002272
S3156002C6B00A2112F044E804202080607900F0F0003C
S3156002C6C060710120E0800720208100212046FFF76B
S3156002C6D0A0FF204612F057FB08F106087178B07980
S3156002C6E0014302D00120307030E00020307068884B
S3156002C6F004461FFA88F8444500D9444612F041FBC5
S3156002C7003067002802D1012030701FE022463B6864
S3156002C710A988194411F0D8EE00208DF80000386817
S3156002C72090F805188DF800109DF80010090709D5D4
S3156002C7304D4900220A70AA886B889A18104410F82C
S3156002C740010C0870306FBDE8F641D4E6BDE8F381AE
S3156002C7502DE9FC4104464348007800F00F000128A9
S3156002C76003D03E4DA878002801D1F02043E06878D6
S3156002C770002801D007203EE02288374EF388D11880
S3156002C780891D89B23088C3185B1E9BB2364F002062
S3156002C7903870DFF8CC8005E097F800C000F801C079
S3156002C7A0491C89B2D8F800009942F5DB921D2146F0
S3156002C7B0F388184411F088EE00208DF80000D8F84E
S3156002C7C0000090F80D188DF800109DF8001009070A
S3156002C7D008D400213970F1883288511808443978B2
S3156002C7E000F8011C686F002801D0002028676C677A
S3156002C7F0012068700020BDE8F68170B5174D0026ED
S3156002C80005F13C00FFF791FD040002D0FFF766FEDA
S3156002C810064630000CD004202080607900F0F000DB
S3156002C82060710120E080268100212046FFF7F1FE3B
S3156002C830002CE4D12878002801D0FFF725FFA879DB
S3156002C840002808D0010706D500F0F700A871BDE8F8
S3156002C8507040F9F7F7BB70BDC02C0310A48F0210AD
S3156002C860002603108E2C0310902C031070B504461C
S3156002C8700D462E46206B864206D27C220FF27C3112
S3156002C880DFF85403FFF790F9606B864206D37D2288
S3156002C8900FF26831DFF84403FFF786F9216B6868A7
S3156002C8A00844854212D00178C9070FD4616B884269
S3156002C8B00CD0A16B814200D1A56300210160416861
S3156002C8C06960216B761A406808448660206BA968A5
S3156002C8D00844A8420FD00178C9070CD4A16BA942BB
S3156002C8E000D1A0630021296069684160216B401A0A
S3156002C8F06A681144886070BDF8B50446CD1DED08BE
S3156002C900ED0005F14003DE1DF608F6005218D70861
S3156002C910FF00212F31D3A7F1200098422DD3BF1BF0
S3156002C920203F40220021284612F045F922460C217A
S3156002C930284603F017F90FF2D020E8612E626F6283
S3156002C940EF632E63680840003060E86B10307060F9
S3156002C9500020B060286B71680144696345F001008C
S3156002C9600860E96B1031686B4160E96B1031686B86
S3156002C9708160286BA8632846F2BDDFF86402FFF780
S3156002C980AFF90020F2BD0000F8B504460D0000F0D4
S3156002C990B080002C07D14FF48C720FF284210FF213
S3156002C9A07020FFF701F9204603F0F2F90C2807D050
S3156002C9B040F219120FF26821DFF82802FFF7F4F845
S3156002C9C0204603F0D1F9002807D14FF48D720FF299
S3156002C9D05021DFF81402FFF7E7F8ED1DED08ED00D0
S3156002C9E0102D00D21025E06BA842C0F08280A16BA8
S3156002C9F0206B091A00E01146E06B401B884278D32F
S3156002CA00206B461872683378DB07F4D4571A103FE6
S3156002CA10AF42F0D3234605F1200C67451DD36A1851
S3156002CA20104410305F087F00076077684760816056
S3156002CA30103272604068A0F11007E16B8F4202D03B
S3156002CA40216B08448260A06A28181030A062E16AED
S3156002CA50884200D20846E0620AE0A16A5218921B36
S3156002CA608218A2621046E16A884200D20846E062F3
S3156002CA7043F001033360A06B864215D103E0216B5C
S3156002CA8040680844A063A06B0368616BDA0701D54E
S3156002CA908842F4D1884207D0D80705D540F275128C
S3156002CAA05FA15248FFF780F8606BAD191035A84256
S3156002CAB080F0068040F2771259A14D48FFF774F86C
S3156002CAC006F1100010F0070F00F006804FF4BC72FA
S3156002CAD053A14848FFF768F816F0070000F0068091
S3156002CAE040F279124EA14448FFF75EF806F1100053
S3156002CAF0F2BD0020F2BD00002DE9F041040069D0CC
S3156002CB00384F0FF22C1814F0070006D040F2F912D3
S3156002CB10414607F5C070FFF747F8A4F1100635687D
S3156002CB206D086D0005D140F2FF12414644A0FFF741
S3156002CB303BF83078C00706D44FF400724FEA08011A
S3156002CB4045A0FFF731F8284603F022F90C2806D0F3
S3156002CB5040F20122414607F50870FFF725F828469C
S3156002CB6003F002F9002806D140F20222414607F597
S3156002CB701A70FFF719F8286B844202D3686B8442F5
S3156002CB8006D34FF40172414607F52870FFF70CF899
S3156002CB90296B7068085840084000A84206D040F2E7
S3156002CBA00522414607F54570FEF7FEFF680840001C
S3156002CBB030603146A86B814200D2AE63AA6A706861
S3156002CBC0121A8918286B091AA96231462846BDE8E5
S3156002CBD0F0414BE6BDE8F081741F0210981F021007
S3156002CBE0C81F0210042002104020021068200210A2
S3156002CBF0B82002100821021054210210706C756769
S3156002CC005F686F6C65730000736D616C6C00000029
S3156002CC106D20213D2052545F4E554C4C0000000061
S3156002CC2072745F736D656D5F616C6C6F630000003B
S3156002CC3072745F736D656D5F667265650000000094
S3156002CC40736D616C6C5F6D656D20213D2052545F22
S3156002CC504E554C4C000000004D454D5F49535553AF
S3156002CC604544286D656D2900DFF800F03CE7011048
S3156002CC70F8B5A0B00C46A188084400F11C05002650
S3156002CC80864F15E0304680B2285CCD280FD06846C4
S3156002CC903946802211F02AEC2168684612F014F9AE
S3156002CCA0FFF71EF88A2107F1BC000BF0BBFD761C6C
S3156002CCB0304680B21028E5D321B0F0BD70B5A0B081
S3156002CCC004460D46002615E0304680B22044007BBD
S3156002CCD0CD280ED068467249802211F008EC296888
S3156002CCE0684612F0F1F8FEF7FBFFA5216D480BF0DE
S3156002CCF099FD761C304680B21028E5D320B070BD0F
S3156002CD0038B504460D46CD22102104F10C0011F00F
S3156002CD10B4ECCD221021A88820441C30BDE83840EE
S3156002CD20FFF7A2BF70B504460021E0680160A568FE
S3156002CD30ED1CAD08AD000E460DE0E06800682860A7
S3156002CD40E068056021462846FFF7DAFFA088284496
S3156002CD5000F12C05761CE0888642EEDB70BD10B5CC
S3156002CD60002409E04D49204680B201EB8000D0F8EC
S3156002CD708000FFF7D7FF641C204680B20F28F1D3EC
S3156002CD8010BD2DE9F04106460F4690460BF045FD73
S3156002CD900546F0680468002C23D031462046FFF72A
S3156002CDA067FF31462046FFF789FF2068F168086011
S3156002CDB0002020606760C4F8088014F003000AD07F
S3156002CDC0364E06F5A070FEF78BFF40F2491106F16A
S3156002CDD0BC000BF027FD28460BF021FD04F11C0078
S3156002CDE003E028460BF01BFD0020BDE8F081000041
S3156002CDF010B52A4C0F280ADB2BA0FEF771FF40F212
S3156002CE00871104F1BC000BF00DFD002010BD04EB90
S3156002CE108000D0F88000BDE81040B2E7F8B505465C
S3156002CE200C4614F0030007D027A0FEF759FF40F224
S3156002CE309D111C480BF0F6FC0BF0EFFC0646A4F1C4
S3156002CE401C0729463846FFF713FF29463846FFF77F
S3156002CE5035FFE868006844F81C0CE86807603046ED
S3156002CE60BDE8F2400BF0DBBC80B50F280ADB00BFE1
S3156002CE701DA0FEF735FF40F2DB110A48BDE804400B
S3156002CE800BF0D0BC002907D0044A02EB8000D0F830
S3156002CE908000BDE80440C1E701BD0000F82302102E
S3156002CEA04C260210B42402106D656D705F6D616C64
S3156002CEB06C6F633A2074797065203C204D454D5005
S3156002CEC05F4D4158000000006D656D705F6672656A
S3156002CED0653A206D656D2070726F7065726C79202F
S3156002CEE0616C69676E6564006D656D705F667265BB
S3156002CEF0653A2074797065203C204D454D505F4DF2
S3156002CF0041580000DFF800F0C4E9011010B50FF2D5
S3156002CF10B440FEF7E5FEDFF8E803046806E06268FF
S3156002CF2021680FF2BC40FEF7DBFE1034DFF8D40353
S3156002CF3000688442F3D3AEA0FEF7D2FE002010BD95
S3156002CF4080B5F5F76AFC002002BDE0B500200190CD
S3156002CF500090029002AA694601A811F01BFE01998F
S3156002CF600FF28840FEF7BCFE00990FF29040FEF782
S3156002CF70B7FE02990FF29440FEF7B2FE019900984D
S3156002CF80091A0FF29840FEF7ABFE00200EBD70B58F
S3156002CF90144600231D4613E05C2A04D14278222AF5
S3156002CFA001D1401C5B1C401C5B1C0278222A01D00A
S3156002CFB08B42F1D38B423FD2002200F8012B5B1CDD
S3156002CFC08B4239D2002202E000F8012B5B1C067804
S3156002CFD0202E01D0092E01D18B42F5D30A2D11D311
S3156002CFE00FF24840FEF77CFE002605E054F8261054
S3156002CFF092A0FEF775FE761CAE42F7D37CA0FEF7D2
S3156002D0006FFE19E08B4217D26A1C222E05D1401C94
S3156002D0105B1C44F825001546C7E744F8250015460B
S3156002D02001E0401C5B1C0278202A03D0092A01D049
S3156002D0308B42F6D38B42C3D3284670BDF8B50446FD
S3156002D0400D460026AE48076800E01037AD48006816
S3156002D05087420BD22A462146386811F0B9FE00286B
S3156002D060F3D13868405D0028EFD1FE683046F2BDE4
S3156002D070F8B58AB005460F4614460026002D06D13D
S3156002D0804FF489720FF2C4319AA0FEF78DFD002C1F
S3156002D09009D140F213120FF2B4310FF2C030FEF72B
S3156002D0A083FD00E0761CBE4204D2A85D202801D032
S3156002D0B00928F7D1002E02D16FF0FE001BE031463F
S3156002D0C02846FFF7BBFF060002D16FF0FE0012E0B2
S3156002D0D028220021684611F06EFD6A4639462846C6
S3156002D0E0FFF755FF002802D16FF0FE0003E06946A4
S3156002D0F0B047206000200BB0F0BD1CB5044600208E
S3156002D100009001E0641C491E002904D02078202882
S3156002D110F8D00928F6D0002901D1002016BD6A464A
S3156002D1202046FFF7A5FF002801D1009816BD2146CB
S3156002D13000E0491C0878202801D00028F9D1002097
S3156002D140087021460FF21C30FEF7CAFD4FF0FF3021
S3156002D15016BD10B4044601E0641C491C2378002BFA
S3156002D16004D00A78002A01D09342F5D0201A10BC66
S3156002D17070472DE9F041064600242546307800289E
S3156002D18004D121460846BDE8F041BFE65C4807681F
S3156002D1901EE0D7F80080304611F044EA0246414666
S3156002D1A0304611F015FE002811D1002C04D14546F7
S3156002D1B0284611F038EA044641462846FFF7C9FF79
S3156002D1C0A04200DC044641464BA0FEF789FD1037BB
S3156002D1D04C4800688742DCD3002D06D02246294699
S3156002D1E03046BDE8F04111F06EBDBDE8F081000049
S3156002D1F00A000000F8B505460026202111F0CEE9A6
S3156002D200040001D0641B03E0284611F00CEA0446D0
S3156002D2103B48076800E010373A48006887420BD2FD
S3156002D22022462946386811F0D3FD0028F3D13868C2
S3156002D230005D0028EFD1BE683046F2BD257320003E
S3156002D240034600200AE0202A07D15A78002A04D031
S3156002D250202A02D05A1C0A60401C5B1C1A78002ADB
S3156002D260F1D170472DE9F04180460E4600252C46E5
S3156002D27011F0D8E9074619E03A464146706811F05E
S3156002D280A7FD002811D1002C04D17568284611F03B
S3156002D290CAE9044671682846FFF75BFFA04200DCD4
S3156002D2A00446716814A0FEF71BFD0C363068002830
S3156002D2B0E2D112A0FEF714FD002D06D022462946C1
S3156002D2C04046BDE8F041FFF71DBEBDE8F0810000B3
S3156002D2D010B5044606E0A268D4F8041040A0FEF732
S3156002D2E0FFFC0C3420680028F5D104A0BDE810408C
S3156002D2F0FEF7F6BC636D640025730A000A0000003F
S3156002D30040280310442803107CB50646002000908E
S3156002D310054669463046FFF793FF0400304603D060
S3156002D320FFF768FF054613E011F07CE901463046D7
S3156002D330FFF784FE00280BD1304611F074E93044C1
S3156002D34010F8010C202803D13046FFF753FF05463B
S3156002D350002D0FD0286800280CD0002C02D0012C9A
S3156002D36004D073BD2846FFF7B3FF73BD2946009804
S3156002D370FFF778FF73BDF8B507460D4614460026DB
S3156002D38000E00C34022F0BDB002C09D02068002849
S3156002D39006D06968606811F0C6EA0028F1D126688D
S3156002D3A03046F2BD10B5044606E0A268D4F8041011
S3156002D3B032A0FEF795FC0C34002C02D020680028BF
S3156002D3C0F3D110BD52542D5468726561642073683E
S3156002D3D0656C6C20636F6D6D616E64733A0A0000F2
S3156002D3E0252D313673202D2025730A00746F7461E2
S3156002D3F06C202020203A2025640A0000757365643B
S3156002D40020202020203A2025640A00006D61786978
S3156002D4106D756D20203A2025640A00006176616987
S3156002D4206C61626C653A2025640A0000546F6F2055
S3156002D4306D616E7920617267732021205765206F56
S3156002D4406E6C79205573653A0A0000005F6D7368E9
S3156002D4505F657865635F636D640000007265747012
S3156002D4600000000025733A20636F6D6D616E642063
S3156002D4706E6F7420666F756E642E0A0020202020FF
S3156002D480252D313673202D2025730A0010B5040030
S3156002D4900DD02068002804D002F07DFF0020606075
S3156002D4A0206021460520BDE81040FFF7DDBC10BDB7
S3156002D4B010B5040009D100BF1FA0FEF711FC81213F
S3156002D4C01C48BDE810400BF0ADB92068002801D0B9
S3156002D4D002F061FF00206060206010BD70B50446F6
S3156002D4E00E461546002C09D11AA0FEF7F9FB9521C6
S3156002D4F010480BF097F96FF00F0070BD2068002896
S3156002D50001D002F048FF02220021084602F036FDF1
S3156002D5102060002804D1002060604FF0FF3070BDAB
S3156002D52046602068058121680889488120686060B4
S3156002D530002070BDCC2602106E65746275665F66E9
S3156002D5407265653A20696E76616C69642062756699
S3156002D550000000006E65746275665F7265663A20E9
S3156002D560696E76616C696420627566007CB5044694
S3156002D5709C4D05F580766946F3F791F9002803D04C
S3156002D580D2207062002076BD009905F58270016036
S3156002D590F061002030624FF480722146284611F015
S3156002D5A012EA00203070B560B06205F59470F060E2
S3156002D5B0022030610420706105F58E70B06105F558
S3156002D5C0847076BD2DE9FC4704460D4690469A4620
S3156002D5D00B9E002E00D16E460A9F002F08D00020B7
S3156002D5E03860002C04D0002D02D0B8F1000F04D1AF
S3156002D5F03A2030604FF0FF3040E0204611F012E8EA
S3156002D600814609F11400824504D2222030604FF02F
S3156002D610FF3033E008F103084FEA98084FEA8808BA
S3156002D62008F108012046F3F73AF9002804D0D2201F
S3156002D63030604FF0FF3021E04A46214608F1100083
S3156002D64011F0E6FA002108F1100000F8091008F15D
S3156002D6500800C8F800000846C8F80400C8F80C00BC
S3156002D66008F11000286008F10C0068600220A860CA
S3156002D6700420E860C5F810803D600846BDE8F6877C
S3156002D68010B5010004E0CC690C20FFF7EDFB210028
S3156002D690F9D110BD2DE9FC47044615461E464FF0EA
S3156002D6A00009C846002E48D040463060002C01D1A1
S3156002D6B0002923D0002D06D06868002803D00228EE
S3156002D6C001D0CC208CE000290BD0084611F017F966
S3156002D6D08146A9F101004FF6FF71884201D3C92044
S3156002D6E07EE0002C13D0002D0AD02878400707D59B
S3156002D6F069462046FCF7ECFB002812D1C8206FE091
S3156002D70069462046F3F7CBF8002816D109E0002DCA
S3156002D71005D02878C00702D54046009001E032481D
S3156002D72000904FF0300A002C16D0204610F07AEFA7
S3156002D730804640F20110804501D3CA2050E008F1CC
S3156002D740310ABAF1310F07D229A0FEF7C9FA4FF4AE
S3156002D750B37126480BF066F8244FBAF5997F08D361
S3156002D76007F18400FEF7BCFA40F26B1138460BF003
S3156002D77059F84FF4B67239460C20FFF739FB0700A9
S3156002D78001D1CB202CE00022514610F076EF0098B2
S3156002D7907862022087F82100102087F82000484628
S3156002D7A080B2F6F7FDF9788402207860002D03D006
S3156002D7B0A868B860E868F860002C0AD007F1300003
S3156002D7C0B8614246214611F023FA0020B96901F890
S3156002D7D008001020386107F1200078613760002068
S3156002D7E0BDE8F6879C2303107F00000174270210B0
S3156002D7F06E616D656C656E20697320746F6F206CE7
S3156002D8006F6E670000210160704700E01046026893
S3156002D810002AFBD1016000200860704700687047EB
S3156002D820F4F77CBF0846F4F77DBF000078B585B093
S3156002D83004460D461646002C05D13E2237A10FF24C
S3156002D8406840FEF7B1F9002D05D13F220FF2CC01F7
S3156002D85036A0FEF7A9F9618E4FF67A6001406186BD
S3156002D86000206061A061E061014606E000200A4690
S3156002D87092B204EB82021062491C084680B2022808
S3156002D880F4D30020E0632064284611F054FA10288D
S3156002D89017D900221121684610F0EEEE10222946B1
S3156002D8A0684611F010FA0FF2B030FEF719FA6A46BE
S3156002D8B02946DFF86408FEF713FA0FF2B030FEF776
S3156002D8C00FFA10222946201D11F0FDF9A6642046A2
S3156002D8D0FFF798FFDFF8B05805F11000FFF7A0FFD9
S3156002D8E006462868002801D12C6002E02146FFF72F
S3156002D8F08CFF314605F11000FFF794FF6868002837
S3156002D90002D1286800F074F8AA68002A02D00C21B5
S3156002D91020469047002006B070BD00006E657464B4
S3156002D92065765F7265676973746572006E616D654F
S3156002D93000000000F8B50546DFF84C68306800283C
S3156002D94001D10020F2BD06F11000FFF769FF07461C
S3156002D950346803E02046FFF761FF0446002C0AD0D4
S3156002D960F8D0608E2842F5D0394606F11000FFF7EE
S3156002D97059FF2046F2BD394606F11000FFF752FF05
S3156002D9800020F2BDF8B50546DFF8FC67306800286E
S3156002D99001D10020F2BD06F11000FFF741FF0746F4
S3156002D9A0346803E02046FFF739FF0446002C18D09E
S3156002D9B0F8D0284611F0BFF9102804D2284611F093
S3156002D9C0BAF9024600E010222946201D11F090F9AC
S3156002D9D00028E7D1394606F11000FFF723FF2046FB
S3156002D9E0F2BD394606F11000FFF71CFF0020F2BDBA
S3156002D9F038B5040015D0DFF890576868844210D0B5
S3156002DA006C60A06B002804D0C169002901D0204651
S3156002DA108847EA68002A04D00D212046BDE83840CE
S3156002DA20104731BD70B504460D46002C40F00780A4
S3156002DA3040F229221EA10FF27020FEF7B5F8002DE2
S3156002DA4040F0078040F22A2219A10FF2AC20FEF7BD
S3156002DA50ABF8A06B002802D08668002E0FD10FF2B9
S3156002DA60F810FEF73DF9211DDFF87C0AFEF738F95A
S3156002DA700FF2F810FEF734F96FF0FE0070BD608E9B
S3156002DA80C0050FD50FF2D010FEF72AF9211DDFF877
S3156002DA905C0AFEF725F90FF2D410FEF721F96FF052
S3156002DAA0FE0070BD00231A4629462046B04770BD67
S3156002DAB06E65746465765F7365745F69706164646C
S3156002DAC07200000070B504460D46002C07D140F284
S3156002DAD04F220FF690210FF2D010FEF765F8002D57
S3156002DAE007D14FF414720FF67C210FF68C20FEF7E5
S3156002DAF05BF8A06B002802D08668002E0ED100BFAC
S3156002DB0055A0FEF7EDF8211DDFF8E809FEF7E8F803
S3156002DB1056A0FEF7E5F86FF0FE0070BD608EC00598
S3156002DB200ED500BF4CA0FEF7DBF8211DDFF8CC094D
S3156002DB30FEF7D6F84DA0FEF7D3F86FF0FE0070BD83
S3156002DB4000232A4619462046B04770BD70B5044682
S3156002DB500D46002C40F0078040F26D220FF6202120
S3156002DB6051A0FEF721F8002D06D140F26E220FF683
S3156002DB7010218EA0FEF718F8A06B002802D08668E6
S3156002DB80002E0DD134A0FEF7ABF8211DDFF8700927
S3156002DB90FEF7A6F835A0FEF7A3F86FF0FE0070BD9B
S3156002DBA0608EC0050ED500BF2BA0FEF799F8211D29
S3156002DBB0DFF85009FEF794F82CA0FEF791F86FF0A3
S3156002DBC0FE0070BD2B46002211462046B04770BD4E
S3156002DBD070B504460E461546002C06D14FF42372E4
S3156002DBE00FF6AC1130A0FDF7DFFF002D07D140F232
S3156002DBF08D220FF69C110FF6B010FDF7D5FF304659
S3156002DC0002280FD314A0FEF76BF80222761C314667
S3156002DC10DFF8F408FEF764F814A0FEF761F86FF017
S3156002DC20FE0070BDA06B002802D0C368002B0DD128
S3156002DC3009A0FEF755F8211DDFF8D008FEF750F867
S3156002DC400AA0FEF74DF86FF0FE0070BD2A46314617
S3156002DC502046BDE8704018471B5B33316D5B452F2C
S3156002DC606E65746465765D20000000001B5B306D36
S3156002DC700A00000038B504460D46002C40F00780C5
S3156002DC8040F2A7220FF62C1107A0FDF78DFF2800A0
S3156002DC9007D14FF42A720FF61C110FF63410FDF7F6
S3156002DCA083FFE56331BD00006E65746465760000CE
S3156002DCB038B504460D0006D140F2C5220FF6201192
S3156002DCC00DA0FDF771FF002C15D0296860698842A6
S3156002DCD011D0616194F8320000F00500052802D186
S3156002DCE0204606F039FB226C002A04D00021204629
S3156002DCF0BDE83840104731BD69705F616464720087
S3156002DD0038B504460D0007D14FF439720FF6EC01AF
S3156002DD100FF66400FDF748FF002C1BD02968A06946
S3156002DD20884217D0A16194F8320000F005000528F8
S3156002DD3008D114F1140005D06069002802D020468B
S3156002DD4006F00AFB226C002A04D001212046BDE8B7
S3156002DD503840104731BD38B504460D0006D14FF440
S3156002DD6041720FF6B80111A0FDF71EFF002C1BD001
S3156002DD702968E069884217D0E16194F8320000F0C0
S3156002DD800500052808D114F1140005D06069002841
S3156002DD9002D0204606F0E0FA226C002A04D0022164
S3156002DDA02046BDE83840104731BD00006777000065
S3156002DDB070B504460E46150007D14FF44A720FF647
S3156002DDC074010FF2E470FDF7EFFE002C1CD0002107
S3156002DDD000E0491C012907D804F1200050F82120EF
S3156002DDE028688242F5D170BD304601280CD8296870
S3156002DDF004F1200040F82610226C002A04D0032188
S3156002DE002046BDE87040104770BD80B5DFF8001748
S3156002DE10496890F83220520706D591F832104907C0
S3156002DE200FD4BDE80240E3E54C2210F03DFF002826
S3156002DE3007D10420FFF77EFD002802D0BDE802402C
S3156002DE40D6E501BD38B505460C46002D1DD0698E56
S3156002DE5001F00100A04218D0002C03D041F001016C
S3156002DE60698606E04FF6FE70014069862846FFF72E
S3156002DE70CCFFEA6B002A08D0002C01D0042100E016
S3156002DE8005212846BDE83840104731BD38B50546FC
S3156002DE900C46002D2FD0698E0846C0B2800800F06D
S3156002DEA00100A04227D0002C0ED041F00401698601
S3156002DEB0C80714D515F1140011D0686900280ED070
S3156002DEC0284606F049FA0AE04FF6FB700140698679
S3156002DED04FF67F70014069862846FFF796FFEA6B28
S3156002DEE0002A08D0002C01D0062100E0072128462E
S3156002DEF0BDE83840104731BD002818D0438E1A4617
S3156002DF00D2B2D2098A4212D0002903D043F08003EA
S3156002DF10438603E04FF67F7213404386C26B002A44
S3156002DF2005D0002901D00821104709211047704702
S3156002DF30002819D0438E1A46120A02F001028A425A
S3156002DF4012D0002903D043F48073438603E04FF670
S3156002DF50FF6213404386C26B002A05D0002901D0B6
S3156002DF600A2110470B2110477047F8B5864D2C6879
S3156002DF70002C1FD1DFF89C05BDE8F240FDF7B0BE6C
S3156002DF8004EB8700203000F014FD024639460FF29A
S3156002DF90B070FDF7A5FE7F1C012FF1D92046FFF771
S3156002DFA03DFC002802D03046FDF79AFE2046FFF778
S3156002DFB035FC0446002C00F0AE806868844202D1CB
S3156002DFC00FF2906300E086A3221D1021DFF8480558
S3156002DFD0FDF786FE04F12806B1890FF28460FDF72B
S3156002DFE07FFE3078062810D10FF28060FDF778FE4A
S3156002DFF000273078874225D204F12900C15D0FF2ED
S3156002E0007460FDF76DFE7F1CF3E708281AD10FF2E4
S3156002E0106C60FDF765FE002710E072A0FDF760FEFA
S3156002E0200BE0E11991F829100A29F6DA401E8742B7
S3156002E030F3D00FF25060FDF753FE7F1C3078014635
S3156002E0408F42EED30FF24460FDF74AFEB07AC00704
S3156002E05003D565A0FDF744FE03E00FF23860FDF7D5
S3156002E0603FFEB07A400704D50FF23060FDF738FE06
S3156002E07003E00FF23460FDF733FEB07A000604D592
S3156002E0800FF23060FDF72CFE03E00FF23860FDF709
S3156002E09027FE7089C00504D50FF23860FDF720FEB1
S3156002E0A003E00FF24060FDF71BFEB07A000703D56E
S3156002E0B00FF24060FDF714FEB07A800703D50FF2C7
S3156002E0C03C60FDF70DFEB07A800603D50FF238602C
S3156002E0D0FDF706FEB9A63046FDF702FE04F114000E
S3156002E0E000F067FC01460FF22860FDF7F9FD04F1C6
S3156002E0F01C0000F05EFC01460FF22460FDF7F0FDA5
S3156002E10004F1180000F055FC01460FF22460FDF799
S3156002E110E7FD002740E7F1BD2C2802102DE9FC41FE
S3156002E12080460C4615461E46FFF72CFC070005D1B5
S3156002E1304146DFF8E803FDF7D3FD23E0002C09D062
S3156002E1406946204600F046FB002803D069463846F9
S3156002E150FFF768FC002D09D06946284600F03AFBB5
S3156002E160002803D069463846FFF7F0FC002E09D036
S3156002E1706946304600F02EFB002803D069463846D1
S3156002E180FFF7A0FCBDE8F381C824031010B50C4666
S3156002E190012802D1FFF7E9FE20E005281AD161685D
S3156002E1A00FF2B050FDF79CFDA1680FF2B850FDF773
S3156002E1B097FDE1680FF2BC50FDF792FD21690FF2FF
S3156002E1C0C450FDF78DFD2369E268A1686068FFF7B8
S3156002E1D0A5FF03E0DFF84803FDF782FD002010BDCE
S3156002E1E00000000025640000205550002DE9F04F24
S3156002E1F087B0054616461F460024A346002F00D167
S3156002E2002027002905D00846FFF7BCFB04464FF0DD
S3156002E210010B002C05D1BE484468211DC148FDF79B
S3156002E2205FFD002C0BD0A06B002808D04069002847
S3156002E23005D094F8320000F00500052824D00420A9
S3156002E240FFF778FB040005D1B748FDF749FD6FF08B
S3156002E250FE0095E0A06B002802D04069002806D136
S3156002E260211DB248FDF73CFD6FF0FE0088E094F890
S3156002E270320000F00500052806D0211DAC48FDF7E6
S3156002E2802FFD6FF0FE007BE0002006970746DFF861
S3156002E290948230E000F08DFB04990191BDF80E1076
S3156002E2A000913B460246BDF80C1008F59C70FDF7DE
S3156002E2B017FD10E0BDF80E00002802A8EAD100F0B2
S3156002E2C078FB049900913B460246BDF80C1008F5AE
S3156002E2D08670FDF705FDF4F7D3F9A0EB090940F264
S3156002E2E0E930814503D2B74201D04FF47A7A50467B
S3156002E2F00EF02EFC7F1CB74241D24FF0000A10226C
S3156002E300514602A810F057FCF4F7BAF98146CDF8E7
S3156002E31004B002A800904FF4FA63069A2946204692
S3156002E320D4F838C0DCF814C0E04710F1920F0DD172
S3156002E3300298002801D1284602E002A800F039FBC3
S3156002E3403A4601467B48FDF7CBFCC4E710F1FF0F66
S3156002E350B0D10298002801D1284602E002A800F056
S3156002E36028FB0299002902D10FF2404101E00FF227
S3156002E370444102460FF21C40FDF7B2FCABE70020B7
S3156002E38007B0BDE8F08F10B50C46012803D16A4884
S3156002E390FDF7A6FC10E0022806D1002304221946E6
S3156002E3A06068FFF723FF07E0032805D100230422F4
S3156002E3B0A1686068FFF71AFF002010BD0A0000001E
S3156002E3C070B5534D2C68002C19E004EB86002030A2
S3156002E3D000F0EFFA024631460FF26430FDF780FC38
S3156002E3E0761C012EF1D92046FFF718FA002802D0D2
S3156002E3F03FA0FDF775FC2046FFF710FA04000DD02A
S3156002E4006868844240F0028092A300E03AA3221D2B
S3156002E41010214148FDF764FC0026E2E770BDF8B5BD
S3156002E42007460D461646FFF7ADFA040004D1394693
S3156002E4303A48FDF755FCF1BD6946304600F0CAF927
S3156002E4406A4629462046FFF7C3FB002805D13346B4
S3156002E4502A4639463948FDF743FCF1BD10B50C46EC
S3156002E460012803D1FFF7ACFF002010BD032805D1B8
S3156002E470A26800216068FFF7D2FFF5E7042809D198
S3156002E480A06810F03CFAE2680146C9B26068FFF71C
S3156002E490C6FFE9E72A48FDF723FC4FF0FF3010BDBF
S3156002E4A010B500241A480068002806D12548BDE840
S3156002E4B01040FDF715BCFFF7B1F9002807D004003C
S3156002E4C0F9D0A16B0029F6D089690029F3D0A06B37
S3156002E4D08169002903D02046BDE8104008471A48E2
S3156002E4E0BDE81040FDF7FCBB6C280210AC28021098
S3156002E4F00A00000004290210000000004C290210E4
S3156002E500AC290210F4290210542A0210982A021029
S3156002E510C8240310E02A0210102B0210342B0210BA
S3156002E520942B0210DC2B0210182C0210502C0210B5
S3156002E530902C0210C42C0210442D02105C2B021087
S3156002E540782D0210B82D0210E82D021080B5012830
S3156002E55004D000BF99A0FDF7C3FB01E0FFF7A0FF5F
S3156002E560002002BD6E65746465765F7365745F6E66
S3156002E57065746D61736B00006E65746D61736B00BB
S3156002E5806E65746465765F7365745F6777000000B5
S3156002E5906E65746465765F7365745F646E735F736C
S3156002E5A06572766572000000646E735F736572767B
S3156002E5B0657200006E65746465765F7365745F7319
S3156002E5C074617475735F63616C6C6261636B000026
S3156002E5D07374617475735F63616C6C6261636B00A3
S3156002E5E06E65746465765F6C6F775F6C6576656C15
S3156002E5F05F7365745F697061646472006E6574648A
S3156002E60065765F6C6F775F6C6576656C5F736574F4
S3156002E6105F6E65746D61736B000000006E65746495
S3156002E62065765F6C6F775F6C6576656C5F736574D4
S3156002E6305F6777006E65746465765F6C6F775F6C33
S3156002E6406576656C5F7365745F646E735F736572BE
S3156002E65076657200202844656661756C74290000CF
S3156002E6604D54553A2025640A000000004D41433A54
S3156002E670200000002530327820000000494D4549CF
S3156002E6803A20000025303264000000000A464C4100
S3156002E69047533A0020444F574E000000204C494EE3
S3156002E6A04B5F555000000000204C494E4B5F444F73
S3156002E6B0574E000020494E5445524E45545F5550C0
S3156002E6C00000000020494E5445524E45545F444F67
S3156002E6D0574E000020444843505F454E41424C45E8
S3156002E6E00000000020444843505F44495341424C75
S3156002E6F04500000020455448415250002042524F86
S3156002E70041444341535400002049474D50000000A4
S3156002E710697020616464726573733A2025730A00B6
S3156002E720677720616464726573733A2025730A00A1
S3156002E7306E6574206D61736B20203A2025730A0022
S3156002E740646E7320736572766572202325643A203F
S3156002E75025730A00636F6E666967203A2025730A1D
S3156002E76000000000495020616464723A2025730AF1
S3156002E77000000000476174657761793A2025730A63
S3156002E780000000006E65746D61736B3A2025730A32
S3156002E7900000000070696E673A20756E6B6E6F7767
S3156002E7A06E2025732025730A00000000686F73745B
S3156002E7B0000000006164647265737300506C656189
S3156002E7C0736520696E7075743A206E6574737461D0
S3156002E7D074200A00F8B584B00C466A46017807E0F0
S3156002E7E003A98A4280F0808042F8045B10F8011F18
S3156002E7F0A1F130030A2B77D200250A26302911D1DE
S3156002E80010F8011F782901D0582903D1102610F873
S3156002E810011F07E0082605E0303906FB05110D46A3
S3156002E82010F8011FA1F130070A2FF5D3102E16D169
S3156002E830A1F161030A2F05D3062B03D3A1F1410788
S3156002E840062F0CD21A2B01D2612300E041230A3132
S3156002E850C91A41EA05110D4610F8011FE2E72E2991
S3156002E860BED000290BD0202909D00C2907D00A294D
S3156002E87005D00D2903D0092901D00B2934D1684668
S3156002E880121A9210521C042A38D8DFE802F02D3D83
S3156002E890030D1D00B5F1807F26D20098B0F5807F0A
S3156002E8A022D245EA00652FE0B5F5803F1CD200987A
S3156002E8B0B0F5807F18D20199B1F5807F14D245EA0E
S3156002E8C0006545EA01451FE0B5F5807F0CD20098E8
S3156002E8D0B0F5807F08D269464868B0F5807F03D27A
S3156002E8E08A68B2F5807F01D300201DE0009945EA6F
S3156002E8F0016545EA004545EA022505E05FF0A602A4
S3156002E9002FA12DA0FDF750F9002C0CD0290201F49D
S3156002E9107F0141EA05612846000A00F47F4001430F
S3156002E92041EA15612160012005B0F0BDFCB5002306
S3156002E930006800900C466E461D4607E0431C9042F6
S3156002E94030DA2E2004F8010B761C6D1C2846C0B204
S3156002E950042829DA4FF0000C30780A2790FBF7FE7C
S3156002E9600EEB8E07A0EB470086F800E001AF303071
S3156002E970E6465FFA8EFE07F80E000CF1010C30785F
S3156002E9800028E9D16046A0F1010CC0B20028184601
S3156002E990D4D0431C904205DA6046C0B2385C04F8B3
S3156002E9A0010BEFE70020F6BD002004F8010C0846D3
S3156002E9B0F6BD10220149B9E730000000E0240310D9
S3156002E9C06E65746465765F697034616464725F6192
S3156002E9D0746F6E0070472DE9F84F82460C46914679
S3156002E9E098460B9D280008D10FF2B820FDF778F9FA
S3156002E9F04FF48171604809F015FF0C9E0A9F002052
S3156002EA00CAF80400CAF80800CAF80C000AF12C0B0E
S3156002EA108BF81100024604210AF128000FF02CEE51
S3156002EA2003208BF800000020CAF81C00CAF82000F8
S3156002EA30CBF81C00CAF82470504F38788BF818004F
S3156002EA40401C3870CAF8106043464A462146504612
S3156002EA5000F015F85046A847002801D000200CE0C7
S3156002EA607868CAF80000C7F804A09BF8110080060F
S3156002EA7002D55046FAF7C3FB5046BDE8F28FF8B5A9
S3156002EA8007460C4615461E46002C02D02068002812
S3156002EA900BD1384600F016F82946384600F055F88C
S3156002EAA031463846BDE8F4403DE02946384600F036
S3156002EAB04CF83146384600F036F821463846BDE80D
S3156002EAC0F440FFE738B505460C0002D02068009096
S3156002EAD002E02B480068009000996868814221D064
S3156002EAE06946281D0AF0F0FF6946281D0FF0D9F91C
S3156002EAF06946281D04F08BFD002C01D1002000E040
S3156002EB00206868600121284600F05DF8E9690029FD
S3156002EB1001D02846884705F13E00FEF733FF291DDE
S3156002EB20FFF7C6F831BD10B50446002901D10020B1
S3156002EB3000E00868E06004F13E00FEF723FF04F19E
S3156002EB400C01BDE81040FFF706B910B5044600296E
S3156002EB5001D1002000E00868A06004F13E00FEF7E3
S3156002EB6011FF04F10801BDE81040FFF7C9B8034977
S3156002EB708860704700000000142E0210F024031013
S3156002EB802C17021010B5044694F83D10C80719D424
S3156002EB9041F0010184F83D10E169002901D0204667
S3156002EBA0884794F83D00400703D50321204600F0CC
S3156002EBB00AF804F13E00FEF7E5FE0121BDE81040C9
S3156002EBC0FFF740B910BD10B50446C80713D5606893
S3156002EBD0002810D094F83D00000703D5211D204679
S3156002EBE0F9F70BF894F83D00800604D52046BDE897
S3156002EBF01040FAF71EBB10BD10B5044694F83D10DE
S3156002EC00C80716D501F0FE0184F83D10080702D543
S3156002EC102046F8F750FDE169002901D02046884771
S3156002EC2004F13E00FEF7AEFE0021BDE81040FFF79C
S3156002EC3009B910BD38B5044604F12005697F480755
S3156002EC4016D441F004016977C80703D5032120462B
S3156002EC50FFF7B9FF2968002901D02046884704F1E9
S3156002EC603E00FEF78FFE0121BDE83440FFF70EB984
S3156002EC7031BD10B5044604F12002507F410710D51C
S3156002EC8000F0FB0050771168002901D020468847C2
S3156002EC9004F13E00FEF776FE0021BDE81040FFF764
S3156002ECA0F5B810BD4E6F20696E69742066756E6325
S3156002ECB074696F6E20676976656E0000E0B5C1693A
S3156002ECC0029181690191416900910369C268816813
S3156002ECD04068FFF780FE002802D16FF00B000EBD80
S3156002ECE000200EBD80B502465068D168002902D068
S3156002ECF0BDE80440084791688847002002BD70B5A8
S3156002ED0088B0002900D11149002A00D10F4A002B90
S3156002ED1000D10E4B0E9C0D9D0C9E019002910392AA
S3156002ED200493059606950794694609480DF044FCD6
S3156002ED3008B070BD80B588B00190029103926946B1
S3156002ED4004480DF039FC09B000BD00002C17021012
S3156002ED50BDEC0010E5EC001010B50446F4F783FB39
S3156002ED60214600E04068002803D002898A42F9D130
S3156002ED7010BD002010BDF0B4948925462D0A05F019
S3156002ED800F05E4B20020002B22D0072D3ED0082DBD
S3156002ED900AD110690389906900785843C01DC0087A
S3156002EDA0002933D1801C31E0012607E013699B1CE0
S3156002EDB005EB45077D005B5BC018761C3546ADB238
S3156002EDC0AC42F3DAC01DC00800291FD1801C1DE0C9
S3156002EDD0072D04D110694088C01DC01016E00800D6
S3156002EDE001D1012012E0082D04D110690089C01DED
S3156002EDF0C0100BE08C4201DA002007E01069801C2B
S3156002EE0001EB41025100405AC01DC010F0BC704770
S3156002EE1030228270642291FBF2F302789A180270B1
S3156002EE20642202FB1311C9B20A2291FBF2F2437801
S3156002EE30D31843703023CB1802EB8201A3EB410354
S3156002EE40837070472DE9F0478246202606FA0AF655
S3156002EE50B6B2F4F708FB0546002714E04946C9B284
S3156002EE60284600F0E3F88088304200D0002409F199
S3156002EE700109002C03D0484680B28045EEDA002CA8
S3156002EE8000D17F1C6D68002D0BD02889B0F5805F9C
S3156002EE90F8DB5446002CF2D095F80C804FF000094E
S3156002EEA0E7E7384680B2BDE8F0872DE9F84F83463A
S3156002EEB08A4615461C46202606FA0BF6B6B2BAF8FC
S3156002EEC00000B0F5805F09D1F4F7CDFA070008D1EA
S3156002EED00A98002805D01B21017002E0DFF8280796
S3156002EEE007680094002F20D1002F30D03889AAF805
S3156002EEF0000030E04146C9B2384600F097F8808893
S3156002EF00304200D0002408F10108002C03D04046AC
S3156002EF1080B28145EEDA002C06D139890098801CD0
S3156002EF200090801E0180AD1E7F68002FDCD02846CF
S3156002EF3080B20228D8DB3889B0F5805FF4DB5C46A4
S3156002EF40002CE8D097F80C904FF00008DDE74FF6FA
S3156002EF50FF70AAF80000DFF8B0060760284680B2A4
S3156002EF60BDE8F28F2DE9F84384B00D461C460026B3
S3156002EF7057699189090A01F00F01280001D0072912
S3156002EF800CD138460FF04EEB0646002C49D032467D
S3156002EF9092B2394620460FF098EA42E0092929D111
S3156002EFA04FF00108A94638460FF03CEB3844471C3F
S3156002EFB006E008F1010838460FF034EB3844471C86
S3156002EFC0414689B2894515DB3878FF2812D0FE287A
S3156002EFD010D04945EDD138460FF024EB0646002C99
S3156002EFE008D080B2002805D0324692B23946204611
S3156002EFF00FF06AEA304680B2002812D10C26002C45
S3156002F0000FD00D22DFF8BC1A68460FF070EA294667
S3156002F0100DF10900FFF7FCFE0D22694620460FF04E
S3156002F02054EA304680B205B0BDE8F0830246106904
S3156002F0309289120A02F00F02082A03D1002905D02A
S3156002F040801D704701EB410200EB420070470A30B7
S3156002F0507047F0B500228E89360A06F00F06030065
S3156002F06000D01022072E01D10020F0BD4FF0010C16
S3156002F070074610E0BC450ADA6B88D21807E01F32F1
S3156002F08013464FF6E0721A40BC4500DA40320CF184
S3156002F090010C1FFA8CFC67455ADB0B69082E01D1FD
S3156002F0A09D1D03E00CEB4C0413EB44052B889E4636
S3156002F0B0BEF1030E2DD0BEF1010E38D0BEF1020EA6
S3156002F0C027D0AEF1010EBEF1010F30D9BEF1040EAA
S3156002F0D01FD0BEF1060ED2D0BEF1040ECFD0BEF165
S3156002F0E0060ECCD0BEF1040E13D0BEF1010E1ED0B8
S3156002F0F0BEF10E0E0DD0BEF1010E18D040F23124D3
S3156002F100BEEB040E05D0AEF1020EBEF1010F0ED9B2
S3156002F110B0E70F3214464FF6F0722240BC45B6DABB
S3156002F1200B2BA9D0B3F5187FA6D01032AFE71F32EA
S3156002F13014464FF6E0722240BC45A8DA40F26224D9
S3156002F140A34299D040F26324A34295D020329EE72F
S3156002F150104680B2F0BD002974D0012906D002297A
S3156002F1603FD0032956D0222929D026E0024641F60D
S3156002F17032418A420BD1DFF850190988002906D03C
S3156002F180DFF84819097B01F0020101295ADA41F6D2
S3156002F1903341884211D1DFF8340990F8500000F00B
S3156002F1A00200012809DBDFF820090088002804D163
S3156002F1B0DFF81C090088002844D11220704741F606
S3156002F1C033418842F9D1DFF8040990F8500000F023
S3156002F1D002000128F1DBDFF8F0080088002831D14F
S3156002F1E0EBE7024641F632418A4206D1DFF8DC1885
S3156002F1F0097B01F00401012924DA41F63341884290
S3156002F200DBD1DFF8C80890F8500000F0040001284E
S3156002F210D3DB17E0024641F632418A4206D1DFF875
S3156002F220AC18097B01F0080101290BDA41F633417A
S3156002F2308842C2D1DFF8940890F8500000F00800C6
S3156002F2400128BADB002070472DE9F94F83B00E46DC
S3156002F25090463446184680890146090A01F00F0134
S3156002F260019100F0FF00ADF800003046029001986F
S3156002F270072809D0BDF80C00B0F5805F04DB04985E
S3156002F28080690078ADF800009DF83C00002826D021
S3156002F2900198072800F09981BDF80C00B0F5805FEF
S3156002F2A0C0F29381BDF800000290DFF82808036877
S3156002F2B0002B05D09DF83C203146BDF80C009847DE
S3156002F2C00498C7690E9D002F26D09DF83C000090D9
S3156002F2D02B4642463146BDF80C00B84739E0BDF8C8
S3156002F2E000003146884201D2112032E00498FFF7CD
S3156002F2F09DFE8088002800F06881DFF8DC170978B7
S3156002F30001EA400111F00E0FCFD110F0070F01D1C3
S3156002F31006201EE01A201CE0BDF80C00B0F5805FE6
S3156002F3201ADA300018D0049884693146FFF77EFEF7
S3156002F3304288D21DD21004EB860050F8040C018874
S3156002F340298041886980121F011D281D0FF0BCE8C3
S3156002F350002005B0BDE8F08F0027BB4617E04FF0EE
S3156002F3601A0B12E0002125F8021F401C0146C9B2A1
S3156002F370B8F80220C2F303129142F3DB98F8040054
S3156002F38010F0070FEBD14FF0060B641CA4B2029883
S3156002F390A042C0F234810498D0F818804FF0000978
S3156002F3A0002C0AD0BDF80C00B0F5805F05DB04992D
S3156002F3B02046C0B2FFF74DFE81464846001108EB73
S3156002F3C0400A20460146C9B20498FFF72FFE8046DE
S3156002F3D0B8F80400DFF80017097801EA400111F075
S3156002F3E00E0F00F0F68031468C4205D09DF83C0047
S3156002F3F00028CAD08C42C8DB002C07D101980728A6
S3156002F40004D0BDF8000025F8020BBEE7B8F800008C
S3156002F4100146B1F5E06F0EDBB8F802100A46092A1A
S3156002F42002DA08462F3006E0102901D1062002E0F2
S3156002F430202900D1072080B200282ED0401E012844
S3156002F4403FD9801E64D0401E6AD0401E39D0401E0D
S3156002F4505ED0401E012863D9801E00F09B80401E4C
S3156002F46001287DD9C01F67D0001F65D0801F63D079
S3156002F470C01E26D0401E4BD0401E51D00D3820D023
S3156002F480401E45D0401E4BD0401E072819D94FF466
S3156002F4900C71401A032863D999E09DF83C00002854
S3156002F4A000F09580B8F8021011F00F0004DD89446F
S3156002F4B019F00F0F00D1AD1CC91001F01E010D44E9
S3156002F4C081E009F00F010FF22462B8F8020032F807
S3156002F4D010208A40BAF8000019F00F0F01D10023FC
S3156002F4E02B802B882B8002409DF83C00002802D09E
S3156002F4F01A432A8002E0CA401A432A802888288052
S3156002F500B8F80200484410F00F0F5CD1AD1C5AE007
S3156002F51019F00F0F59D1BAF8000025F8020B52E024
S3156002F52019F00F0F51D1BAF8000025F8020BBAF89C
S3156002F530020025F8020B46E019F00F0F45D1BAF822
S3156002F540000025F8020BBAF8020025F8020BBAF899
S3156002F550040025F8020BBAF8060025F8020B32E021
S3156002F56019F00F0F31D1B8F80220D21DD2105146D0
S3156002F57028460EF0AAEFB8F80210084620F00F00EF
S3156002F5800F30001105EB400511F00F0F1BD02878E4
S3156002F590288018E019F00F0F17D1B8F80220D21D93
S3156002F5A0D210514628460EF090EFB8F80200014696
S3156002F5B021F00F010F31091105EB410510F00F0F14
S3156002F5C001D0287828800127DFE60520C1E61820C9
S3156002F5D0BFE6002019F00F0F01D101462980B8F865
S3156002F5E0022002F00F0100297FF7C0AE914419F0A4
S3156002F5F00F0F7FF4BBAE014625F8021FB6E6002F59
S3156002F6007FF4A6AE5846A4E63C2803102DE9F24FD5
S3156002F61086B082469B46BBF80C50A9464FEA19292A
S3156002F62009F00F09002105F0FF0588469DF81800CC
S3156002F63001900090B9F1070F1BD0DBF81800018822
S3156002F640C9B2080015D15046DFF890341B18202B3A
S3156002F6500ED3A0F5B053B3F5007F09D3A0F5D05011
S3156002F660B0F5007F04D350464FF23003984200D182
S3156002F6702946119F1446109E380048D0B9F1070FEB
S3156002F68001D105201BE29DF81800002803D1002C49
S3156002F69001D03188C9B200919DF8180000281BD0AC
S3156002F6A05046DFF83814091820290ED3A0F5B05158
S3156002F6B0B1F5007F09D3A0F5D050B0F5007F04D331
S3156002F6C051464FF23000814206D1DBF818000078CD
S3156002F6D0000601D04FF00108DBF820C0BCF1000F34
S3156002F6E036D038460090334622469DF8181050466A
S3156002F6F0E047040009D1DFF8E8030368002B04D071
S3156002F7003A469DF81810504698472046D7E19DF82C
S3156002F7101800814201D21120D1E101465846FFF715
S3156002F72085FC80880146C9B2DFF8AC23127802EA0A
S3156002F730910212F00E0FAFD1014611F0380F05D1CA
S3156002F740002801D10520BAE10720B8E11A20B6E106
S3156002F75000210720002C00F0B181019CCDF80CB08D
S3156002F760CDF81490ADF80850CDF810808B468046DF
S3156002F7701EE06A8812F00F0004DD511811F00F0FB7
S3156002F78000D1B61C121106EB420687E16A88D21DC9
S3156002F790D210314648460EF098EE688820F00F0087
S3156002F7A00F30001106EB40064FF0010B641CA4B249
S3156002F7B00098A042C0F275810398D0F8189020464E
S3156002F7C00146C9B20398FFF731FC05460399204604
S3156002F7D0C0B2FFF73EFC0146A888C0B2DFF8F82245
S3156002F7E0127802EA900212F00E0F00F05381002C9A
S3156002F7F003D00846001109EB40090198844204D0FF
S3156002F8003800D3D001988442D0DB002C0FD1059802
S3156002F81007280CD0BDF808103088C0B2814204D3E4
S3156002F82036F8020BA9F80000BEE7132047E12888E4
S3156002F8300246B2F5E06F0DDB6B881A46082A02DCD7
S3156002F8402F33184606E0102B01D1062002E0202B4A
S3156002F85000D1072080B2002837D0401E012845D942
S3156002F860801E70D0401E00F0C680401E3ED0401EF4
S3156002F87069D0401E012840F2BE80801E00F0EE80F4
S3156002F880401E012840F2FE80C01F00F0D180001F9A
S3156002F89000F0CE80801F00F0CB80C01E26D0401EB6
S3156002F8A051D0401E00F0A7800D381FD0401E4AD0AE
S3156002F8B0401E00F0A080401E072817D94FF40C7234
S3156002F8C0801A032840F2DE80E2E0380000F0E08031
S3156002F8D06A8812F00F0004DD511811F00F0F00D183
S3156002F8E0B61CD21002F01E0216445DE77FA268883B
S3156002F8F032F810B001F00F020BFA02FEB9F80030CE
S3156002F90023EA0E03B6F800C0380006D01FFA8EFE50
S3156002F9100EEA0C0E4EEA030E0BE06FEA0B0E1CEAC1
S3156002F9200E0F66D10BEA0C0B0BFA02FB4BEA030BCA
S3156002F930DE46A9F800E06888081810F00F0F7FF419
S3156002F94033AFB61C30E711F00F0F50D135880498EB
S3156002F950002803D0B9F80000A84267D151465F4833
S3156002F960411820290BD2A5F5B050B0F5007F06D319
S3156002F970A5F5D050B0F5007F01D3002D39D15046A0
S3156002F98041F63241884204D0514641F633408142C3
S3156002F99029D1012C0FD1B9F80000A84208D0284617
S3156002F9A001465046FFF7D7FB8046002840F0878025
S3156002F9B001214C480170082C15D14448002141614F
S3156002F9C0494901610022426000F1400200239361CD
S3156002F9D0516119469160A90705D519468162117070
S3156002F9E0D16280F88410A9F80050B61CDCE60520C6
S3156002F9F065E0122063E011F00F0F15D1049800281C
S3156002FA0009D0B9F80000318888420FD1B9F80210DE
S3156002FA10708881420AD136F8020BA9F8000036F8DE
S3156002FA20020BA9F80200BFE6052048E01C2046E06A
S3156002FA3011F00F0F10D136F8020BA9F8000036F854
S3156002FA40020BA9F8020036F8020BA9F8040036F890
S3156002FA50020BA9F80600A7E6052030E011F00F0FA9
S3156002FA600ED16A88D21DD210314648460EF02CED70
S3156002FA70688820F00F000F30001106EB400693E60F
S3156002FA8005201CE011F00F0F3FF480AE052016E052
S3156002FA90182014E0002C7FF46CAEB61C4FF01808E8
S3156002FAA084E63A464046BBF1000F08D00C4803682C
S3156002FAB0002B03D09DF8181050469847002007B0D7
S3156002FAC0BDE8F08FD0F40110B02C0310FC240310B3
S3156002FAD0AE2C0310B46002108E2C0310F0E3FFFF0D
S3156002FAE0B8600210DD2C031020A10700000001009F
S3156002FAF0030007000F001F003F007F00FF00FF01A9
S3156002FB00FF03FF07FF0FFF1FFF3FFF7F0268516082
S3156002FB1002680A60016048607047426801684A602C
S3156002FB20026841680A604060014601607047F2F708
S3156002FB30F5BD0846F2F7F6BD30B400F07F0000244A
S3156002FB400246DFF8F83200E0641C0B2C08DA04EB9C
S3156002FB504401CD00595D9142F6D1581930BC7047C7
S3156002FB600020FBE72DE9F84305460E461746304668
S3156002FB70FFF7E2FF040007D140F267120FF2C821D5
